:020000041000EA
:1000000000B5324B212058609868022188439860DF
:10001000D860186158612E4B002199600221596106
:100020000121F02299502B49196001219960352056
:1000300000F044F80222904214D00621196600F024
:1000400034F8196E01211966002018661A6600F04E
:100050002CF8196E196E196E052000F02FF8012189
:100060000842F9D1002199601B49196000215960AB
:100070001A491B48016001219960EB211966A021F2
:10008000196600F012F800219960164914480160C1
:100090000121996001BC002800D000471248134993
:1000A000086003C880F30888084703B5996A0420EC
:1000B0000142FBD001200142F8D103BD02B5186610
:1000C0001866FFF7F2FF186E186E02BD00000240BE
:1000D000000000180000070000035F00212200005C
:1000E000F4000018222000A00001001008ED00E03C
:1000F00000000000000000000000000074B24E7A12
:1001000000200420F7010010C3010010C5010010F9
:10011000C1010010C1010010C1010010C101001097
:10012000C1010010C1010010C1010010C701001081
:10013000C1010010C1010010C9010010CB01001065
:10014000CD010010CD010010CD010010CD01001037
:10015000CD010010CD010010CD010010CD01001027
:10016000CD010010CD010010CD010010CD01001017
:10017000CD010010CD010010CD010010CD01001007
:10018000CD010010CD010010CD010010CD010010F7
:10019000CD010010CD010010CD010010CD010010E7
:1001A000CD010010CD010010CD010010CD010010D7
:1001B000CD010010CD010010CD010010CD010010C7
:1001C00000BE00BE00BE00BE00BE00BE00F04BF888
:1001D000103800BEF2EB887124B8001044B800104B
:1001E0003402001090A31AE700202149086006C8D5
:1001F00081F3088810471F48006800282FD10DA4FC
:100200000ECC002902D000F012F8F9E71A491B4A77
:10021000002000E001C19142FCD1194988471949E9
:1002200088471949884700BEFDE701C901C29A42C3
:10023000FBD3704744B80010C00000206C0D0020B4
:10024000F0C400100000042000000420F0C40010DE
:1002500000100420001004200000000070470B482C
:1002600003F0BEFC0047EFF30580C0B2704700000A
:1002700008ED00E0000000D0700D0020701C002090
:10028000B9240010290700107524001057560000EB
:1002900006005250ABB36053ECAF00100600525052
:1002A000861C0302FCAF0010060052505422A29D8F
:1002B00014B0001005005250DE65F468F0C4001060
:1002C000F8B5C04606480749091A8B10C90FC91866
:1002D00010B5491003D0044B002B00D0984710BD37
:1002E0006C0D00206C0D002000000000054B10B5C7
:1002F000002B03D00449054800E000BFFFF7E2FFF0
:1003000010BDC04600000000F819002020A0001019
:1003100010B504000448210008F0DCFD034821006A
:1003200008F0D8FD10BDC046FC1400203815002090
:1003300010B5054808F002FE044808F0FFFD044827
:1003400008F0E4FF012010BDFC1400203815002047
:10035000B419002010B501280FD0022809D00028B8
:1003600003D0084805F070FC02E0074805F06CFC7B
:1003700010BD064805F068FCFAE7054805F064FC86
:10038000F6E7C04688A0001020A0001040A0001092
:1003900060A00010F0B5CE46474680B583B004009B
:1003A0000D00012809D0002C02D1204B9D4232D0F3
:1003B00003B0C0BCB946B046F0BD1C4B9942F2D167
:1003C0001B491C4F00230222380008F01FFD1A4E63
:1003D0001A481B4B99460193022398460093331CFD
:1003E00009220A2108F04BFD16484B46019343466B
:1003F0000093331C0722082108F041FD124A134ED6
:1004000043463900300008F0B9FB114800223100A2
:1004100008F009FEC7E70D4B1868002802D04821F4
:1004200005F03CFB094B00221A60C1E7FFFF00000A
:1004300028040020DC1400200000A042FC1400204E
:10044000110300103815002020040020841900201A
:10045000B4190020F0B5DE4657464E464546E0B595
:10046000D1B0364808F0D3FD012858D000253448D3
:1004700008F0CDFD012854D00024324808F00AFCD1
:10048000012850D000239B462C4808F0A3FD05F01E
:1004900011FA0C900D912A4808F09CFD05F00AFA1B
:1004A00006000F00002D41D0274B9946002C40D06C
:1004B000254B9A46234B9846180008F0CBFB05F0D5
:1004C000F9F904000D00214808F0CAFC0F904046DD
:1004D00008F0DEFB05F0EEF902000B00594600299A
:1004E0002AD019481A490A90089209930F9B06933B
:1004F00004940595534603934B4602930096019747
:100500000C9A0D9B11A803F03DFB11A805F0CEFB42
:1005100051B0F0BCBB46B246A946A046F0BD01258D
:10052000A5E70124A9E701239B46ADE7094B9946BE
:10053000BCE7084B9A46BDE70648D3E7FC14002009
:100540003815002084190020A4A00010DC1400201D
:10055000A8A00010F0AF001010B5FFF77BFF024815
:1005600008F09EFB012010BD8419002070B5061C08
:100570000D001000642103F05FFB040005F03EF95C
:10058000011C301C05F0D3F8061C1948290008F09E
:10059000D1FA00250EE0280005F030F9311C05F0F5
:1005A000DCF8011C124B180008F0BBFA642001F0C3
:1005B00073FB0135A542EEDDFA20C00001F06CFBB3
:1005C0000EE0200005F01AF9311C05F0C6F8011CF8
:1005D000074B180008F0A5FA642001F05DFB013C10
:1005E000002CEEDAFA20C00001F056FB70BDC046C8
:1005F0008419002010B584B0174805F025FB01F0E0
:10060000FFF8164B029300240194154B0093154AF2
:10061000002301F03DFA01F0F3F8134B029301942B
:10062000124B0093124A002301F032FA05E0002138
:10063000104A1148FFF79AFF0134312C03DCE3071D
:10064000F5D50121F4E7054801F06EFA064801F0FE
:100650006BFA04B010BDC046C4A00010900E00207C
:1006600031030010C0D40100700E002059050010A5
:1006700080380100983A00000000F04210B582B0C6
:100680000121032008F050F90121022008F04CF963
:100690000121042008F048F90121052008F044F95F
:1006A00008F028F906211A2008F03EF905F00AFBA7
:1006B0001848012108F0E0FB1748012108F0DCFB95
:1006C000164C0121200008F029FA200008F03EFA1B
:1006D0000121200008F034FA0021200008F02AFA55
:1006E000FA230F4C0F4A00921B01462214212000CE
:1006F00008F0C3FC200008F08DFC05F0AFFC0028DA
:10070000FBD0FA20800001F0C7FAFFF773FF02B0B8
:1007100010BDC046FC1400203815002084190020AC
:10072000B41900205503001010B5FFF7A7FFFEE72E
:1007300010B502490120FFF72DFE10BDFFFF00009C
:1007400010B58300084A944663441A684024624006
:10075000803414408022520113431C60C000034BBC
:100760009C466044416010BD04C00140004001400F
:1007700080000B4B9C46604400290DD00823002AC2
:100780000CD004221343026853400C221A408023E9
:100790005B0103431A6070470023F0E70022F1E792
:1007A00004C0014070B50400D0231B061D680D4B2A
:1007B000AA00D358002B0AD0002803D0094BAD0063
:1007C000EC5070BD08490D2000F038FBF6E700281A
:1007D000F7D0044BAD00E850034900220D2000F093
:1007E00015FAEEE7401400207908001007230340B3
:1007F0009B00C00899403C308000014BC1507047BD
:1008000000400140F8B507000C0016001D00FFF77E
:10081000EDFFFB089B00ED18072038408000844066
:10082000002E04D080239B012B431C60F8BDC02305
:100830009B012B431C60F9E710B5D0231B061B68F6
:10084000002B03D0024BFFF7DDFF10BD014BFAE791
:10085000304101400041014070B514001D00FFF718
:10086000EBFF2800FFF79EFF002C00D170BD012197
:100870000D2000F077F9F9E7F0B5D6464F46464629
:10088000C0B5D0231B061F681D4BBA00D35898462D
:10089000002F03D01B4B9946002623E01A4B9946A4
:1008A000FAE724090135002C1BD033000833AB4292
:1008B00017D90F231A00224092462342F1D0134B3E
:1008C000BA00D2580123AB401342EAD15146280066
:1008D000FFF78CFF4346002BE3D051462800C0476A
:1008E000DFE708361D2E06D8F30808339B004A467A
:1008F0009C583500D7E7E0BCBA46B146A846F0BDE3
:10090000401400203041014000410140201A0020E5
:10091000002909D08000094B9C46604480239B013C
:10092000034340221A6070478000044B9C46604499
:10093000C0239B01034340221A60F4E704C0014036
:1009400010B501238340D0221206936293610521E2
:10095000FFF7F6FE10BD0000EFF3108072B6034BF8
:100960001B68002BFBD0BFF35F8F70472C0100D0BA
:10097000BFF35F8F024B00221A6080F3108870472C
:100980002C0100D0F8B506000C001500FFF7E4FFBD
:10099000E308F718F15C07222240012393400B4241
:1009A00005D1DBB20B433B70FFF7E2FFF8BD21003E
:1009B000280001F0FDFDF0B583B0060001911400A0
:1009C0001F00FFF7C9FF00E00134BC420CD8E30868
:1009D000F518F35C0721214001228A401A42F3D125
:1009E000D2B21A432A7001E001246442FFF7C0FF2B
:1009F000002C02DB200003B0F0BD019B002BF9D0DE
:100A0000089801F0D5FD0000034B1B680220184038
:100A1000431E9841C0B2704700C00640002307E063
:100A2000054A9A189200BFF35F8F002111600133CD
:100A30001F2BF5D97047C04640000034054A107896
:100A4000431CDBB21370172B02D9130010221A704B
:100A50007047C0463004002010B582B00100054C3C
:100A6000054B00931F2318222000FFF7A4FF02B0BC
:100A700010BDC0464814002008A10010074B9B6819
:100A8000103080001950BFF35F8FBFF35F8F044BAE
:100A90000021196082F310887047C04600ED00E025
:100AA000240100D010B5091A0B1F0A4A944661446C
:100AB000094A914208D8DA0706D45B105B055B0D42
:100AC0000648184380B210BD054B064A06489921D6
:100AD00001F0D4FCFC070000FE0F000000E0FFFF67
:100AE00024A1001084A3001054A1001010B5091A0D
:100AF00004394A08090B08D14905490D064B0B4337
:100B00000380064B1343438010BD054B054A06483E
:100B1000A12101F0B3FCC04600F0FFFF00F8FFFF89
:100B200094A1001058A3001054A100100123834089
:100B3000034A10681840431E9841C0B27047C0462F
:100B400000E100E0002904D0034B1860034B18605B
:100B50007047034B1860FBE780E200E000E100E033
:100B600080E100E010B5012383401800FFF7EAFFA1
:100B700010BD000001238340014A13607047C04646
:100B800000E200E0024B9B6810308000C0587047C4
:100B900000ED00E010B5FFF7F5FF002805D0054B8C
:100BA000C01A2F2803D8012010BD0020FCE7002028
:100BB000FAE7C0463404002070B504000D00EFF3DE
:100BC000108672B60C4B1B68002BFBD0BFF35F8FF7
:100BD0002000FFF7D7FF094B984201D0A84205D16A
:100BE000320029002000FFF749FF70BD044B054A81
:100BF00005487C2101F042FC240100D0CD01001009
:100C0000A4A10010B8A3001054A10010F0B5DE4656
:100C100057464E464546E0B589B0814601911500DC
:100C2000EFF3108A72B6744B1B68002BFBD0BFF336
:100C30005F8F724B0027DF57002F40DB7C00E419E9
:100C4000A4006F4824180622A2566C4B1A706D4BF4
:100C50009A684B4610339B00D35898461E00181ACA
:100C60002F2838D9684B98452FD105AE674B338074
:100C700067497B009B46D8198000614B98464044E9
:100C80000230FFF70FFF7080624BB380FF23B37118
:100C9000F571019B07935F44BB00434407CE07C334
:100CA00001231C43A046524641464846FFF7E6FE54
:100CB00009B0F0BCBB46B246A946A046F0BD564BB3
:100CC000564A5748CD2101F0D9FB564B534A544858
:100CD000D42101F0D3FB01380C2102F0D5FF00290B
:100CE00012D101239E43B34633000026DA79AA428B
:100CF00011D90621595600290CDB4A0052189200DE
:100D00003F491E008B18F1E7474B444A4448E02115
:100D100001F0B4FB1E00002E3BD005AB434A1A8005
:100D2000813A5A800623F3560293002B18DABD202D
:100D3000000205AB9B469880029A9A71DD71019A78
:100D40000792301D2100FFF7ADFEB080B7712C4B2C
:100D50007A00D21992009B185A4613CA13C3A2E70D
:100D60007800C0198000264BC0180430311DB388AC
:100D7000DA0A1C2A07D15B055B1502335B00C91830
:100D8000FFF790FED5E72A4B2A4A2548A72101F014
:100D900075FB05AE1D4B33801D497B000293DB19AB
:100DA0009B00174A90461A0042440392901CFFF79A
:100DB00079FE7080039A101D5946FFF773FEB080CC
:100DC0001D4B5A464146521A524153431B0DB371B3
:100DD000F571019A0792029B9C466744BB0043440D
:100DE00007CE07C3114B5A461380813B5380012322
:100DF0001C43A04657E7C046240100D06A1C0020CF
:100E00003404002000ED00E0CD01001000A1FFFF40
:100E10006404002000BDFFFFDCA10010A0A30010AF
:100E200054A1001004A200102CA2001001480000E0
:100E3000A0A2001090A30010AAAA0000F0B5CE4610
:100E4000474680B583B006000D00EFF3108872B6F8
:100E5000554B1B68002BFBD0BFF35F8F534B9A6839
:100E600034001034A300D758514B9F4207D0AF42F3
:100E700000D197E001974F4BFB1A2F2B09D942461F
:100E800039003000FFF7FAFD03B0C0BCB946B046E8
:100E9000F0BD3000FFF74AFE814600213000FFF729
:100EA00061FEBFF35F8FFFF7DEF9002801D08442B7
:100EB00011D10123019C9C430021A368AB4212D0B5
:100EC0000622A256002A0DDB53009B189B00394ACC
:100ED0002100D418F1E7384B384A2C213848FF312B
:100EE00001F0CCFA2100AB4255D106256557002D03
:100EF00037DB304B6A00521992009B189A68A26047
:100F0000DA79E2719B795BB2A371002B10DABD2014
:100F10000002A080274B6A00521992009B18294AB0
:100F200011789971157049463000FFF71BFEA6E74E
:100F3000201D6B005B199B001E4A9B18191D9B8886
:100F4000DA0A1C2A07D15B055B1502335B00C9185E
:100F5000FFF7A8FDDDE71C4B1C4A1948A72101F04B
:100F60008DFA002812D100290ED0FF238B71184B67
:100F70008B8014490B78A3710E4A164BA41A644156
:100F800063431B0D0B70CEE7094FF2E71249201D9A
:100F9000FFF7ACFDC7E7114B084A60210848FF3155
:100FA00001F06CFA024F6AE7240100D000ED00E086
:100FB000CD01001034040020B8A2001070A300106E
:100FC00054A100106A1C0020A0A2001090A30010E1
:100FD00000BDFFFFAAAA00006E040020DCA20010E2
:100FE00070B50400012606432D4BF31A2F2B28D889
:100FF000FFF739F900282BD0EFF3108C72B6294B8C
:101000001B68002BFBD0BFF35F8F254A264D2100C4
:10101000891A49414D432D0D6DB2244B9B688000C8
:101020001B58B3421BD00021032932D81C4B4A0065
:10103000521892009B189B795BB2AB421FD00131D2
:10104000F2E71B4B1B4AC2211B48490001F016FA6C
:101050001A4B184A88211848FF3101F00FFA134B38
:101060009B68174A1A50174B1A78A2711D70BFF36C
:101070005F8F0C4B00221A608CF3108870BD084BF8
:101080004A00501880001818FF2686710E4A828088
:10109000E9E70E4B074ACC210748490001F0EEF979
:1010A00034040020240100D0AAAA000000ED00E0D2
:1010B000E4A200103CA3001054A100100CA30010E7
:1010C000CD0100106A1C002000BDFFFF18A3001016
:1010D0000022044B02E0044902C30132072AFAD974
:1010E0007047C04600E400E08080808000B583B097
:1010F0000100D0231B061B680648C018064B00934E
:1011000005230022FFF757FC002801DB1F23181AD4
:1011100003B000BD641C002020A30010024B9C46BD
:1011200061448900016070474000003410B50C0034
:10113000CB68834207D10B6908009847002809D083
:101140002068616810BD064B064A96210648490092
:1011500001F094F90023E36000200021F2E7C0468B
:10116000D4A3001098A60010E8A3001070B50500E5
:101170000C00080000F01EFE200000F003FF0849EC
:10118000200000F043FEFFF759FC064B9C466044EC
:10119000800068602C75044BA400E55070BDC0460B
:1011A000A114001040000034101A00200A4B1A68E5
:1011B000EFF3108172B61368002BFCD0BFF35F8F82
:1011C000054B1B68BFF35F8F00221A6081F3108804
:1011D00040BF002000217047341C002010B50029BA
:1011E00020D003681B7B99421CD88368154CA44609
:1011F000614409015B181C685968002A18D003680B
:101200001B7B9A4214D883680E48844662441201BC
:101210009B181A685B6801208B4201D80ED0002011
:10122000C0B210BD084B094A09483B2101F026F91C
:10123000054B064A06483B2101F020F9A242EFD8AF
:10124000EDE7C046FFFFFF0F20A4001000A700102D
:10125000E8A3001010B500291DD0037B99421AD8CD
:1012600004684B005B18033BE418002919D0002ADE
:101270001DD0914221D0002A25D0037B9A4222D84A
:10128000006853009B18033BC3189970217800290C
:101290001FD1227010BD104B104A1148682101F077
:1012A000EDF8104B104A0E486F3101F0E7F80F4B84
:1012B0000D4A0B48702101F0E1F80D4B0A4A08482D
:1012C000712101F0DBF8044B044A0548682101F064
:1012D000D5F859702270DDE754A400106CA70010F7
:1012E00070A40010BCA4001048A70010C8A40010EF
:1012F000D4A4001070B506000D001400002914D00D
:10130000002A14D0436880689847002806D022003D
:1013100029003000FFF79EFF280007E02A00210087
:101320003000FFF797FF200000E0100070BD0800BC
:10133000FCE70000F0B583B00500009201930AAB12
:101340001C780BAB1F78002C26D003685A7B944284
:1013500007D10123002B19D1002C3AD1200003B072
:10136000F0BD002C0CD01A7B944209D81A68630097
:101370001B19033BD3189B78002BEBD00123E9E723
:101380003C4B3D4A3D48682101F078F83C4B3D4AD2
:101390003D48652101F072F803689C7B002CDBD08E
:1013A00011D01A7B94420ED81A68610009190339CA
:1013B000521851789973002900D1D9730023937082
:1013C00053701370C8E72B4B2B4A2C48682101F04F
:1013D00055F8002C37D02B681B7B9C4233D8AB6868
:1013E0002A4AA21812019B18009A1A60019A5A60A0
:1013F000089A9A60099ADA602E68002C29D02ED0BB
:10140000337B9C422BD8336862001219033A9B1835
:1014100000229A705A701A70717B22003000FFF718
:1014200069FF7073844299D1287D009A019B00F076
:1014300035FD061E01D0002F17D00C9B002B00D1CC
:101440008CE71E708AE7124B124A0F483B2101F0CD
:1014500015F8114B114A0948A52101F00FF8054B69
:10146000054A0648682101F009F82868210000F0C3
:1014700037FFE2E754A400106CA7001070A400101E
:10148000ECA4001078A70010E8A30010FFFFFF0FE6
:1014900020A4001000A70010E4A300105CA7001017
:1014A000F0B5DE4657464E464546E0B58BB009904E
:1014B00000230893B24B8200D55833E0B14BB24AB7
:1014C000B2483F2100F0DAFFB14BB24AB2483B21AB
:1014D00000F0D4FFB14BB24AAF488C2100F0CEFFF0
:1014E000B04BAF4AAC48902100F0C8FFA84BAE4AC1
:1014F000A948402100F0C2FF43461A685B6809987A
:1015000000F0CCFC00239B469A466B68BFF35F8FCC
:1015100000221A6089F310885346002B53D100280B
:1015200000D126E100F052FC02000B1EC6DB0020B9
:101530000021069007916868EFF3108972B6016880
:101540000029FCD0BFF35F8F2868447B002C35D086
:10155000BAD0017B8C42B7D8AE68944961180901B2
:10156000B046884441460E684F68B61A9F41002F26
:10157000C2DC01D1002EBFD1002100F0A7FEA042A5
:10158000A8D143461A685B680692079343469B6856
:101590009A464346DB689B465346002BA0D0002C5E
:1015A000A4D02B681B7B9C42A0D8EA68631ED35C46
:1015B00008931B02184328610020A6E700239B46DE
:1015C0009A460020A1E7089B1B02234398465946F0
:1015D0001800D04706000F006A68EFF3108972B652
:1015E000136859424B41D9B2002BF9D1BFF35F8F39
:1015F000002F26DB002F52DD2B69002B53D04345F3
:1016000072D100F0E3FB02000B1E73DB0100180037
:1016100092197B41984202D804D1914202D9012209
:101620005242D317002B6BDB00210491013103914F
:10163000029459460191514600912800FFF77AFE25
:1016400049E02B69002BD5D043451CD1069A079B56
:1016500010001900921BBB41994202D804D190425C
:1016600002D901225242D317002B12DB0021049130
:10167000013103910294594601915146009128008D
:10168000FFF758FE27E04A4B454A43489F2100F0A8
:10169000F5FE3C4B3C4A3D483F2100F0EFFE002F59
:1016A00001D1002EA8D12A68002C44D0537B9C4243
:1016B0002CD1012100293ED1D37B002B41D1D47301
:1016C000002C50D02B681B7B9C424CD8EA68013C14
:1016D000135D0133135500232B616A68BFF35F8FDD
:1016E000136089F310881DE7314B2D4A2A48A22147
:1016F00000F0C4FE234B244A24483F2100F0BEFEE4
:10170000204B214A21483F2100F0B8FE002C0CD08C
:10171000137B9C4209D8106863001B19033BC31854
:101720009B78002BC6D00121C4E7224B224A2348D4
:10173000682100F0A3FE224B224A2048F62100F047
:101740009DFE002B09D0117B8B4206D810685900F2
:10175000CB18033BC3185C70B1E7164B164A174809
:10176000682100F08BFE0A4B0F4A0B48402100F025
:1017700085FE0BB0F0BCBB46B246A946A046F0BD04
:10178000101A002014A50010CCA6001030A50010DF
:1017900020A4001000A70010E8A3001078A50010F6
:1017A000E4A6001090A5001024A70010FFFFFF0F73
:1017B0009CA5001054A400106CA7001070A4001089
:1017C000D8A5001038A7001010B50A4B5B68002B95
:1017D00004D009480A21FFF7A1FC10BD054C074AB7
:1017E00020682300102100F095FC03212000FFF762
:1017F000BDFCEEE77C040020341C0020DD1100104D
:1018000010B5064B5B68002B01D0044810BD044B9B
:10181000044A05485C2100F031FEC0467C040020EB
:10182000FCA500100CA70010E8A30010F0B5DE46E0
:1018300057464E464546E0B58BB0804616001F0021
:10184000149B9A46159B994616AB1B789B461F2303
:1018500002AA9446634400221A7036E0002809D098
:1018600042461268127B904204D84246D168421E1A
:101870008A5C4CE0454B464A4648402100F0FEFD5C
:101880000798002B79D05B46002B76D04946D0478D
:1018900004000D0003000B4300D175E000294ADB72
:1018A00000F094FA02000B1E59DB01001800121917
:1018B0006B41984202D804D1914202D9012252428E
:1018C000D317002B51DB16001F0043465A68EFF375
:1018D000108472B6136859424B41D9B20791002B5C
:1018E000F8D1BFF35F8F1F3302AA94466344049379
:1018F0000023039302934B46019353460093320017
:101900003B004046FFF716FD031EA7D102004146EB
:101910004968BFF35F8F00250D6084F31088002BAA
:1019200029D01F2302A98C4663441B78002BA7D122
:1019300012021043A5E730003900361BAF41B9420F
:1019400002D804D1B04202D901267642F717002FFF
:10195000BBDA114B114A12483F2100F08FFD0E4BAC
:101960000E4A0F483F2100F089FD0B4B0B4A0C48F3
:101970003F2100F083FD012040420BB0F0BCBB468C
:10198000B246A946A046F0BD0798F6E720A400108D
:1019900024A70010E8A3001014A50010CCA6001086
:1019A00030A50010F8B504004268EFF3108572B658
:1019B000136858424341D8B2002BF9D1BFF35F8F6F
:1019C000CBB22268567BB3421BD10120002847D0FE
:1019D000206988422AD0090AC9B2002B2DD020687C
:1019E000007B834229D8E668581E305C88422AD0A2
:1019F00000206368BFF35F8F00221A6085F31088B0
:101A0000F8BD002B0CD0167BB34209D817685E00D6
:101A1000F618033EBE19B678002ED7D00120D5E7C0
:101A2000124B134A1348682100F028FD124B134A49
:101A300085211348490000F021FD124B124A10483D
:101A4000402100F01BFD1900100000F049FC0028A7
:101A5000CFD10E4B094A12210948FF3100F00EFD8B
:101A600023698B42C5D100232361C2E754A400102F
:101A70006CA7001070A4001020A60010B4A60010DF
:101A8000E8A3001020A4001024A7001044A6001012
:101A9000F0B585B007000C9E1100194301D1012259
:101AA0000023B7600A993161326073600B997161EC
:101AB000D81701004240140043401D00241A8D41F4
:101AC00000F084F902000B1E1ADB01001800121945
:101AD0006B41984202D804D1914202D9012252426C
:101AE000D317002B12DB0121029101960A490091C4
:101AF0003800FFF79BFEF060C043C00F05B0F0BD9B
:101B0000064B074A07483F2100F0B8FC034B044A44
:101B100004483F2100F0B2FC2D11001014A5001064
:101B2000CCA6001030A5001010B50400C168002933
:101B300001D1002010BD8068FFF734FF0023E3606F
:101B4000F8E70000F0B587B006000F00FEF78BFB4A
:101B500000281FD106246442E517A4197D41BD4227
:101B600002D803D1B44201D900240025002D14DB92
:101B70000494059500F02AF902000B1E13DBA41A49
:101B80009D41002D17DC14D03000390000F02AF9F7
:101B900007B0F0BD234800F00BFD234B234A244837
:101BA0003F2100F06BFC204B204A21483F2100F0F0
:101BB00065FC002CE8D0FFF723FE0023029301937D
:101BC0001C4B0093049A059BFFF730FE002818DA9F
:101BD000DAE7002300E00023002BD5D1164B1A686A
:101BE000EFF3108172B61368002BFCD0BFF35F8F48
:101BF000114B1B68BFF35F8F00221A6081F31088BE
:101C000020BF0499059A0D4B5B6A9A42E3D80B48B2
:101C1000806A884203D29A42DBD00123DCE70123A9
:101C2000DAE7C04648A6001014A50010CCA60010A4
:101C300030A50010AD110010341C002000400540FC
:101C4000F8B504000D0000F0C1F802000B1E10DB17
:101C500020002900801859418B4202D804D18242C9
:101C600002D901204042C117002908DBFFF76AFFB3
:101C7000F8BD064B064A07483F2100F0FFFB034B27
:101C8000034A04483F2100F0F9FBC04614A50010A8
:101C9000CCA6001030A5001010B5FA229200002347
:101CA000002103F01DFDFFF7CBFF10BD70B584B020
:101CB00006000C00FFF7A4FD002302930193194BCB
:101CC000009332002300FFF7B1FD051E11DD20BF98
:101CD000FFF796FD2900FFF765FE134B5B6A9C42F8
:101CE0001BD8114A926AB2421AD29C4213D00120E8
:101CF00014E00D4B5B6A9C4209D80B4A926AB242CF
:101D000007D29C4201D0012008E0002006E000201C
:101D100004E0012002E0002000E0002004B070BDDB
:101D20000120FBE7AD1100100040054070B5EFF356
:101D300005833F2018401038EFF3108C72B6184B13
:101D40001B68002BFBD0BFF35F8F0123190081407C
:101D5000144A5163144A12781400C440234213D029
:101D6000104B5C6A114B8500EB589C4205D3104B1D
:101D7000EB580D4C8A43227007E00A4A031D9B0072
:101D800099589950002300E00023BFF35F8F044A65
:101D9000002111608CF31088002B00D0984770BD93
:101DA000280100D0004005406E1C0020401C00208F
:101DB0003013002010B50100024A034B1800FEF753
:101DC000E1FD10BD90A70010691C0020044B5B6A68
:101DD000034A906A1900536A9942F9D17047C04684
:101DE00000400540084B5B6A01E0074B5B6A8B4291
:101DF000FBD301E0044B5B6A8B4203D1024B9B6A2D
:101E00008342F7D37047C0460040054070B50400D8
:101E10000E00EFF3108572B61B4B1B68002BFBD036
:101E2000BFF35F8F002E1CD02000FEF7ABFE174BD8
:101E300083420BD019002000FEF7BEFE01212000D6
:101E4000FEF790FE0123A340114A1360114BA4003A
:101E5000E650BFF35F8F0C4B00221A6085F31088A9
:101E600070BD0C4BA2000021D1500122A2400A49B2
:101E70000B7893430B7005492000FEF7DFFF00212C
:101E80002000FEF76FFEE4E7280100D02D1D0010B2
:101E900038600540301300206E1C0020F0B5DE468F
:101EA00000B584B00400150001921E000293FFF7F4
:101EB0008DFF03958E4202D84ED185424CD9EFF367
:101EC000108B72B6274B1B68002BFBD0BFF35F8FC4
:101ED000254A17780125A540EBB23B431370234BED
:101EE0005D63221D92000199D150214AA100029800
:101EF00088501B6A2B4212D11C4B1B6C2B4208D002
:101F00000020BFF35F8F174B00221A608BF31088FD
:101F100023E0184B184A1948C12100F0AFFAFFF727
:101F200055FF8E4214D802D1039B834210D80E4B2A
:101F30001B78BB420ED00D4B1D625D631F222240F9
:101F4000012393400E4A1360074B1F700120D8E70E
:101F50000020D6E70120D4E7012004B080BCBB46B6
:101F6000F0BDC046280100D06E1C00200040054096
:101F7000401C0020B4A700101CA80010D8A7001017
:101F800080E200E0EFF3108C72B60B4B1B68002B65
:101F9000FBD0BFF35F8F01238340084A13620849D7
:101FA0000A789A430A70BFF35F8F034B00221A60CE
:101FB0008CF310887047C046280100D000400540CF
:101FC0006E1C002010B500291DD0037B99421AD841
:101FD00004684B005B18033BE418002919D0002A61
:101FE0001DD0914221D0002A25D0037B9A4222D8CD
:101FF000006853009B18033BC3189970217800298F
:102000001FD1227010BD104B104A1148682100F0FA
:1020100035FA104B104A0E486F3100F02FFA0F4B73
:102020000D4A0B48702100F029FA0D4B0A4A084866
:10203000712100F023FA044B044A0548682100F09E
:102040001DFA59702270DDE754A4001024A9001075
:1020500070A40010BCA4001010A90010C8A40010A7
:10206000D4A4001070B506000D001400002914D08F
:10207000002A14D0436880689847002806D02200C0
:1020800029003000FFF79EFF280007E02A0021000A
:102090003000FFF797FF200000E0100070BD08003F
:1020A000FCE7000010B50023437301338373037B07
:1020B000C3730123027B9A4213D9002B0BD0027BFE
:1020C000934208D801685A00D218033A8A1801339B
:1020D000DBB25370EEE70C4B0C4A0D48682100F060
:1020E000CDF9002A09D0924207D8016853009B1805
:1020F000033BCB1800225A7010BD034B034A04481F
:10210000682100F0BBF9C04654A4001024A90010B7
:1021100070A4001010B5017342608360FFF7C2FF26
:1021200010BD000070B50400081E00D170BD00296C
:1021300031D0237B99422ED822684B005B18033B99
:10214000D3185A78002AF1D02BD0237B9A4228D872
:10215000216853009B18033BCB185D780021597010
:10216000002824D0237B984221D8216843001B18E3
:10217000033BCB180021597001002000FFF772FFCC
:10218000060029002000FFF7CDFF020031002000EB
:10219000FFF768FFCAE7094B094A0A48682100F0BF
:1021A0006DF9064B064A0748682100F067F9034BB2
:1021B000034A0448682100F061F9C04654A40010A5
:1021C00024A9001070A4001070B505000C001600C2
:1021D000002927D02CD0037B994229D803684900D5
:1021E000091903395B185A78002A27D19A78002AEE
:1021F0002AD11978FFF796FF0300002E03D0EA7B5F
:10220000002A27D1EC73002B36D1002C47D02B7B32
:102210009C4244D82A6863001B19033BD318002250
:102220005A7070BD214B224A2248382100F026F90D
:10223000214B224A2248682100F020F9214B1C4AF8
:102240001C483A2100F01AF91F4B194A19483B2142
:1022500000F014F9002A09D0297B8A4206D82E689A
:1022600051008A18033AB2185470CBE7124B134A44
:102270001348682100F002F9002B0AD02A7B934210
:1022800007D82A6843001B18033BD31800229A7012
:10229000BBE7094B094A0A48682100F0EFF8064BF2
:1022A000064A0748682100F0E9F8C04638A800103F
:1022B000FCA8001040A8001054A4001024A900108D
:1022C00070A4001078A80010A0A8001070B5040039
:1022D0000A00457B2900FFF777FF6073280070BD77
:1022E00070B50400002966D0437B8B420ED00029D4
:1022F00011D0037B99420ED805684B005B18033B55
:10230000ED18AB78002B0CD1002055E00121FFF730
:10231000DDFF012050E0294B294A2A48682100F0BE
:10232000ADF8002B1FD0027B93421CD800685A00E6
:10233000D318033BC218C35C8B421AD0002B1BD0AE
:10234000227B934218D820685A00D318033BC01848
:1023500043788B4216D0002BF0D11B4B1B4A1C48F4
:10236000672100F08BF8154B154A1648682100F0DC
:1023700085F86B78137007E0104B114A11486821FB
:1023800000F07CF86B7843700023AB706B70012217
:102390002000FFF719FF0200617B814205D0200079
:1023A000FFF760FE6073012006E00A4B074A084809
:1023B0006D2100F063F8002070BDC04654A40010E9
:1023C00024A9001070A4001018A30010E4A80010A5
:1023D00040A80010C4A8001010B50400FEF72EFBA2
:1023E00001002000FEF79AFEFF232371BFF35F8FE9
:1023F00010BD10B50400FEF721FB01002000FEF720
:102400008DFEFF23237100236371BFF35F8F10BD27
:10241000034B9C46614489000160BFF35F8F7047A6
:102420004000003410B504000120FEF715FB010048
:102430002000FFF7EDFF10BD00BEFDE703000A4AD4
:102440001268002A08D0084A1068C318074A9A423E
:1024500006D3054A13607047034A05491160F2E745
:1024600001204042F7E7C0467C1500200000042010
:10247000701C002010B5FFF7DFFF000030B583B0FF
:102480000D001900002A0DD0084B002A0CD0084C72
:10249000019200932B000200200003F007FC0120B2
:1024A000FFF7CAFF034BF0E7024AF0E7F8A9001074
:1024B00008AA0010C0A0001070B52B4B2B4A1A6060
:1024C0002B4B2C4A1A602C4B9A682A4B9343FAD117
:1024D0002A4C01E008CC9847294B9C42FAD300F0E3
:1024E00001F9234B274A1A60234B9B68DB43DB012E
:1024F000FAD1254B40229A675A671A67DA66234C4D
:1025000009E0234B234A24488321FFF7B7FF20002B
:10251000FFF762FF0834214B9C4209D22368002B4D
:10252000F5D0012BEDD12000FFF763FF0834F2E76F
:102530001B4DA9681B4CC022200003F0A5FAAC601B
:10254000FDF791FE002800D000BEFEF767FAFEF707
:10255000BFFDFFF739F9144C01E008CC9847134B45
:102560009C42FAD370BDC04600E00040BFCDFBFEE8
:1025700000F00040FE7F3C0000C00040500D0020F5
:10258000600D0020FFFFFF0100F00140480D00201A
:1025900038AA0010B0AA001058AA0010500D002050
:1025A00000ED00E000000020600D00206C0D002018
:1025B0000FB400B583B0084803F046FB049B002B22
:1025C00007D005A90191180003F04EFB034803F062
:1025D0003BFB0120FFF730FF9CAA0010ACAA0010C3
:1025E000F8B5DE4657464E464546E0B506000F00B4
:1025F00015000A9A93424ED31A0E92461B02984631
:102600000A9A00234046514601F080FB814674003F
:10261000A419A4002E4B9C4664446368834200D2F4
:102620006060331FDBB29B46012B3AD9C0239B016C
:102630002343802212011A60264BB200D158002990
:1026400005D0586901F020FB01300138FDD16D0142
:1026500023685D40E0222A4080235B0123431A6007
:102660005A46012A28D980239B0123438022120144
:102670001A604B4663604A4600234046514601F0CB
:1026800045FB144BB60098510120F0BCBB46B24646
:10269000A946A046F8BD104B104A11482D21FFF75E
:1026A000EDFE012FC2D1C0239B01234303221A60F8
:1026B000A368DB07FCD5CAE72168794003220A40FA
:1026C0001A60A3680125BD401D42FAD0CBE7C04681
:1026D000008000404C140020C0AA001018AB00106D
:1026E000D4AA001030B583B00C2000F01BF9FEF71F
:1026F0008BF900280DD0002304E02E4A99002E48C3
:1027000088500133092BF8D92A4B2C4A5A6203B05E
:1027100030BD2B4B00229A6700F076F9294B01223D
:102720001A60274B5B6C012BFBD1274B03221A60ED
:10273000234B9B6B012BFBD1013300930433234AC2
:102740000121234800F04EF805230093214A01217E
:10275000214800F047F8214B009300220221042079
:10276000FFF73EFF1E4D00952B00002201210520A2
:10277000FFF736FF104C00942300002200210720B1
:10278000FFF72EFF00942300002200210820FFF70E
:1027900027FF0A4B00932300002200210920FFF7A6
:1027A0001FFF00952B00002200210620FFF718FFD5
:1027B000ADE7C0464C140020006CDC021BB70000E3
:1027C000008000403CB0004030B00040002F68590D
:1027D00000800240008C864700C00240001BB7000A
:1027E00040597307F0B5C64600B504000F00904687
:1027F0001D000C2001F048FA06003D4A42443D4BC2
:102800009A4243D843011B1A9901C91AC9000918F1
:102810008901404601F038FA0200103A98235B0023
:102820009A4239D86B1E062B3CD8069B013B062BDF
:1028300038D8069B9D423BD343461B09B3423DD348
:102840002D04069B1E0335432368002B3CDB2A4BDB
:102850009C424AD080235B01284A1360284A1360B7
:10286000284A926819009143FAD12760A060221D7E
:10287000C0239B01134321221A602268002AFCDA3C
:10288000E56008221A6080BCB846F0BD1E4B1F4AA6
:102890001F481121FFF7F2FD1E4B1C4A1C4819214D
:1028A000FFF7ECFD1C4B194A19481C21FFF7E6FD08
:1028B0001A4B164A16482221FFF7E0FD184B134A1F
:1028C00013482521FFF7DAFD22683F231340BB425E
:1028D000BDD1A3681B051B0D8342B8D1E368EE226E
:1028E000D2021340AB42B2D1CDE780239B01B3E7C4
:1028F00080E84BD380F8A93200C0024000E00040DD
:1029000000F0004000C0004028AB001064AC001094
:1029100088AB0010C8AB0010E4AB001030AC001066
:1029200048AC001080239B000343014AD3627047E8
:1029300000800540024B1A68024B5A607047C0463F
:10294000801900200080054010B50200164B802041
:10295000C0051860154B1648186000290AD0154BA1
:10296000E021C9041960002A09D1124B8022120605
:102970001A6010BD0C4BE021C9041960F3E7530144
:102980009B1A9800801800010B4B186080235B0491
:10299000984202D3084B094A1A60FFF7CBFF054B58
:1029A0008022D2051A60E4E700B00540082001400B
:1029B000FCFF010000A0054080190020FFFFFF0080
:1029C00010B5030010000C4A8024E4051460002BAD
:1029D0000DD001221343094A094CD461094C5C40D3
:1029E0001462516293620021FFF7AEFF10BD034BEA
:1029F0000022DA61F7E7C04600B0054000800540DC
:102A0000D3C007B02D3FF84F064BAA2212011A601F
:102A10002F22DA60044B054A1A60024B5B68002BD8
:102A2000FBDA7047004002400060024000B0FA004C
:102A30009A4200D288547047704710B5002802D0DF
:102A40000B684968984710BD0100002007E083002B
:102A50001B185B00501C08601078C01830380A68DA
:102A60001378303BDBB2092BF1D97047F0B5DE4665
:102A700057464E464546E0B583B093461F000C9B33
:102A80009A460D9C0E9B99460F9B9B0703D0B84618
:102A90000F00060022E00192A34688464E46B94642
:102AA0000700B44207D2551C4B4641462020B84788
:102AB00001342A00F5E73D004F465C46019B9B46EA
:102AC000B1464646B84637002E0007E0013C551C8B
:102AD0005346185D43463900B0472A00002CF5D113
:102AE00035003E0047460F9B9B0707D4100003B0FC
:102AF000F0BCBB46B246A946A046F0BDB0464E4625
:102B0000B9462F005D46531BB342EFD2541C4B46CF
:102B100041462020B8472200F5E7F0B5CE464746AB
:102B200080B585B0944698460C9D0D9C0EAB1B78E5
:102B30009946109A119B129EB7071CD4002B0CD0FB
:102B4000F7070AD54F46002F02D10C37374204D081
:102B5000013B02E030272F550134944201D21F2C53
:102B6000F8D9F70707D59C4205D21F2C03D8302788
:102B70002F550134F5E7F70615D5770505D4002C58
:102B800003D0944224D09C4222D00F9A102A2BD0FA
:102B90000F9A102A30D00F9A022A35D01F2C02D853
:102BA00030222A5501341F2C05D84A46002A31D03C
:102BB0002D222A5501340396029301940095434631
:102BC0006246FFF753FF05B0C0BCB946B046F0BD42
:102BD000621E012C06D00F9F102F01D01400D4E7E5
:102BE000023CD2E71400D0E7B206D1D41F2CCFD8D4
:102BF00078222A550134D1E7B206CCD51F2CCAD889
:102C000058222A550134C9E71F2CC7D860322A55EB
:102C10000134C3E7720703D52B222A550134CAE7D2
:102C20003207C8D520222A550134C4E7F0B5DE4664
:102C300057464E464546E0B593B081468A460892CF
:102C400009931CAB10CB1B789B461E9D219B98467D
:102C5000002C03D1102342469A4390468023DB0088
:102C600046461E4042461A4212D0002C22D0002670
:102C70000EE03031CBB2771C0AAA93552900200010
:102C800001F002F8AC4216D31F2F14D83E00040006
:102C90002900200000F0F8FFC9B20929E9D943460C
:102CA0009B0605D541235B18DBB20A3BDBB2E2E7AA
:102CB0006123F8E7270043460693209B05931F9B5B
:102CC000049303955B46029301970AAB0093099B1B
:102CD000089A51464846FFF720FF13B0F0BCBB46A8
:102CE000B246A946A046F0BDF0B5DE4657464E4670
:102CF0004546E0B595B0089009910A920B931E9E47
:102D00001F9C20AB1B789B46229B9946239D269BAC
:102D10009A463300234303D1103352469A439246D6
:102D20008023DB0057461F4052461A4219D0330019
:102D300023432DD0002714E03032D3B27A1C9046C2
:102D40000CAAD3554A462B003000210000F0DEFFCC
:102D5000A5421FD819D043461F2B1BD84746060053
:102D60000C004A462B003000210000F0CFFFD2B209
:102D7000092AE1D953469B0605D541239B18DBB2AE
:102D80000A3BDBB2DAE76123F8E7B145E3D901E0BA
:102D90000023984653460693259B0593249B049352
:102DA0004B4603935B460293434601930CAB00935F
:102DB0000B9B0A9A09990898FFF7AFFE15B0F0BC73
:102DC000BB46B246A946A046F0BD0000F0B5DE46BF
:102DD00057464E464546E0B591B083468A460C922A
:102DE00098461A9C08941B9D099522002B002000F0
:102DF000290001F022FA002800D0E5E00122524229
:102E0000D74B2000290001F013FA002800D0DBE0A6
:102E100001225242D34B2000290001F0F3F900288F
:102E200000D0D1E000220023089E3000099D290037
:102E300001F0E8F9002800D0DDE0089A099B06922D
:102E400007938023DB001E9A1A400D921E9A1A42A5
:102E500001D106231C930698079904000D000A006F
:102E60000600024300D1D1E0080D4005400DBE4CE4
:102E7000A44660440A03120BBC4B13431F0001F02D
:102E8000EFF9BB4ABB4B01F072F9BB4ABB4B01F0F7
:102E900047F904000D000022B94B3000390001F061
:102EA00036F9B84AB84B01F062F902000B00200075
:102EB000290001F035F901F0EBF9814601F0D0F974
:102EC00004000D00B14AB24B01F051F90022B14BA0
:102ED00001F026F901F0DCF90600AF4AAF4B200003
:102EE000290001F044F904000D00300001F0B8F9A8
:102EF000AB4AAC4B01F03BF902000B00200029006B
:102F000001F005F904000D0002000B0001F02FF99B
:102F10000A900B91A44BF31800261F0522002B00EA
:102F20002000290001F0FCF80E900F9122002B00E8
:102F300000208021C90501F0EAF804000D000022FC
:102F40009A4B0A980B9901F0F4F80022984B01F083
:102F5000E7F802000B000A980B9901F0EAF800224A
:102F6000944B01F0DDF802000B000A980B9901F078
:102F7000E0F802000B002000290001F0D1F8020067
:102F80000B000E980F9901F0D4F80022774B01F056
:102F9000C7F832003B0001F0EAF806000F00040019
:102FA0000D00069A079B01F043F9002830D0012359
:102FB0005B429C46E14400227D4B3000390001F029
:102FC000B8F804000D0023E01E9B04931D9B03939F
:102FD0001C9B0293089A099B0092019343460C9A0A
:102FE0005146584600F0FCF811B0F0BCBB46B24662
:102FF000A946A046F0BD0023002406930794069638
:1030000080231B069C46654407951AE700239946D2
:103010004B466333C62B1ED804261E9B1B0526D5A4
:103020002B0023430FD0644A644B0698079901F0A4
:10303000F7F8002879D00022614B0698079901F033
:10304000E1F8002871D01C9B4B4506DD4A469B1ACF
:10305000013B1C9303E00526DFE700231C9380233C
:10306000DB001E9A1A431E920026002399461D9BE0
:103070009E4264D29F1B02231E9A1A400A921E9AF5
:10308000134202D0002E00D000274B46002B07D061
:1030900022002B000698079901F04BF80690079143
:1030A000002200230898099901F0ACF8002848D1C3
:1030B000444B1E9A1340049303971C9B0293069B58
:1030C000079C0093019443460C9A5146584600F0E1
:1030D00087F8002E00D187E71E9B9B063DD545252E
:1030E000441C4346020051462800D8474A46D3179D
:1030F000D2185A4005230593013E049600230393FA
:103100000A3302934B46DB0F0193009243462200A1
:1031100051465846FFF78AFD0A9B002B00D163E712
:1031200002005F460C9E1D9D54E01C9B002B9ED010
:103130000D9B002B9BD01C9B013B1C9397E700270A
:1031400099E7069C079D22002900802000068446FE
:1031500061440B0006920793AAE76525C0E7C046C5
:10316000FFFFEF7FFFFFEFFF01FCFFFF0000F03FDD
:10317000FB799F501344D33FB3C8608B288AC63F66
:103180000000F83F61436F63A787D23F71A37909BD
:103190004F930A400000E03F1655B5BBB16B0240AB
:1031A000EF39FAFE422EE63FFF03000000002C40FC
:1031B00000002440000018402D431CEBE2361A3F6B
:1031C00080842E41FFF7FFFF541C434651462020C8
:1031D000B8472200931BAB42F6D3100004E7C04669
:1031E000F0B5DE4657464E464546E0B595B00690EA
:1031F000079193469946209F1E9A1F9B1000190025
:1032000001F01BF8002831D101225242BF4B1E9819
:103210001F9900F0F7FF002837D101225242BC4B22
:103220001E981F9901F004F800283DD10022B94BE7
:103230001E981F9900F0FCFF002850D10022B64BC9
:103240001E981F9900F0DEFF002848D100220023BD
:103250001E981F9900F0D6FF002850D100239846F1
:10326000229B5B0500D4B6E0002458E0229B039328
:10327000219B029303230193A84B00934B465A468C
:1032800007990698FFF7F2FB0EE1229B0393219B1F
:10329000029304230193A24B00934B465A4607998D
:1032A0000698FFF7E3FBFFE00423229A1A402299D5
:1032B0000B4210D09B4B002A0FD00422229903917D
:1032C00021990291019200934B465A46079906981C
:1032D000FFF7CCFBE8E0944BEDE70322EEE7229BFF
:1032E0000493219B039302971E9B1F9C00930194C0
:1032F0004B465A4607990698FFF768FDD4E01E9A98
:103300001F9B0020002100F002FF1E901F9101234F
:103310009846A5E70CAB30221A55013F01341F2C0B
:1033200001D8092FF6D81E981F9900F0B1FF0500AB
:1033300000F096FF02000B001E981F9900F0E7FEB8
:103340007A4BFA009B181A685B680A920B9300F09C
:103350000EFF0890099100F0BFFF060000F07CFF0F
:1033600002000B000898099900F0D1FE089009911D
:1033700000226F4B00F05CFF00282ED00136300099
:1033800000F06AFF02000B000A980B9900F040FF62
:10339000002801D001350026002F2CD1280000F094
:1033A0005FFF02000B001E981F9900F0B0FE0600A0
:1033B0000F0000225E4B00F025FF002846D10022BE
:1033C0005B4B3000390000F033FF00283ED1EB07A3
:1033D0003CD501353AE0062746E70022544B0898D1
:1033E000099900F00FFF0028D6D1002E01D0F30775
:1033F000D2D50136D0E7AA461F2C11D8013F0A21A9
:10340000300000F041FC651C30310CAB19550A212D
:10341000300000F039FC092E0ED906002C00EBE735
:1034200055461F2C0CD87B1E002F09D00CAA30212A
:1034300011551F000134F4E72B0055461C00F0E73E
:103440001F2C03D80CAB2E221A5501341F2C10D878
:103450000A21280000F0F0FB661C30310CAB195536
:103460000A21280000F0E8FB051E01D03400EDE73A
:1034700034000323229A1340012B1CD01F2C06D8A2
:103480004346002B32D00CAB2D221A550134229B1F
:103490000393219B029301940CAB00934B465A4635
:1034A00007990698FFF7E2FA15B0F0BCBB46B246A2
:1034B000A946A046F0BD219B002B13D04346002B0C
:1034C00002D10C3313420FD0219B013B21931900F1
:1034D00003E00CAB30221A5501348C42CED21F2CA3
:1034E000F7D9CBE72199F8E72199F6E7229B5B070B
:1034F00004D50CAB2B221A550134C8E7229B1B07BD
:10350000C5D50CAB20221A550134C0E7FFFFEFFFF1
:10351000FFFFEF7F65CDCD4165CDCDC17CAC001007
:1035200080AC001070AC001078AC001028AE001019
:103530000000E03FF0B5DE4657464E464546E0B552
:1035400093B082468B4690461193002900D100E348
:1035500000275446119B1878002800D1FCE225284A
:1035600009D07D1C43463A005946A047119B0133C0
:1035700011932F00EEE7013311930025119A117872
:103580000B00203BD8B2102803D88300C248C35890
:103590009F460B00303BDBB2092B2CD92A292FD0B8
:1035A00000230A93119B1A782E2A39D000239946BA
:1035B000119A1378683BD9B2122976D88B00B74993
:1035C000CB589F4601231D4301321192D6E70223B7
:1035D0001D4301321192D1E704231D4301321192A0
:1035E000CCE708231D4301321192C7E710231D4386
:1035F00001321192C2E711A8FFF726FA0A90D1E72B
:103600001C9B1A1D1C921B68002B04DB0A93119B48
:1036100001331193C6E7022215435B420A93F6E792
:103620008022D20015435A1C11925A781300303B65
:10363000DBB2092B04D92A2A07D000239946B7E721
:1036400011A8FFF701FA8146B2E71C9B1A1D1C92D4
:103650001B68002B04DB9946119B01331193A7E7EC
:103660000023F8E780235B002B43511C1191527813
:103670006C2A01D01D0018E0C0239B001D430131BE
:10368000119112E080232B43511C11915278682A2A
:1036900001D01D0009E0C0231D430131119104E058
:1036A00080235B001D4301321192119B187867281B
:1036B00016D8252826D30300253BDAB2422A21D882
:1036C0009300774AD3589F4680239B001D430132C5
:1036D0001192EAE780235B001D4301321192E4E777
:1036E00078280FD869280DD30200693AD2B2012395
:1036F00093406C4A13420FD11A0600D503E25B05D2
:1037000000D594E17D1C43463A005946A047119BE1
:10371000013311932F001DE7782809D0622838D093
:103720006F2838D0582838D010239D430A2600E04F
:103730001026582833D0692803D0642801D00C22E1
:1037400095436A0501D50122954369282AD064284A
:1037500028D0AA0500D5A7E0EA0500D5C0E06A0692
:1037600000D4D2E01C9A111D1C911168FF220A405E
:1037700005950A9B04934B460393029600230193FD
:10378000009243463A0059462000FFF74FFA0700DF
:1037900027E00226CDE70826CBE71026C9E720223E
:1037A0001543C8E7AA0520D4EA0550D46A0666D5B1
:1037B0001C9A111D1C911168FF220A40D017111884
:1037C000414005950A9B04934B4603930296D20F02
:1037D0000192009143463A0059462000FFF726FA2D
:1037E0000700119B01331193B4E61C9A073207219D
:1037F0008A43110008311C91116853689C46DB17FD
:103800000C930D930C9A0D9B100048400E9062464D
:1038100053400F930E980F990C9A0D9B801A994163
:103820000E900F9108950A9B07934B4606930496BA
:10383000002305936346DA0F0292009001914346FC
:103840003A0059462000FFF74FFA0700C9E71C9AD3
:10385000111D1C911268D0171118414005950A9B43
:1038600004934B4603930296D20F01920091434674
:103870003A0059462000FFF7D9F90700B1E72A06B8
:1038800005D51C9A111D1C910023D25E96E71C9A47
:10389000111D1C91126891E788AC0010CCAC00108F
:1038A00018AD0010419000001C9A073207218A438E
:1038B000110008311C9108950A9B07934B4606930B
:1038C00004960023059302935368126800920193B3
:1038D00043463A0059462000FFF706FA070080E702
:1038E0001C9A111D1C9105950A9B04934B4603934A
:1038F0000296002301931368009343463A00594609
:103900002000FFF793F907006BE72A0606D51C9AFB
:10391000111D1C9112681204120C29E71C9A111D2A
:103920001C91126824E746281AD01C9B07330722F3
:1039300093431A0008321C9204950A9A03924A464D
:1039400002921A685B680092019343463A00594616
:103950002000FFF745FC0700119B01331193F9E5A7
:1039600020231D43E1E7672801D0472802D18023A7
:103970001B011D43452801D0472801D120231D43A9
:103980001C9B0733072293431A0008321C920495AC
:103990000A9A03924A4602921A685B68009201935F
:1039A00043463A0059462000FFF710FA0700119BE2
:1039B00001331193CEE502231A002A4092462B428E
:1039C0001FD001251C9B1A1D1C927A1C9146187849
:1039D00043463A005946A0475346002B16D1119B47
:1039E000013311934F46B5E5561C434659462020F6
:1039F000B8472B0032005D1C9C42F5D83C001700F4
:103A0000E0E701233A0027000A9CF4E74A46A14672
:103A10000A9C06E0571C434659462020C8473500FB
:103A20003A006E1CAC42F5D84C469146D7E71C9B39
:103A30001A1D1C921E684B46002B00D1013B310021
:103A400001E0013113000A78002A02D05A1E002B2F
:103A5000F7D1891B10918023DB002A001A4092467F
:103A60001D4203D0494501D94B46109302231A0049
:103A70002A400B922B4205D03A00574623004C4671
:103A8000994620E03A00109B5F46B346260006E0C8
:103A9000541C434639002020B0472B0022005D1CF7
:103AA0000A999942F4D834005E46BB4610955746B1
:103AB00023004C46994606E01C000136551C43463F
:103AC0005946C8472A003078002804D0002FF4D087
:103AD000631E002CF0D117004C460B9B002B03D12A
:103AE000119B0133119335E50A9F109B06E0561C8C
:103AF000434659462020A0472B0032005D1C9F42C0
:103B0000F5D81700ECE721232B431C9A111D1C91BB
:103B100012680593082304934B46039310230293E2
:103B200000230193009243463A0059462000FFF7D4
:103B30007DF80700119B013311930BE57D1C434673
:103B40003A0059462520A047119B013311932F00BD
:103B500000E50B4B9A46FBE4A246474502D3434699
:103B60005A1E00E03A00434659460020D04738002C
:103B700013B0F0BCBB46B246A946A046F0BDC04655
:103B8000392A00100EB430B584B0010007AC08CC5F
:103B900003940122054D009452422800FFF7CAFC0D
:103BA00004B030BC08BC03B01847C046312A00102E
:103BB00000B585B0029003910121044800931300E1
:103BC0004A4202A9FFF7B6FC05B000BD3B2A00102F
:103BD00001480421014B1847B0040020013C0010AB
:103BE00010B5010018231B8814221088984710BDB7
:103BF00010B5010018231B8816221088984710BDA5
:103C0000F0B5C64600B507000E0000250123984612
:103C100000E00135B5420AD2AC003C192068FFF73C
:103C2000DFFF20600028F4D100239846F1E74046EA
:103C300080BCB846F0BD0000124A936F9B0815D2B5
:103C40009066D166002905D0FFE7FFE7FFE7516FD7
:103C5000106F704704B580210906C2175140002833
:103C600000D0C84306F0BCF9002104BDF0B5146EC5
:103C7000556E576F166FFFF7E3FF1466556657676B
:103C80001667F0BD000000D0114A936F9B0813D255
:103C900010665166002905D0FFE7FFE7FFE7516F87
:103CA000106F704704B5002801D00020C04306F013
:103CB00097F9002104BDC046F0B5146E556E576FDC
:103CC000166FFFF7E5FF1466556657671667F0BD78
:103CD000000000D094464E4A926F9208624601D28C
:103CE00030E0C046F0B54A4EB56F6D08FCD3346E77
:103CF000756E776F366F00F025F89446444A146667
:103D00005566576716676246F0BDC0469446404AFE
:103D1000926F9208624601D258E0C046F0B53C4E20
:103D2000B56F6D08FCD3346E756E776F366F00F02B
:103D30004DF89446364A14665566576716676246CC
:103D4000F0BDC046002B24DB11D000293EDA00B5BF
:103D5000C943404200D1013100F038F8C943404224
:103D600000D10131DB43524200D1013300BD002AB2
:103D7000EBD1002801D1002905D00020C90FC907C7
:103D800001D1C043410800B506F022F9002200230A
:103D900000BD00B500290ADBDB43524200D10133EC
:103DA00000F014F8C943404200D1013100BDC943BD
:103DB000404200D10131DB43524200D1013300F0D7
:103DC00005F8DB43524200D1013300BD002923D165
:103DD000002B18D1002A0CD0BC460D4F38667A66ED
:103DE00000210023FFE7FFE7FFE77A6F386F6746A0
:103DF0007047002801D00748010000B506F0E8F838
:103E00000022002300BD02000B00002000217047AB
:103E1000000000D0FFFFFFFF002B00D0BFE0130C1D
:103E200028D1002AE7D080B4114F39667A66FFE7BF
:103E3000FFE730B4040C7B6F396F1B0423433B66F0
:103E40007A66FFE7FFE7FFE7C04684B27B6F3D6F0E
:103E50001B0423433B667A66FFE7FFE7C046002367
:103E60002C042D0C7A6F386F00196941B0BC704773
:103E7000000000D0F0B594460025140E01D11202C6
:103E80000835140F01D112010435940F01D19200AD
:103E90000235D40F01D152000135D40B0134254F26
:103EA0007C66254C3C660E0C93B2FFE7FFE7FFE70C
:103EB0003C6F6643360C7703BE467343DF0B5B04EF
:103EC000C01AB941130C7343DB18C91ACE086643F4
:103ED000360CB64493B273431F0F1B01C01AB9418D
:103EE000130C73431F0B1B05C01AB941860D8F02BB
:103EF0003E436643360C092D24DB520A7243801A76
:103F00007703460A6643360C16235B1BDE40DF4010
:103F1000BF1964466643821B7046043506330100B0
:103F2000D940A840C01900D30131A24206D20023D3
:103F3000F0BD0000000000D0FFFFFFFF121B0130AA
:103F4000F3D3F1E709277F1BFE406446A2B2724318
:103F5000801A00D20139220C7243130C1204821A07
:103F600099410B007046043513370100F940A84011
:103F7000801900D30131002B02D1A2420AD2F0BD38
:103F8000013000D30131121BFAD2013BF8D1A24219
:103F900000D2F0BD013000D30131121BF7E7F0B5BC
:103FA0001C0C00D080E00CB400251C0A04D11B02BC
:103FB000160E3343120208351C0B04D11B01160FD9
:103FC0003343120104359C0B04D19B00960F3343FD
:103FD00092000235DC0B02D192185B4101351C00C6
:103FE000971864410134464F7C66464C3C660E0C83
:103FF000FFE7FFE7FFE7C0463C6F6643360C7703F9
:10400000BE4697B27743C01B00D20139C01B00D215
:1040100001399FB27743C91BC91B170C77437E0434
:10402000FF0B801BB941CE086643360C0C2D33DBE9
:10403000B644120B1F053A431B0B97B27743C01BC4
:1040400000D201399FB27743C91B170C77433E0456
:104050003F0C801BB941860D8F023E4366432927E2
:104060007F1BFE400C3D7746AF40BF1930BCA2B26B
:10407000ABB272437343801A9941220C7243130C02
:104080001204801A994102000B000137001BA9415C
:10409000F9D2781E0021F0BD0C277F1BFE40774629
:1040A0007F0BAF40FF19E0E700245D1C07D0144FE1
:1040B0007D663966FFE7FFE7FFE7FFE73C6F95B2F4
:1040C0009EB265436643401BB141150C1E0C65430F
:1040D000664336042F0C3E432D04401BB1419942E8
:1040E00004D202000B0020000021F0BD01D190425B
:1040F000F7D3801A994101349942F2D3F6E70000D0
:10410000000000D0FFFFFFFF48404140484018B486
:104110001B4B5B68FC46019308BD04DFDB4D0010C0
:1041200018B4174B1B68FC46019308BD00DFE54D32
:1041300000109446134A926F920809D2624618B44E
:104140000F4BDB68FC46019308BD0CDF9D5000104F
:104150000C4AF0B5146E556E576F166F6246FFF736
:10416000EEFF084A1466556657671667F0BD18B427
:10417000034B9B68FC46019308BD08DF414F0010CC
:10418000301A0020000000D0FFB55040424050409F
:1041900059404B40594000E0FFB5154F4C00640DAD
:1041A00003D0BC4204D10C0314D80020090D09052A
:1041B0005C00640D03D0BC4204D11C030AD8002269
:1041C0001B0D1B0501264B4009D44B4003D58B42E8
:1041D00000D18242FFBD9942FCD19042FFBD0B430A
:1041E000DB1803431343F5D0C9434918FFBD000052
:1041F000FF07000000B5FFF7CFFF01D0002000BD92
:10420000012000BD00B5FFF7C7FF804100BDC046DB
:1042100000B5FFF7C1FF01D9002000BD012000BD9E
:1042200000B5FFF7B1FF01D9002000BD012000BD9E
:1042300000B5FFF7A9FF804100BD012040054A00FD
:10424000121804D85A00121801D800207047012013
:1042500070470020704700000021002805D17047FA
:10426000C1174840401AFAD0C90713B5064B1B685E
:1042700098470CBC441CA2401005120B0349091BB3
:1042800009051943114310BD301B00201F04000015
:1042900010B54C00620D8023D218DB00D21A5B05EA
:1042A0007E2A10DD9E3A13DACC1709034908194318
:1042B0005242D140640001341532202A05DAD04040
:1042C0000843604310BD002010BD0846604310BD88
:1042D000C80FC018013810BD18B4044B5B6AFC4607
:1042E000019308BD24DF4D5200100000301A002059
:1042F00018B4044BDB6FFC46019308BD7CDFCD5244
:1043000000100000301A002018B4044BDB6CFC468F
:10431000019308BD4CDF795400100000301A0020D2
:1043200018B4044B1B6DFC46019308BD50DF1555B6
:1043300000100000301A002070B513231C78012CE7
:1043400014D0012C14DC022C02DC1F4B1F4A936496
:104350001F48FFF745FC1F4B186070BD1A491B4AE8
:104360009800815001331F2BF8D9EAE70023FAE7C0
:104370001948FFF73DFC05001848FFF739FC0238E3
:1043800003789B007F2B19DD10488022290001F063
:104390007BFB022CD7D1124B1A88B5231B029A4201
:1043A00009D1104B1A88104B9A4204D10F4B1A882E
:1043B0000F4B9A42C7D00020FEF7FAF80D4B0E4A79
:1043C0000E483221FEF75AF8A14D0010301A002095
:1043D0004C330000301B00205344000053460000C3
:1043E00054380000D8380000494600009C380000CE
:1043F0005946000078AE001020AF0010D8AE001073
:1044000070B504000D001600012A0ED0D20F9219CB
:104410005210FFF7F5FF02000B00FFF7A8FEF607AA
:1044200003D522002B00FFF7A2FE70BDF0B5D646E3
:104430004F464646C0B588B014001D000E0D7605E7
:10444000760D974B9846B044964B9B1B009001917C
:104450000F0D7F0514D0944FBE4211D09919002939
:104460000ADD924881423ADD019BDB0FDB07002029
:104470008F4A1A43110003E00020019BDB0FD9078C
:10448000FFF74EFF8B4A8C4BFFF753FE00228B4BFE
:1044900000900191FFF7CCFE00280AD00022884B43
:1044A00000980199FFF733FE00900191854B9846E3
:1044B000B0444346002B1BD00022834B2000290030
:1044C000FFF7AEFE00281FD04346002B19DB00206B
:1044D000774908B0E0BCBA46B146A846F0BD002016
:1044E0001905009A019B12184B4110001900C7E7EB
:1044F00022002B0000980199FFF739FE00F02EFAF8
:10450000E7E700200021E4E70022704B20002900AB
:10451000FFF77EFE002808D04346002B02DB002078
:104520000021D6E700206249D3E72000290000F0EF
:10453000C9F906000F0002000B0020002900FFF758
:10454000E6FD029003911A2200F094F900F0BAF906
:1045500004000D0002000B00090D4905480D00295B
:1045600013D05149884210D01A3800280ADD4F492B
:10457000884200DC84E0EB0FDB0700244C4A1A433E
:10458000150002E00024EB0FDD0722002B0002984B
:104590000399FFF7BCFD0690079130003900FFF743
:1045A00077FE8146030041464B439A464046FFF75B
:1045B00057FE22002B0004900591FFF7D8FD06005E
:1045C0000F0000F07FF904000D00FFF761FE804648
:1045D000D04422002B0030003900FFF798FD040082
:1045E0000D00069A079B04980599FFF7C0FD02008D
:1045F0000B0020002900FFF793FD04900591484629
:10460000FFF72EFE009A019BFFF7B1FD04000D009D
:1046100000F058F906000F00FFF73AFE8044320020
:104620003B0020002900FFF772FD049A059BFFF76D
:1046300077FD04000D00029A039B00980199FFF793
:1046400096FD22002B00FFF76BFD00F087F90400B8
:104650000D000B0D5B055A0D002B00D139E7124BF5
:104660009A4200D135E74244002A0EDD0F4B9A42B0
:104670000FDDCB0FDB0700200D4A1A43110028E79E
:104680000024134DA4185D417FE70020CB0FD9070C
:104690001FE70020434619050019694119E7C04684
:1046A00001FCFFFFFF030000FF070000FE07000002
:1046B0000000F07FEF39FAFE422EE63F0000E03FB7
:1046C0000000F03F02FCFFFF0000B0400000B0C05F
:1046D000000060FEF0B5D64600B582B001900E0035
:1046E00000921D0003000C00CA0F9246002955DA03
:1046F0002A0D5205520D584952183ED434218A1AB7
:104700003DD41000203825D4353981400120404265
:104710009040009E864330002E008E4331000143BE
:104720002FD1342A2FD0110020391CD42A00CA409E
:1047300001210A40002A28D0180080263606A11937
:10474000009A2B00FFF7C6FF8B19190002B080BC3E
:10475000BA46F0BD2020801A012149420E00C64011
:1047600091403143D2E72021891A28008840010076
:104770000098D04002000A43DAE70022DAE700227C
:10478000D8E70022D6E70122D4E7180080231B06D1
:10479000E118009A2B00FFF79DFFD7E7009829004A
:1047A000FFF776FD0700019A310D4905480D0029F4
:1047B00007D02A49884213D033031B0B1A435042B7
:1047C000504100280ED1002F43D03B002033402B16
:1047D0002DD9009A2B0001983100FFF727FEB5E78D
:1047E0005046EEE7220D5205520D1B4B9C4662448B
:1047F00080231B019F4204DA194B9F4202DA184FB3
:1048000000E0164F7A43174BD318002B09DD1649E9
:104810008B4209DC002011050022144B80185941FD
:1048200094E70020002191E7002011498EE7002F36
:1048300005DB3A0001983100FFF7E2FD86E7019AB7
:10484000330000200949FFF774FC01900E007F42FD
:10485000EFE70020054979E701FCFFFFFF070000B3
:1048600000F8FFFFFF030000FE0700000000F03F1C
:104870000000F07F30B50B0D5B055C0D002B14D0F4
:104880000D4B9C4211D01419002C09DD0B4B9C429E
:104890000CDDC90FC907002409480843050002E0E0
:1048A0000024C90FCD072000290030BD00241505C4
:1048B00024184D41F7E7C046FF070000FE0700003F
:1048C0000000F07F70B50B0D5B055B0D214A94462F
:1048D00063445A1C24DB5A1C28D03422D21A002AE2
:1048E0001DDD3324E41A2500203D26D40126AE40E8
:1048F00033000125A5402A0012184B412500203D18
:1049000021D40226AE4031000225A5402800002512
:1049100044428D411600264030002B40190070BDE6
:104920000022C90FCB0710001900F8E7CB0FDB07F7
:104930000020094A1A431100F1E720252D1B01260A
:10494000EE403300D5E720252D1B0226EE40310036
:10495000DAE7C04601FCFFFF0000F03F70B505003C
:104960000C000A0D284B9A4247D00022274B280002
:104970002100FFF74DFC002842D10022244B2800E3
:104980002100FFF74DFC002802D00020214939E02A
:1049900028002100FFF796FFFFF77AFC0600FFF7DB
:1049A0005FFC02000B0028002100FFF7B0FB1A4A51
:1049B0001A4BFFF7DCFBFFF7A7FC04000D000B0D03
:1049C0005B055A0D002B1DD0154B9A421AD0B21818
:1049D000002A09DD134B9A420ADDCB0FDB070020CA
:1049E0000C4A1A4311000DE00020CB0FD90709E053
:1049F000002031050019694104E00020002101E098
:104A00000020002170BDC046FF0F00000000B0C0B4
:104A10000000B0400000F07FEF39FAFE422EE63F82
:104A2000FF070000FE070000F0B583B0050000900E
:104A30000C0001921F000022B74B28002100FFF755
:104A4000D9FB002841D13E0D73055D0D002B3CD0F4
:104A50000022B24B00982100FFF7CCFB002803D0C6
:104A6000AF4B9D4200D17FE1220D5305590D002B24
:104A700000D081E0FA0F002F3FDB3B0D5B055B0DA3
:104A8000A8495B181CD43420C01A19D4010020395D
:104A900021D401235B428B40012149428140019D89
:104AA0008D4329003D009D432B000B4308D1342842
:104AB00021D00300203B17D43A00DA4001231A40EA
:104AC000002A00D153E1009D01E00025924C28000E
:104AD000210003B0F0BD2021091A01235B421D0013
:104AE000CD4083402B43D7E720231B1A9F40019AD8
:104AF000C2403A43E2E70122E2E73B0D5B055B0D72
:104B0000884A9B181BD43422D31A18D41800203892
:104B100020D4353A8240012040429840019D85438F
:104B200028003D0095432A00024308D1342B21D0B0
:104B30001A00203A17D43900D14001231940002926
:104B400000D117E1E40FE407002277492143150063
:104B50000C00BCE72020C01A012252421500C540BB
:104B60009A402A43D7E72022D21A97400199D94088
:104B70003943E2E70121E2E7694B9A422CD06B4BC3
:104B80009A422FD0664B9E4200D1A8E0674B9E42CE
:104B900000D1AAE03B0D5B055A0D002B00D1B3E01C
:104BA000604BD21800D5C7E034239B1A002B00DCE1
:104BB000C4E01900203900D59DE0012252428A400C
:104BC000012149429940019B8B43390091430B439A
:104BD00000D0B5E0013398E0002F00DBCDE00025E8
:104BE000002474E7FA0F002F39DB3B0D5B055B0DEA
:104BF0004C495B181BD43421CB1A18D41800203828
:104C00001BD435398140012040429840019C8443A7
:104C100020003C008C432100014308D1342B1CD0E0
:104C20001A00203A12D4D7403A0001231A40002A31
:104C300000D1A5E000253E4C49E72020C01A012103
:104C400049420C00C44099402143DCE72022D21A9B
:104C50009740019ADA403A43E7E70122E7E73B0D44
:104C60005B055B0D2F4A9B1831D43422D31A30D404
:104C7000190020391AD4353A8A4001214942994015
:104C80000198884301003800904302000A4322D172
:104C9000342B22D01A00203A11D4D74001231F40D0
:104CA000002F70D000258024240610E72021C91A87
:104CB000012252421000C8409A400243DDE7202200
:104CC000D21A97403A00019FDF401743E6E70027DA
:104CD000E6E70027E4E70027E2E70127E0E7154BD6
:104CE000994253DC00250024F1E6124B994250DC36
:104CF00000250D4CEBE62021C91A0122524210007A
:104D0000C8409A4002435BE70123002B1AD1002CD4
:104D100021DA0025044CDAE60000F03F0000F0BF85
:104D2000FF07000001FCFFFF0000F07FFF0F000005
:104D30000000F0FFFE0300000023E6E70123E4E7A4
:104D40000023E2E7019A3B0000982100FFF7C2FC34
:104D500005000C00BBE6019A3B0000982100FFF71C
:104D600065FB05000C00B2E600250B4CAFE6002504
:104D70000024ACE60025094CA9E60025074CA6E670
:104D80000025064CA3E600250024A0E60025034CE0
:104D90009DE6002500249AE60000F03F0000F07F29
:104DA00007B56046002800D100BE01880A0A02301B
:104DB000DF2AFAD1C9B2820804D3028840880004ED
:104DC000104300E00068024A5050039007BD000005
:104DD000301A00200FB403BC0CBCF0B50124E4076A
:104DE000634000E0F0B50C0DCF0F661E3605891B41
:104DF000640503D3C943404200D30131640D03D09D
:104E0000661CF60A07D0E41B00207F00791C890786
:104E10008912803C24031D0DDF0F6E1E36059B1B7F
:104E20006D0503D3DB43524200D301336D0D03D034
:104E30006E1CF60A07D0ED1B00227F007B1C9B072F
:104E40009B12803D2D032F1B661B58D4A446202E99
:104E500046DA20371400BC401D00BD40F24033410B
:104E60002A4380185941CB0F05D0C943C0430022C3
:104E700064425041514162464D0D28D10D0D07D17C
:104E800000281FD0241940414941013A0D0DF9D0A5
:104E9000640006D3013000D30131002C01D1400859
:104EA0004000013A0BD4941CE40A04D112051144C9
:104EB000DB071944F0BDD907204B194300E0D9079F
:104EC0000020F0BD0029DDD1002CDBD1F0BD013286
:104ED000C6074008CD0728434908002EE1D0D9E78E
:104EE0003C2E29DA203E40371400BC4000D001247B
:104EF000F24014431A00BB401C43D317ACE7AC4646
:104F0000202F08DA20360400B4400D00B540F840E8
:104F100039412843A5E73C2F0CDA203F40360400F6
:104F2000B44000D00124F84004430800B1400C43D1
:104F3000C117EAE710001900002494E70000F07F91
:104F4000F0B50C0D661E3605891BE60A6405640D76
:104F500002D0651CED0A04D0002001210905803C27
:104F60002403A4461C0D671E3F05DB1BE70A6405EE
:104F7000640D02D0651CED0A04D0002201231B053C
:104F8000803C24037740644497B484B296B274435F
:104F9000070C7E43150C6F4380B26843361802D36A
:104FA000012000043F183004350C00197D4184466F
:104FB00088B29AB250430C0C62431F0C7C438EB2F1
:104FC0007E43921902D301263604A4191604170C45
:104FD0003618674101BC81B29AB25143040C624356
:104FE0001B0C5C4380B25843121802D3012000040A
:104FF00024181004130C401863412D185E41002042
:10500000474106BC88B293B258430C0C6343120C60
:10501000544389B251435B1802D301210904641837
:1050200019041A0C091862416D18564100204741B5
:1050300018BCF902720D1143F0026A0D1043ED0223
:105040000A0D03D16D1940414941013B124E9B1B92
:105050007600B3420ED26D0007D3013000267141B5
:105060006646354301D1400840001B05C918E407D6
:105070002144F0BD0BDA013306D1013004D10131F6
:105080004F0D01D04908F2E7E1070020F0BD0136DD
:1050900031050020EBE70000FF030000F0B51C0D18
:1050A000671E3F05DB1BE70A6405640D02D0661C22
:1050B000F60A04D0002201231B05803C2403D025DE
:1050C0002D060026F6432E661E096E66CE0FF619D3
:1050D000B44649004F0D02D07E1CF60A03D00020D2
:1050E0000021403F3F033E1BB600B444013F7F0513
:1050F000C91B49082E6F013676089C02950D254381
:105100007543ED137543AD1301356D10F603761B32
:105110000CB4CC02450D2C43A2B2B3B25A43270CB7
:105120007B43350C6F43A4B26C431B1902D301249B
:1051300024043F191C041D0CA4187D4124196D4141
:10514000009A91B2ACB26143170C7C432B0C5F43C5
:1051500092B25A43A41802D301221204BF182204A7
:10516000230C52187B41019C6C431B19520ED90130
:105170000A434401A01A81B2B2B2514303145A4304
:10518000360C734387B27743D617D21900277E4176
:1051900036049B191704160C7F185E417316ED1820
:1051A000F301002680337541A90F06D16400690A16
:1051B000E8055B0A184309D22FE0042294448033A7
:1051C0007541A90AA8059B0A184326D340414941C5
:1051D0002404009A019B0D005543641B4343E41AC9
:1051E00095B286B27543170C7E43030C5F4392B2AF
:1051F0005A43B61802D301221204BF183204330CEA
:1052000052197B4152429C41002C02D400220130B1
:1052100051414008CA071043490802B06246D70707
:105220009210084BD218084B9A4203D212058918E3
:10523000C919F0BD0020002A01DC3900F0BD01339E
:105240001905F5E7FD030000FE070000002200B588
:10525000203200F004F8080000BD000000220B1509
:105260000AD410B5944600F0A7F81414013400DAFB
:105270000021CB17144C20470020002170476244C6
:10528000343A0CD40C2A07DA040091409040524280
:105290002032D440214310BDD843D94310BD203221
:1052A00007D40C469440524220321141D040204352
:1052B00010BD0800C917203203D4524220321041D9
:1052C00010BD1800190010BD7F5200104A00520D89
:1052D000144BD21A13DDFF2A1EDAD205CB0FDB07DF
:1052E0001A43C300400F0903490A084310435B00F7
:1052F00001D301D0013070474308FBD2704702D080
:10530000C80FC00770470A0312130132F8D1420FC9
:10531000072AF5D1012200E0FF22C80F0002801801
:10532000C00570478003000000210A00002104E04E
:1053300000210A00C11704E00022002306E0C04655
:105340000022CB1758405940C01A994130B5184C2B
:10535000A21A002903D1010010D00020203A4C15D8
:1053600012D104D2013A001849414C0DFAD3114C24
:10537000A24204D212058918DB07C91830BDD243F6
:10538000520D00200021F5E703D4013A00184941ED
:10539000FBD50B324405C00A4D052843C90A6400F9
:1053A00003D0002460416141E1E7E0D34408F8E71D
:1053B00032040000FE0700000A0DCC0F531E1B052F
:1053C000C91A520503D3C943404200D30131520DDB
:1053D00003D0531CDB0A07D0121B00206400611CA1
:1053E00089078912803A1203014BD21A70470000D4
:1053F000FF030000023225D40C2A1CDA1125AD1A55
:105400000B002B41083207350600EE4090409140DA
:105410003143F0CC63431A1500235A415543564398
:105420005743BF02F412760576196741ED177F19CD
:10543000801BB94170470C220020C9174900013177
:105440000905DBE70902030E19430002534220322B
:1054500008D40C0019419440D84020430022504108
:10546000514170470800C917203B2032F1D5002078
:105470000021002270470000F0B5FFF79DFF54A403
:10548000FFF7B8FF002904DA204C214D00196941CB
:10549000013A04B4012752A6002201239B0730CE13
:1054A000B446001BA9410BD47E4220361D003D416D
:1054B0001C00B4401600FE40344362416B4101E0E1
:1054C0000019694166460137212FE8D185B29EB2A5
:1054D000754307147E43190C4F4384B24C43F117B4
:1054E00036190024614109047F183404310C641911
:1054F0007941A40F8800204389178018594104BCC2
:1055000052423E32FFF71DFFF0BD00006BDE73F428
:10551000FD855C2CF0B54F0050D27F154ED0013781
:105520004FD0FFF749FF04B44902C20D11434002B6
:1055300001272BA6B446002200237E4220360D0010
:105540003D410C00B4400600FE40344344414D410F
:10555000AE0F05D120002900664630CE121BAB41AC
:105560000824A4440137212FE7D18900891012189B
:105570004B4180BC17A413CC0137784379437C435B
:105580004F05C912CD17C0196941A702A415CD173F
:10559000C9196C41DD17801859416C413E22CD1765
:1055A000AC4208D000090E073043090926073143F1
:1055B0002411043AF3E7FFF7C4FEF0BD02490020CE
:1055C000F0BD02490020F0BD0000F0FF0000F07FB8
:1055D000AAB800006BDE1300A3EF0F0021170B0029
:1055E000F34B98BFEC23F319D6104DCDE3FB470ED8
:1055F0007AB9BC8ADBC18907CC542C021846E10376
:10560000053083E7B029F8011E1FE0874505FE003D
:10561000249E41ACA9807F008117624515E03F00C0
:10562000E610ABA902F81F008858455500FE0F0090
:10563000C4AAA90A80FF070056455501E0FF0300F0
:10564000ABA92A00F8FF010045550500FEFF000048
:10565000AAAA0080FF7F0000551500E0FF3F000070
:10566000AB0200F8FF1F0000550000FEFF0F000016
:105670000B0080FFFF0700000100E0FFFF030000B8
:105680000000F8FFFF0100000000FEFFFF00000027
:105690000080FFFF7F00000000E0FFFF3F000000F0
:1056A00000F8FFFF1F00000000FEFFFF0F000000DA
:1056B00080FFFFFF07000000E0FFFFFF0300000086
:1056C000F8FFFFFF01000000FEFFFFFF00000000E9
:1056D000000000800000000000000040000000000A
:1056E00051434343C9188C46110C83B24B4310B449
:1056F000040C614392B280B2504362431C041B0C01
:10570000001910BC59411304120CC01851416144D6
:105710007047000048404140484000239C46114BE0
:105720005B68184700239C460E4B1B6818470E4ABF
:10573000936F9B0804D200239C460A4BDB681847F2
:10574000F0B5146E556E576F166FFFF7F4FF064AEB
:105750001466556657671667F0BD00239C46014BDB
:105760009B681847341B0020000000D007B5484054
:105770004140484001E0C04607B54200120E03D048
:10578000FF2A03D1420218D8C00DC0054A00120EEC
:1057900003D0FF2A03D14A020FD8C90DC90501223F
:1057A000414005D4414001D5814207BD884207BD33
:1057B0000143491801D0C043001807BD00B5FFF7E9
:1057C000DBFF01D0002000BD012000BD00B5FFF7C8
:1057D000D3FF804100BDC04600B5FFF7C7FF01D928
:1057E000002000BD012000BD00B5FFF7BFFF8041D4
:1057F00000BD491A002807D108467047C10FC907E4
:1058000000D54042002817D0F44603B40B4B1B6868
:10581000984706BC81409E384042803107D20B0633
:1058200007D04900490AC0051043084360470130CA
:10583000F8E7490A8902F5E770470000301B0020AD
:1058400041000A0E80231B067E2A0BDD9E3A0BDAEE
:10585000C1174002400818435242D040490001316C
:105860004843704700207047C00FC0180138704788
:10587000C0420DD300B540004008002100F012F8EE
:10588000002801D4404200BD8020000600BD000079
:10589000034BDB69FC4618471CDFF9590010000078
:1058A000341B002000239C46014B5B6A1847000014
:1058B000341B0020034BDB6FFC4618477CDF115A7A
:1058C00000100000341B002070B513231E782A48F6
:1058D000FEF78EF90500012E11D0012E09DDAB1E59
:1058E0001B789B007F2B40DD24488022290000F09C
:1058F000CBF82348FEF774F9224B186070BD1F489F
:105900005422290000F0C0F81F4B1A881F4B9A42FE
:105910001CD1A7239B011A881D4B9A4216D11D4BFF
:105920001A881D4B9A4211D11C4B1A8894239B0153
:105930009A420BD11A4B1A881A4B9A4206D11A4B2B
:105940001A681A4B9A4201D1152307E01848FCF750
:105950002FFE184C094A99008C5001331F2BF8D99F
:10596000144B064A1362D361B7E7134B134A14482A
:105970004221FCF783FDC04653460000341B002043
:105980004C330000301B0020EE290000C40F000043
:10599000C20D0000962B0000C0B50000182B0000BF
:1059A000CC2A000010B50000FC2C000051ED8764EB
:1059B000C0A00010C559001034AF0010B0AF0010E7
:1059C00068AF001007B56046002800D100BE01880E
:1059D0000A0A0230DF2AFAD1C9B2820804D3028847
:1059E00040880004104300E00068024A50500390D1
:1059F00007BD0000341B00200021C2158032803218
:105A000001D0024A1047002070470000CD2A000054
:105A1000C30FDB0741000A0E07D0FF2A08D009098F
:105A2000054A89181943400770471900002070473C
:105A30000249C918FAE70000000000380000F07FB2
:105A400010B5040003F06EFE002804D00419034BC7
:105A50009C4200D810BD0248FCF7AAFD00000420BB
:105A6000C4AF001010B503F067FE10BD014804215B
:105A7000014B1847C0040020013C0010014B1B687B
:105A800018470000C0040020014B5B681847000065
:105A9000C004002010B5FFF7D3FF10BD10B5FFF70D
:105AA000E1FF10BD10B50300080011001B68984706
:105AB00010BD10B50300080011001B68984710BD09
:105AC00070B505000368002B16D00C4B1C6805E070
:105AD000290004C92000FFF7ECFFE468002C09D07E
