:020000041000EA
:1000000000B5324B212058609868022188439860DF
:10001000D860186158612E4B002199600221596106
:100020000121F02299502B49196001219960352056
:1000300000F044F80222904214D00621196600F024
:1000400034F8196E01211966002018661A6600F04E
:100050002CF8196E196E196E052000F02FF8012189
:100060000842F9D1002199601B49196000215960AB
:100070001A491B48016001219960EB211966A021F2
:10008000196600F012F800219960164914480160C1
:100090000121996001BC002800D000471248134993
:1000A000086003C880F30888084703B5996A0420EC
:1000B0000142FBD001200142F8D103BD02B5186610
:1000C0001866FFF7F2FF186E186E02BD00000240BE
:1000D000000000180000070000035F00212200005C
:1000E000F4000018222000A00001001008ED00E03C
:1000F00000000000000000000000000074B24E7A12
:1001000000200420F7010010C3010010C5010010F9
:10011000C1010010C1010010C1010010C101001097
:10012000C1010010C1010010C1010010C701001081
:10013000C1010010C1010010C9010010CB01001065
:10014000CD010010CD010010CD010010CD01001037
:10015000CD010010CD010010CD010010CD01001027
:10016000CD010010CD010010CD010010CD01001017
:10017000CD010010CD010010CD010010CD01001007
:10018000CD010010CD010010CD010010CD010010F7
:10019000CD010010CD010010CD010010CD010010E7
:1001A000CD010010CD010010CD010010CD010010D7
:1001B000CD010010CD010010CD010010CD010010C7
:1001C00000BE00BE00BE00BE00BE00BE00F04BF888
:1001D000103800BEF2EB8871B8560110D4560110E9
:1001E0003402001090A31AE700202149086006C8D5
:1001F00081F3088810471F48006800282FD10DA4FC
:100200000ECC002902D000F012F8F9E71A491B4A77
:10021000002000E001C19142FCD1194988471949E9
:1002200088471949884700BEFDE701C901C29A42C3
:10023000FBD37047D4560110C0000020A00C002052
:10024000B46201100000042000000420B462011018
:1002500000100420001004200000000070470B482C
:1002600003F020F90047EFF30580C0B270470000AB
:1002700008ED00E0000000D0A00C0020A05D0020F0
:100280000D1E0010BD060010C91D001057560000BD
:1002900006005250ABB36053A44501100600525003
:1002A000861C0302B4450110060052505422A29D40
:1002B000C845011005005250DE65F468B4620110B3
:1002C000F8B5C04606480749091A8B10C90FC91866
:1002D00010B5491003D0044B002B00D0984710BD37
:1002E000A00C0020A00C002000000000054B10B561
:1002F000002B03D00449054800E000BFFFF7E2FFF0
:1003000010BDC04600000000CC590020E0360110AE
:1003100010B50421102011F0EFF80421112011F084
:10032000EBF80421162011F0E7F804210D2011F05C
:10033000E3F804210C2011F0DFF804210B2011F068
:10034000DBF804210A2011F0D7F80121192011F05F
:10035000D3F80121022011F0CFF80121122011F071
:10036000CBF80121132011F0C7F80121142011F05E
:10037000C3F80121152011F0BFF810BD10B50028F9
:1003800000D110BD0249002000F004F8F9E7C04692
:10039000E036011070B504002E4B1B78002B24D1E1
:1003A000002C35D02C4B01221A70D0231B06802242
:1003B00092049A6104229A618022D2029A61802278
:1003C00012039A61802252039A61802292039A61F9
:1003D000D02424068025AD04A561642001F036F9FF
:1003E0006561642001F032F9F2E71C4B1C4D0A00F4
:1003F0001900286803F006F8286811F0C7FF686044
:1004000018480022290004F0CFFDFFF7B7FFC7E727
:1004100004F054FAD0231B06802292049A6104222D
:100420009A618022D2029A61802212039A6180220C
:1004300052039A61802292039A61D0242406802577
:10044000AD04A561642001F001F96561642001F04B
:10045000FDF8F2E7965D00209B5D0020F03601106C
:10046000185900202459002010B506F099FF020009
:10047000054B0649064C200005F042FCFFF77EFFC5
:10048000044806F077FF10BD04370110185A002009
:10049000245900201859002010B5A2B0094C684614
:1004A00005F006F988226946200004F05BF8064B47
:1004B00006490022200005F005F9FFF75FFF22B092
:1004C00010BDC046F0520020045A0020205A0020DF
:1004D00010B5FFF7C9FFFFF7DFFF10BDF0B5C64647
:1004E00000B5104DAB6A104C2360D0273F06802327
:1004F0009B0498467B61FA26B600300001F0A6F80E
:100500004346BB61300001F0A1F8AB6A22689B1A38
:10051000064A934202D880BCB846F0BD0449002088
:10052000FFF738FF004005409C59002060EA0000BA
:100530000C370110F0B5C64600B5104DAB6A104C33
:100540002360D0273F06042398467B61FA26760075
:10055000300001F07BF84346BB61300001F076F8D3
:10056000AB6A22689B1A074A934202D880BCB846FD
:10057000F0BD05490120FFF70DFFC04600400540D2
:1005800098590020400D03002437011010B50C4C81
:10059000200004F07DF904F085F9A0420AD1094B4E
:1005A0001B78002BFBD0084B1B78002BFBD0FFF7F0
:1005B000C1FFFCE7FFF7ACFE04490120FFF7EAFEAC
:1005C00097060000975D0020965D00203C370110E3
:1005D000F0B587B006000F000E4D6C46200005F008
:1005E000D3FB2B002A0023CC23C203CC03C20A4C2A
:1005F00000220021200005F0FFFAFFF7BFFE0748A8
:1006000023003A00310005F041FBFFF7B7FE07B0C9
:10061000F0BDC046045A0020205A0020185A00207D
:1006200070B5FFF775FE1E491E48FFF7D1FFFFF7B3
:100630004FFF1D4B01221A70D0242406042565614A
:10064000FA20C00001F002F8A5610321022010F099
:1006500053FF0DE0D0252D068026B6046E61C82418
:100660006400200000F0F2FFAE61200000F0EEFF19
:10067000D0231B065B685B07ECD50C4805F082FABB
:100680000B4C0C48210004F037FCFFF777FE2000EC
:1006900004F0F0FAFFF772FE074B01221A7070BDEA
:1006A000583701105C370110975D0020F052002090
:1006B000185A002024590020965D002010B504F03F
:1006C000FDF80E4804F06EF90D4C200004F0E0F83F
:1006D00004F0E8F8A04205D0FFF71AFE094900200F
:1006E000FFF758FEFFF79CFF01E0FFF7F7FE064B10
:1006F0001B78002BF9D0002010BDC0468D050010DE
:1007000097060000643701109B5D002070B50C0057
:1007100000F0F6FF06000D000A4A002302F058FF21
:1007200020606160074A00233000290002F050FF7A
:10073000100053019B1A9A001218D200A2600020E8
:1007400070BDC04640420F0010B58300084A944671
:1007500063441A684024624080341440802252016D
:1007600013431C60C000034B9C466044416010BDB5
:1007700004C001400040014080000B4B9C46604497
:1007800000290DD00823002A0CD00422134302684C
:1007900053400C221A4080235B0103431A607047C8
:1007A0000023F0E70022F1E704C00140002909D04E
:1007B0008000094B9C46604480239B0103434022F8
:1007C0001A6070478000044B9C466044C0239B0124
:1007D000034340221A60F4E704C0014010B501232E
:1007E0008340D0221206936293610521FFF7ACFF8C
:1007F00010BD0000EFF3108072B6034B1B68002B96
:10080000FBD0BFF35F8F70472C0100D0BFF35F8F29
:10081000024B00221A6080F3108870472C0100D030
:10082000F8B506000C001500FFF7E4FFE308F71821
:10083000F15C07222240012393400B4205D1DBB239
:100840000B433B70FFF7E2FFF8BD2100280001F0E9
:1008500059FB0000034B1B6802201840431E9841BF
:10086000C0B2704700C00640002307E0054A9A184E
:100870009200BFF35F8F0021116001331F2BF5D968
:100880007047C04640000034054A1078431CDBB274
:100890001370172B02D9130010221A707047C0462C
:1008A000F0020020074B9B68103080001950BFF306
:1008B0005F8FBFF35F8F044B0021196082F31088B4
:1008C0007047C04600ED00E0240100D010B5091AC1
:1008D0000B1F0A4A94466144094A914208D8DA0734
:1008E00006D45B105B055B0D0648184380B210BD53
:1008F000054B064A0648992101F06AFAFC070000F8
:10090000FE0F000000E0FFFF80370110C439011026
:10091000B037011010B5091A04394A08090B08D17B
:100920004905490D064B0B430380064B1343438097
:1009300010BD054B054A0648A12101F049FAC04601
:1009400000F0FFFF00F8FFFFF037011098390110A9
:10095000B037011001238340034A10681840431E3A
:100960009841C0B27047C04600E100E0002904D0C1
:10097000034B1860034B18607047034B1860FBE78C
:1009800080E200E000E100E080E100E010B501233A
:1009900083401800FFF7EAFF10BD0000024B9B6880
:1009A00010308000C058704700ED00E070B50400C2
:1009B0000D00EFF3108672B60C4B1B68002BFBD0BA
:1009C000BFF35F8F2000FFF7E9FF094B984201D08A
:1009D000A84205D1320029002000FFF763FF70BD57
:1009E000044B054A05487C2101F0F2F9240100D0AE
:1009F000CD01001000380110E0390110B0370110AE
:100A0000F0B5CE46474680B583B006000D00EFF343
:100A1000108872B6554B1B68002BFBD0BFF35F8F5D
:100A2000534B9A6834001034A300D758514B9F425F
:100A300007D0AF4200D197E001974F4BFB1A2F2B05
:100A400009D9424639003000FFF72CFF03B0C0BC83
:100A5000B946B046F0BD3000FFF77CFF814600216B
:100A60003000FFF793FFBFF35F8FFFF7FCFB002819
:100A700001D0844211D10123019C9C430021A36831
:100A8000AB4212D00622A256002A0DDB53009B185F
:100A90009B00394A2100D418F1E7384B384A2C2101
:100AA0003848FF3101F094F92100AB4255D10625B9
:100AB0006557002D37DB304B6A00521992009B18A6
:100AC0009A68A260DA79E2719B795BB2A371002B1C
:100AD00010DABD200002A080274B6A005219920054
:100AE0009B18294A11789971157049463000FFF713
:100AF0004DFFA6E7201D6B005B199B001E4A9B184B
:100B0000191D9B88DA0A1C2A07D15B055B15023385
:100B10005B00C918FFF7DAFEDDE71C4B1C4A1948D9
:100B2000A72101F055F9002812D100290ED0FF238A
:100B30008B71184B8B8014490B78A3710E4A164B9E
:100B4000A41A644163431B0D0B70CEE7094FF2E713
:100B50001249201DFFF7DEFEC7E7114B084A60214E
:100B60000848FF3101F034F9024F6AE7240100D050
:100B700000ED00E0CD010010F40200201439011056
:100B8000B0390110B03701109C5D0020FC38011015
:100B9000D039011000BDFFFFAAAA00002E030020DB
:100BA0003839011070B50400012606432D4BF31AA5
:100BB0002F2B28D8FFF757FB00282BD0EFF3108CF2
:100BC00072B6294B1B68002BFBD0BFF35F8F254A01
:100BD000264D2100891A49414D432D0D6DB2244BFC
:100BE0009B6880001B58B3421BD00021032932D8D8
:100BF0001C4B4A00521892009B189B795BB2AB4287
:100C00001FD00131F2E71B4B1B4AC2211B48490090
:100C100001F0DEF81A4B184A88211848FF3101F01C
:100C2000D7F8134B9B68174A1A50174B1A78A271C2
:100C30001D70BFF35F8F0C4B00221A608CF310887D
:100C400070BD084B4A00501880001818FF268671A6
:100C50000E4A8280E9E70E4B074ACC21074849003B
:100C600001F0B6F8F4020020240100D0AAAA000086
:100C700000ED00E0403901107C390110B03701105F
:100C800068390110CD0100109C5D002000BDFFFF00
:100C9000743901100022044B02E0044902C30132FE
:100CA000072AFAD97047C04600E400E080808080BF
:100CB000024B9C466144890001607047400000344B
:100CC00070B505000C00080000F00EFD200000F0DB
:100CD00017FE0849200000F057FDFFF7D5FD064B31
:100CE0009C466044800068602C75044BA400E5506D
:100CF00070BDC046F50F001040000034E4590020DC
:100D00000A4B1A68EFF3108172B61368002BFCD0FF
:100D1000BFF35F8F054B1B68BFF35F8F00221A6024
:100D200081F3108840BF0020002170479C5C0020A8
:100D300010B5002920D003681B7B99421CD883681A
:100D4000154CA446614409015B181C685968002AC7
:100D500018D003681B7B9A4214D883680E488446D7
:100D6000624412019B181A685B6801208B4201D80B
:100D70000ED00020C0B210BD084B094A09483B21E3
:100D800001F026F8054B064A06483B2101F020F801
:100D9000A242EFD8EDE7C046FFFFFF0F483A01102F
:100DA000CC3C0110103A011010B500291DD0037B76
:100DB00099421AD804684B005B18033BE4180029D9
:100DC00019D0002A1DD0914221D0002A25D0037BC2
:100DD0009A4222D8006853009B18033BC3189970AD
:100DE000217800291FD1227010BD104B104A1148E4
:100DF000682100F0EDFF104B104A0E486F3100F0F3
:100E0000E7FF0F4B0D4A0B48702100F0E1FF0D4B3F
:100E10000A4A0848712100F0DBFF044B044A0548E8
:100E2000682100F0D5FF59702270DDE77C3A01108F
:100E3000383D0110983A0110E43A0110143D0110B8
:100E4000F03A0110FC3A011070B506000D001400D4
:100E5000002914D0002A14D04368806898470028DD
:100E600006D0220029003000FFF79EFF280007E08F
:100E70002A0021003000FFF797FF200000E010005B
:100E800070BD0800FCE70000F0B583B005000092DB
:100E900001930AAB1C780BAB1F78002C26D003689B
:100EA0005A7B944207D10123002B19D1002C3AD14F
:100EB000200003B0F0BD002C0CD01A7B944209D85E
:100EC0001A6863001B19033BD3189B78002BEBD0E7
:100ED0000123E9E73C4B3D4A3D48682100F078FF9B
:100EE0003C4B3D4A3D48652100F072FF03689C7B06
:100EF000002CDBD011D01A7B94420ED81A68610006
:100F000009190339521851789973002900D1D973FE
:100F10000023937053701370C8E72B4B2B4A2C4857
:100F2000682100F055FF002C37D02B681B7B9C42BA
:100F300033D8AB682A4AA21812019B18009A1A608B
:100F4000019A5A60089A9A60099ADA602E68002C11
:100F500029D02ED0337B9C422BD8336862001219E3
:100F6000033A9B1800229A705A701A70717B220003
:100F70003000FFF769FF7073844299D1287D009A91
:100F8000019B00F049FC061E01D0002F17D00C9BDE
:100F9000002B00D18CE71E708AE7124B124A0F48D3
:100FA0003B2100F015FF114B114A0948A52100F023
:100FB0000FFF054B054A0648682100F009FF286825
:100FC000210000F04BFEE2E77C3A0110383D0110B1
:100FD000983A0110143B0110443D0110103A0110E1
:100FE000FFFFFF0F483A0110CC3C01100C3A0110F2
:100FF000283D0110F0B5DE4657464E464546E0B561
:101000008BB0099000230893B24B8200D55833E08F
:10101000B14BB24AB2483F2100F0DAFEB14BB24ABE
:10102000B2483B2100F0D4FEB14BB24AAF488C210C
:1010300000F0CEFEB04BAF4AAC48902100F0C8FEA5
:10104000A84BAE4AA948402100F0C2FE43461A68A8
:101050005B68099800F0E0FB00239B469A466B68AA
:10106000BFF35F8F00221A6089F310885346002B6C
:1010700053D1002800D126E100F042FB02000B1EF4
:10108000C6DB00200021069007916868EFF3108905
:1010900072B601680029FCD0BFF35F8F2868447BDB
:1010A000002C35D0BAD0017B8C42B7D8AE689449B9
:1010B00061180901B046884441460E684F68B61A67
:1010C0009F41002FC2DC01D1002EBFD1002100F0D2
:1010D000BBFDA042A8D143461A685B6806920793FD
:1010E00043469B689A464346DB689B465346002B23
:1010F000A0D0002CA4D02B681B7B9C42A0D8EA680F
:10110000631ED35C08931B02184328610020A6E7E6
:1011100000239B469A460020A1E7089B1B0223431D
:10112000984659461800D04706000F006A68EFF34A
:10113000108972B6136859424B41D9B2002BF9D1CC
:10114000BFF35F8F002F26DB002F52DD2B69002BB2
:1011500053D0434572D100F0D3FA02000B1E73DB6B
:101160000100180092197B41984202D804D19142A3
:1011700002D901225242D317002B6BDB00210491CC
:101180000131039102945946019151460091280082
:10119000FFF77AFE49E02B69002BD5D043451CD1DF
:1011A000069A079B10001900921BBB41994202D876
:1011B00004D1904202D901225242D317002B12DBF4
:1011C0000021049101310391029459460191514645
:1011D00000912800FFF758FE27E04A4B454A434854
:1011E0009F2100F0F5FD3C4B3C4A3D483F2100F07B
:1011F000EFFD002F01D1002EA8D12A68002C44D089
:10120000537B9C422CD1012100293ED1D37B002B62
:1012100041D1D473002C50D02B681B7B9C424CD8FE
:10122000EA68013C135D0133135500232B616A68A2
:10123000BFF35F8F136089F310881DE7314B2D4A90
:101240002A48A22100F0C4FD234B244A24483F2110
:1012500000F0BEFD204B214A21483F2100F0B8FD9F
:10126000002C0CD0137B9C4209D8106863001B191A
:10127000033BC3189B78002BC6D00121C4E7224B47
:10128000224A2348682100F0A3FD224B224A20482D
:10129000F62100F09DFD002B09D0117B8B4206D872
:1012A00010685900CB18033BC3185C70B1E7164BAC
:1012B000164A1748682100F08BFD0A4B0F4A0B486D
:1012C000402100F085FD0BB0F0BCBB46B246A946FC
:1012D000A046F0BDE45900203C3B0110983C0110B1
:1012E000583B0110483A0110CC3C0110103A011053
:1012F000A03B0110B03C0110B83B0110F03C0110C4
:10130000FFFFFF0FC43B01107C3A0110383D011074
:10131000983A0110003C0110043D011010B50A4B31
:101320005B68002B04D009480A21FFF7C1FC10BDFF
:10133000054C074A20682300102100F0A9FB032177
:101340002000FFF7BDFCEEE73C0300209C5C002082
:10135000310D001010B5064B5B68002B01D004481E
:1013600010BD044B044A05485C2100F031FDC04625
:101370003C030020243C0110D83C0110103A01101D
:10138000F0B5DE4657464E464546E0B58BB0804642
:1013900016001F00149B9A46159B994616AB1B78A6
:1013A0009B461F2302AA9446634400221A7036E02B
:1013B000002809D042461268127B904204D8424667
:1013C000D168421E8A5C4CE0454B464A4648402163
:1013D00000F0FEFC0798002B79D05B46002B76D0FE
:1013E0004946D04704000D0003000B4300D175E0CF
:1013F00000294ADB00F084F902000B1E59DB0100D2
:10140000180012196B41984202D804D1914202D9B6
:1014100001225242D317002B51DB16001F00434616
:101420005A68EFF3108472B6136859424B41D9B22F
:101430000791002BF8D1BFF35F8F1F3302AA9446A8
:10144000634404930023039302934B460193534652
:10145000009332003B004046FFF716FD031EA7D164
:10146000020041464968BFF35F8F00250D6084F399
:101470001088002B29D01F2302A98C4663441B78B7
:10148000002BA7D112021043A5E730003900361B0C
:10149000AF41B94202D804D1B04202D90126764206
:1014A000F717002FBBDA114B114A12483F2100F009
:1014B0008FFC0E4B0E4A0F483F2100F089FC0B4B6E
:1014C0000B4A0C483F2100F083FC012040420BB046
:1014D000F0BCBB46B246A946A046F0BD0798F6E769
:1014E000483A0110F03C0110103A01103C3B011049
:1014F000983C0110583B0110F0B587B006000F0072
:10150000FEF7B1FE00281FD106246442E517A41996
:101510007D41BD4202D803D1B44201D90024002547
:10152000002D14DB0494059500F0EAF802000B1E70
:1015300013DBA41A9D41002D17DC14D030003900B4
:1015400000F0EAF807B0F0BD234800F0DBFC234BC5
:10155000234A24483F2100F03BFC204B204A2148ED
:101560003F2100F035FC002CE8D0FFF7F3FE00230C
:10157000029301931C4B0093049A059BFFF700FF15
:10158000002818DADAE7002300E00023002BD5D189
:10159000164B1A68EFF3108172B61368002BFCD05B
:1015A000BFF35F8F114B1B68BFF35F8F00221A6080
:1015B00081F3108820BF0499059A0D4B5B6A9A420B
:1015C000E3D80B48806A884203D29A42DBD00123D9
:1015D000DCE70123DAE7C046483C01103C3B011040
:1015E000983C0110583B0110010D00109C5C00203C
:1015F00000400540F8B504000D0000F081F802003D
:101600000B1E10DB20002900801859418B4202D8A4
:1016100004D1824202D901204042C117002908DBCF
:10162000FFF76AFFF8BD064B064A07483F2100F066
:10163000CFFB034B034A04483F2100F0C9FBC046DF
:101640003C3B0110983C0110583B011010B5FA22A8
:1016500092000023002102F0BDFDFFF7CBFF10BD7B
:1016600070B5EFF305833F2018401038EFF3108C6E
:1016700072B6184B1B68002BFBD0BFF35F8F0123A2
:1016800019008140144A5163144A12781400C4406E
:10169000234213D0104B5C6A114B8500EB589C42DF
:1016A00005D3104BEB580D4C8A43227007E00A4AD1
:1016B000031D9B0099589950002300E00023BFF3BD
:1016C0005F8F044A002111608CF31088002B00D03A
:1016D000984770BD280100D0004005409D5D002066
:1016E000C05C0020BC53002010B50100024A034B2F
:1016F0001800FFF795F810BD683D0110955D0020BA
:10170000044B5B6A034A906A1900536A9942F9D103
:101710007047C04600400540084B5B6A01E0074B3C
:101720005B6A8B42FBD301E0044B5B6A8B4203D1C3
:10173000024B9B6A8342F7D37047C0460040054086
:1017400070B504000D00FFF7DBFF02000B00200066
:101750002900801859418B4202D804D1824202D913
:1017600001204042C117002902DBFFF7D5FF70BD01
:10177000024B034A03483F2100F02AFB3C3B011087
:10178000103E0110583B011070B504000E00EFF33D
:10179000108572B61B4B1B68002BFBD0BFF35F8F0D
:1017A000002E1CD02000FFF7F9F8174B83420BD016
:1017B00019002000FFF7FAF801212000FFF7E6F8F2
:1017C0000123A340114A1360114BA400E650BFF35C
:1017D0005F8F0C4B00221A6085F3108870BD0C4B94
:1017E000A2000021D1500122A2400A490B78934364
:1017F0000B7005492000FFF703F900212000FFF7D7
:10180000C5F8E4E7280100D06116001038600540F3
:10181000BC5300209D5D0020F0B5DE4600B584B0CD
:101820000400150001921E000293FFF769FF039563
:101830008E4202D84ED185424CD9EFF3108B72B64E
:10184000274B1B68002BFBD0BFF35F8F254A17780F
:101850000125A540EBB23B431370234B5D63221D72
:1018600092000199D150214AA100029888501B6A28
:101870002B4212D11C4B1B6C2B4208D00020BFF313
:101880005F8F174B00221A608BF3108823E0184BF0
:10189000184A1948C12100F09BFAFFF731FF8E4228
:1018A00014D802D1039B834210D80E4B1B78BB4245
:1018B0000ED00D4B1D625D631F2222400123934019
:1018C0000E4A1360074B1F700120D8E70020D6E7AF
:1018D0000120D4E7012004B080BCBB46F0BDC04667
:1018E000280100D09D5D002000400540C05C002024
:1018F0008C3D0110F43D0110B03D011080E200E08C
:10190000EFF3108C72B60B4B1B68002BFBD0BFF3B0
:101910005F8F01238340084A136208490A789A437B
:101920000A70BFF35F8F034B00221A608CF310889C
:101930007047C046280100D0004005409D5D002052
:1019400010B500291DD0037B99421AD804684B00BA
:101950005B18033BE418002919D0002A1DD09142DE
:1019600021D0002A25D0037B9A4222D80068530058
:101970009B18033BC3189970217800291FD122704E
:1019800010BD104B104A1148682100F021FA104B8D
:10199000104A0E486F3100F01BFA0F4B0D4A0B48EE
:1019A000702100F015FA0D4B0A4A0848712100F029
:1019B0000FFA044B044A0548682100F009FA5970EF
:1019C0002270DDE77C3A0110143F0110983A0110B3
:1019D000E43A0110003F0110F03A0110FC3A011006
:1019E00070B506000D001400002914D0002A14D090
:1019F000436880689847002806D0220029003000FC
:101A0000FFF79EFF280007E02A0021003000FFF7C3
:101A100097FF200000E0100070BD0800FCE7000008
:101A200010B50023437301338373037BC373012316
:101A3000027B9A4213D9002B0BD0027B934208D829
:101A400001685A00D218033A8A180133DBB2537086
:101A5000EEE70C4B0C4A0D48682100F0B9F9002A5A
:101A600009D0924207D8016853009B18033BCB185A
:101A700000225A7010BD034B034A0448682100F04D
:101A8000A7F9C0467C3A0110143F0110983A0110A2
:101A900010B5017342608360FFF7C2FF10BD000004
:101AA00070B50400081E00D170BD002931D0237B21
:101AB00099422ED822684B005B18033BD3185A7802
:101AC000002AF1D02BD0237B9A4228D821685300DA
:101AD0009B18033BCB185D7800215970002824D057
:101AE000237B984221D8216843001B18033BCB1865
:101AF0000021597001002000FFF772FF0600290045
:101B00002000FFF7CDFF020031002000FFF768FF43
:101B1000CAE7094B094A0A48682100F059F9064BFF
:101B2000064A0748682100F053F9034B034A04486A
:101B3000682100F04DF9C0467C3A0110143F0110B5
:101B4000983A011070B505000C001600002927D046
:101B50002CD0037B994229D803684900091903391D
:101B60005B185A78002A27D19A78002A2AD1197846
:101B7000FFF796FF0300002E03D0EA7B002A27D14F
:101B8000EC73002B36D1002C47D02B7B9C4244D8E1
:101B90002A6863001B19033BD31800225A7070BDDA
:101BA000214B224A2248382100F012F9214B224AC7
:101BB0002248682100F00CF9214B1C4A1C483A21AC
:101BC00000F006F91F4B194A19483B2100F000F9B3
:101BD000002A09D0297B8A4206D82E6851008A182B
:101BE000033AB2185470CBE7124B134A13486821DA
:101BF00000F0EEF8002B0AD02A7B934207D82A681F
:101C000043001B18033BD31800229A70BBE7094B13
:101C1000094A0A48682100F0DBF8064B064A0748E3
:101C2000682100F0D5F8C046283E0110EC3E0110B6
:101C3000303E01107C3A0110143F0110983A011017
:101C4000683E0110903E011070B504000A00457B0B
:101C50002900FFF777FF6073280070BD70B504009E
:101C6000002966D0437B8B420ED0002911D0037B24
:101C700099420ED805684B005B18033BED18AB7812
:101C8000002B0CD1002055E00121FFF7DDFF0120E2
:101C900050E0294B294A2A48682100F099F8002B86
:101CA0001FD0027B93421CD800685A00D318033B14
:101CB000C218C35C8B421AD0002B1BD0227B9342EC
:101CC00018D820685A00D318033BC01843788B42B9
:101CD00016D0002BF0D11B4B1B4A1C48672100F08B
:101CE00077F8154B154A1648682100F071F86B78A3
:101CF000137007E0104B114A1148682100F068F892
:101D00006B7843700023AB706B7001222000FFF7EB
:101D100019FF0200617B814205D02000FFF760FEC1
:101D20006073012006E00A4B074A08486D2100F065
:101D30004FF8002070BDC0467C3A0110143F0110DE
:101D4000983A011074390110D43E0110303E011050
:101D5000B43E011010B50400FEF796FD010020000E
:101D6000FEF7A6FFFF232371BFF35F8F10BD10B5F1
:101D70000400FEF789FD01002000FEF799FFFF2314
:101D8000237100236371BFF35F8F10BD00BEFDE7B9
:101D900003000A4A1268002A08D0084A1068C318CB
:101DA000074A9A4206D3054A13607047034A054919
:101DB0001160F2E701204042F7E7C0468059002059
:101DC00000000420A05D002010B5FFF7DFFF000039
:101DD00030B583B00D001900002A0DD0084B002A41
:101DE0000CD0084C019200932B000200200002F05E
:101DF00011FD0120FFF7CAFF034BF0E7024AF0E7AD
:101E0000B83F0110C83F01108452011070B52B4B30
:101E10002B4A1A602B4B2C4A1A602C4B9A682A4B7F
:101E20009343FAD12A4C01E008CC9847294B9C42B5
:101E3000FAD300F001F9234B274A1A60234B9B6821
:101E4000DB43DB01FAD1254B40229A675A671A67B8
:101E5000DA66234C09E0234B234A24488321FFF709
:101E6000B7FF2000FFF776FF0834214B9C4209D2D0
:101E70002368002BF5D0012BEDD12000FFF777FF71
:101E80000834F2E71B4DA9681B4CC022200002F069
:101E900069FBAC60FEF7E7F9002800D000BEFEF752
:101EA000E3FCFEF7F7FEFFF739FA144C01E008CC2B
:101EB0009847134B9C42FAD370BDC04600E00040E7
:101EC000BFCDFBFE00F00040FE7F3C0000C00040A4
:101ED000840C0020940C0020FFFFFF0100F0014063
:101EE000740C0020F83F01106C40011018400110E4
:101EF000840C002000ED00E000000020940C002085
:101F0000A00C00200FB400B583B0084802F050FCCC
:101F1000049B002B07D005A90191180002F058FC82
:101F2000034802F045FC0120FFF730FF5C40011040
:101F300028530110F8B5DE4657464E464546E0B5F3
:101F400006000F0015000A9A93424ED31A0E9246CD
:101F50001B0298460A9A00234046514601F038FB7E
:101F600081467400A419A4002E4B9C466444636807
:101F7000834200D26060331FDBB29B46012B3AD90B
:101F8000C0239B012343802212011A60264BB2001A
:101F9000D158002905D0586901F0D8FA013001382C
:101FA000FDD16D0123685D40E0222A4080235B0162
:101FB00023431A605A46012A28D980239B012343D0
:101FC000802212011A604B4663604A460023404655
:101FD000514601F0FDFA144BB60098510120F0BCB7
:101FE000BB46B246A946A046F8BD104B104A114860
:101FF0002D21FFF7EDFE012FC2D1C0239B0123430A
:1020000003221A60A368DB07FCD5CAE72168794080
:1020100003220A401A60A3680125BD401D42FAD080
:10202000CBE7C04600800040DC5400207C4001101B
:10203000D44001109040011030B583B00C2000F066
:102040001BF9FEF707FC00280DD0002304E02E4A00
:1020500099002E4888500133092BF8D92A4B2C4A75
:102060005A6203B030BD2B4B00229A6700F00CF986
:10207000294B01221A60274B5B6C012BFBD1274BAC
:1020800003221A60234B9B6B012BFBD1013300937E
:102090000433234A0121234800F04EF8052300931E
:1020A000214A0121214800F047F8214B00930022EA
:1020B00002210420FFF73EFF1E4D00952B00002259
:1020C00001210520FFF736FF104C00942300002269
:1020D00000210720FFF72EFF00942300002200219B
:1020E0000820FFF727FF0A4B00932300002200215E
:1020F0000920FFF71FFF00952B000022002106207A
:10210000FFF718FFADE7C046DC540020006CDC028E
:102110001BB70000008000403CB0004030B00040E1
:10212000002F685900800240008C864700C00240A2
:10213000001BB70040597307F0B5C64600B5040050
:102140000F0090461D000C2001F000FA06003D4AE9
:1021500042443D4B9A4243D843011B1A9901C91A84
:10216000C90009188901404601F0F0F90200103A4F
:1021700098235B009A4239D86B1E062B3CD8069BED
:10218000013B062B38D8069B9D423BD343461B0997
:10219000B3423DD32D04069B1E0335432368002B19
:1021A0003CDB2A4B9C424AD080235B01284A1360C7
:1021B000284A1360284A926819009143FAD127608F
:1021C000A060221DC0239B01134321221A602268B4
:1021D000002AFCDAE56008221A6080BCB846F0BD2F
:1021E0001E4B1F4A1F481121FFF7F2FD1E4B1C4AD0
:1021F0001C481921FFF7ECFD1C4B194A19481C21FA
:10220000FFF7E6FD1A4B164A16482221FFF7E0FDBC
:10221000184B134A13482521FFF7DAFD22683F23A4
:102220001340BB42BDD1A3681B051B0D8342B8D12F
:10223000E368EE22D2021340AB42B2D1CDE7802355
:102240009B01B3E780E84BD380F8A93200C002407D
:1022500000E0004000F0004000C00040E4400110F9
:10226000204201104441011084410110A04101109D
:10227000EC4101100442011080239B000343014AFA
:10228000D362704700800540064BAA2212011A60F3
:102290002F22DA60044B054A1A60024B5B68002B60
:1022A000FBDA7047004002400060024000B0FA00D4
:1022B0009A4200D288547047704710B5002802D067
:1022C0000B684968984710BD0100002007E08300B3
:1022D0001B185B00501C08601078C01830380A6862
:1022E0001378303BDBB2092BF1D97047F0B5DE46ED
:1022F00057464E464546E0B583B093461F000C9BBB
:102300009A460D9C0E9B99460F9B9B0703D0B8469F
:102310000F00060022E00192A34688464E46B946C9
:102320000700B44207D2551C4B4641462020B8470F
:1023300001342A00F5E73D004F465C46019B9B4671
:10234000B1464646B84637002E0007E0013C551C12
:102350005346185D43463900B0472A00002CF5D19A
:1023600035003E0047460F9B9B0707D4100003B083
:10237000F0BCBB46B246A946A046F0BDB0464E46AC
:10238000B9462F005D46531BB342EFD2541C4B4657
:1023900041462020B8472200F5E7F0B5CE46474633
:1023A00080B585B0944698460C9D0D9C0EAB1B786D
:1023B0009946109A119B129EB7071CD4002B0CD083
:1023C000F7070AD54F46002F02D10C37374204D009
:1023D000013B02E030272F550134944201D21F2CDB
:1023E000F8D9F70707D59C4205D21F2C03D8302710
:1023F0002F550134F5E7F70615D5770505D4002CE0
:1024000003D0944224D09C4222D00F9A102A2BD081
:102410000F9A102A30D00F9A022A35D01F2C02D8DA
:1024200030222A5501341F2C05D84A46002A31D0C3
:102430002D222A55013403960293019400954346B8
:102440006246FFF753FF05B0C0BCB946B046F0BDC9
:10245000621E012C06D00F9F102F01D01400D4E76C
:10246000023CD2E71400D0E7B206D1D41F2CCFD85B
:1024700078222A550134D1E7B206CCD51F2CCAD810
:1024800058222A550134C9E71F2CC7D860322A5573
:102490000134C3E7720703D52B222A550134CAE75A
:1024A0003207C8D520222A550134C4E7F0B5DE46EC
:1024B00057464E464546E0B593B081468A46089257
:1024C00009931CAB10CB1B789B461E9D219B984605
:1024D000002C03D1102342469A4390468023DB0010
:1024E00046461E4042461A4212D0002C22D00026F8
:1024F0000EE03031CBB2771C0AAA93552900200098
:1025000001F024F8AC4216D31F2F14D83E0004006B
:102510002900200001F01AF8C9B20929E9D9434677
:102520009B0605D541235B18DBB20A3BDBB2E2E731
:102530006123F8E7270043460693209B05931F9BE2
:10254000049303955B46029301970AAB0093099BA2
:10255000089A51464846FFF720FF13B0F0BCBB462F
:10256000B246A946A046F0BDF0B5DE4657464E46F7
:102570004546E0B595B0089009910A920B931E9ECE
:102580001F9C20AB1B789B46229B9946239D269B34
:102590009A463300234303D1103352469A4392465E
:1025A0008023DB0057461F4052461A4219D03300A1
:1025B00023432DD0002714E03032D3B27A1C90464A
:1025C0000CAAD3554A462B003000210001F000F838
:1025D000A5421FD819D043461F2B1BD847460600DB
:1025E0000C004A462B003000210000F0F1FFD2B26F
:1025F000092AE1D953469B0605D541239B18DBB236
:102600000A3BDBB2DAE76123F8E7B145E3D901E041
:102610000023984653460693259B0593249B0493D9
:102620004B4603935B460293434601930CAB0093E6
:102630000B9B0A9A09990898FFF7AFFE15B0F0BCFA
:10264000BB46B246A946A046F0BD0000F0B5DE4646
:1026500057464E464546E0B591B083468A460C92B1
:1026600098461A9C08941B9D099522002B00200077
:10267000290001F03CFA002800D0E5E00122524296
:10268000D74B2000290001F02DFA002800D0DBE014
:1026900001225242D34B2000290001F00DFA0028FC
:1026A00000D0D1E000220023089E3000099D2900BF
:1026B00001F002FA002800D0DDE0089A099B06929A
:1026C00007938023DB001E9A1A400D921E9A1A422D
:1026D00001D106231C930698079904000D000A00F7
:1026E0000600024300D1D1E0080D4005400DBE4C6C
:1026F000A44660440A03120BBC4B13431F0001F0B5
:1027000009FABB4ABB4B01F094F9BB4ABB4B01F041
:1027100069F904000D000022B94B3000390001F0C6
:1027200058F9B84AB84B01F084F902000B002000B8
:10273000290001F057F901F005FA814601F0EAF9A4
:1027400004000D00B14AB24B01F073F90022B14B05
:1027500001F048F901F0F6F90600AF4AAF4B20004E
:10276000290001F066F904000D00300001F0D2F9F3
:10277000AB4AAC4B01F05DF902000B0020002900D0
:1027800001F027F904000D0002000B0001F051F9DF
:102790000A900B91A44BF31800261F0522002B0072
:1027A0002000290001F01EF90E900F9122002B004D
:1027B00000208021C90501F00CF904000D00002261
:1027C0009A4B0A980B9901F016F90022984B01F0E8
:1027D00009F902000B000A980B9901F00CF900228C
:1027E000944B01F0FFF802000B000A980B9901F0DE
:1027F00002F902000B002000290001F0F3F80200AA
:102800000B000E980F9901F0F6F80022774B01F0BB
:10281000E9F832003B0001F00CF906000F0004005B
:102820000D00069A079B01F05DF9002830D00123C6
:102830005B429C46E14400227D4B3000390001F0B0
:10284000DAF804000D0023E01E9B04931D9B039304
:102850001C9B0293089A099B0092019343460C9A91
:102860005146584600F0FCF811B0F0BCBB46B246E9
:10287000A946A046F0BD00230024069307940696BF
:1028800080231B069C46654407951AE7002399465A
:102890004B466333C62B1ED804261E9B1B0526D52C
:1028A0002B0023430FD0644A644B0698079901F02C
:1028B00011F9002879D00022614B0698079901F0A0
:1028C000FBF8002871D01C9B4B4506DD4A469B1A3D
:1028D000013B1C9303E00526DFE700231C938023C4
:1028E000DB001E9A1A431E920026002399461D9B68
:1028F0009E4264D29F1B02231E9A1A400A921E9A7D
:10290000134202D0002E00D000274B46002B07D0E8
:1029100022002B000698079901F06DF806900791A8
:10292000002200230898099901F0C6F8002848D130
:10293000444B1E9A1340049303971C9B0293069BDF
:10294000079C0093019443460C9A5146584600F068
:1029500087F8002E00D187E71E9B9B063DD54525B5
:10296000441C4346020051462800D8474A46D31724
:10297000D2185A4005230593013E04960023039381
:102980000A3302934B46DB0F019300924346220029
:1029900051465846FFF78AFD0A9B002B00D163E79A
:1029A00002005F460C9E1D9D54E01C9B002B9ED098
:1029B0000D9B002B9BD01C9B013B1C9397E7002792
:1029C00099E7069C079D2200290080200006844686
:1029D00061440B0006920793AAE76525C0E7C0464D
:1029E000FFFFEF7FFFFFEFFF01FCFFFF0000F03F65
:1029F000FB799F501344D33FB3C8608B288AC63FEE
:102A00000000F83F61436F63A787D23F71A3790944
:102A10004F930A400000E03F1655B5BBB16B024032
:102A2000EF39FAFE422EE63FFF03000000002C4083
:102A300000002440000018402D431CEBE2361A3FF2
:102A400080842E41FFF7FFFF541C4346514620204F
:102A5000B8472200931BAB42F6D3100004E7C046F0
:102A6000F0B5DE4657464E464546E0B595B0069071
:102A7000079193469946209F1E9A1F9B10001900AC
:102A800001F035F8002831D101225242BF4B1E9887
:102A90001F9901F011F8002837D101225242BC4B96
:102AA0001E981F9901F01EF800283DD10022B94B55
:102AB0001E981F9901F016F8002850D10022B64B3D
:102AC0001E981F9900F0F8FF002848D1002200232B
:102AD0001E981F9900F0F0FF002850D1002398465F
:102AE000229B5B0500D4B6E0002458E0229B0393B0
:102AF000219B029303230193A84B00934B465A4614
:102B000007990698FFF7F2FB0EE1229B0393219BA6
:102B1000029304230193A24B00934B465A46079914
:102B20000698FFF7E3FBFFE00423229A1A4022995C
:102B30000B4210D09B4B002A0FD004222299039104
:102B400021990291019200934B465A4607990698A3
:102B5000FFF7CCFBE8E0944BEDE70322EEE7229B86
:102B60000493219B039302971E9B1F9C0093019447
:102B70004B465A4607990698FFF768FDD4E01E9A1F
:102B80001F9B0020002100F024FF1E901F910123B5
:102B90009846A5E70CAB30221A55013F01341F2C93
:102BA00001D8092FF6D81E981F9900F0CBFF050019
:102BB00000F0B0FF02000B001E981F9900F009FF03
:102BC0007A4BFA009B181A685B680A920B9300F024
:102BD00030FF0890099100F0D9FF060000F096FF41
:102BE00002000B000898099900F0F3FE0890099183
:102BF00000226F4B00F076FF00282ED00136300007
:102C000000F084FF02000B000A980B9900F05AFFB5
:102C1000002801D001350026002F2CD1280000F01B
:102C200079FF02000B001E981F9900F0D2FE0600EB
:102C30000F0000225E4B00F03FFF002846D100222B
:102C40005B4B3000390000F04DFF00283ED1EB0710
:102C50003CD501353AE0062746E70022544B089858
:102C6000099900F029FF0028D6D1002E01D0F307E2
:102C7000D2D50136D0E7AA461F2C11D8013F0A2130
:102C8000300000F063FC651C30310CAB19550A2193
:102C9000300000F05BFC092E0ED906002C00EBE79B
:102CA00055461F2C0CD87B1E002F09D00CAA3021B2
:102CB00011551F000134F4E72B0055461C00F0E7C6
:102CC0001F2C03D80CAB2E221A5501341F2C10D800
:102CD0000A21280000F012FC661C30310CAB19559B
:102CE0000A21280000F00AFC051E01D03400EDE79F
:102CF00034000323229A1340012B1CD01F2C06D82A
:102D00004346002B32D00CAB2D221A550134229BA6
:102D10000393219B029301940CAB00934B465A46BC
:102D200007990698FFF7E2FA15B0F0BCBB46B24629
:102D3000A946A046F0BD219B002B13D04346002B93
:102D400002D10C3313420FD0219B013B2193190078
:102D500003E00CAB30221A5501348C42CED21F2C2A
:102D6000F7D9CBE72199F8E72199F6E7229B5B0792
:102D700004D50CAB2B221A550134C8E7229B1B0744
:102D8000C5D50CAB20221A550134C0E7FFFFEFFF79
:102D9000FFFFEF7F65CDCD4165CDCDC1384201103C
:102DA0003C4201102C42011034420110E04301105A
:102DB0000000E03FF0B5DE4657464E464546E0B5DA
:102DC00093B082468B4690461193002900D100E3D0
:102DD00000275446119B1878002800D1FCE22528D2
:102DE00009D07D1C43463A005946A047119B013348
:102DF00011932F00EEE7013311930025119A1178FA
:102E00000B00203BD8B2102803D88300C248C35817
:102E10009F460B00303BDBB2092B2CD92A292FD03F
:102E200000230A93119B1A782E2A39D00023994641
:102E3000119A1378683BD9B2122976D88B00B7491A
:102E4000CB589F4601231D4301321192D6E702233E
:102E50001D4301321192D1E704231D430132119227
:102E6000CCE708231D4301321192C7E710231D430D
:102E700001321192C2E711A8FFF726FA0A90D1E7B2
:102E80001C9B1A1D1C921B68002B04DB0A93119BD0
:102E900001331193C6E7022215435B420A93F6E71A
:102EA0008022D20015435A1C11925A781300303BED
:102EB000DBB2092B04D92A2A07D000239946B7E7A9
:102EC00011A8FFF701FA8146B2E71C9B1A1D1C925C
:102ED0001B68002B04DB9946119B01331193A7E774
:102EE0000023F8E780235B002B43511C119152789B
:102EF0006C2A01D01D0018E0C0239B001D43013146
:102F0000119112E080232B43511C11915278682AB1
:102F100001D01D0009E0C0231D430131119104E0DF
:102F200080235B001D4301321192119B18786728A2
:102F300016D8252826D30300253BDAB2422A21D809
:102F40009300774AD3589F4680239B001D4301324C
:102F50001192EAE780235B001D4301321192E4E7FE
:102F600078280FD869280DD30200693AD2B201231C
:102F700093406C4A13420FD11A0600D503E25B0559
:102F800000D594E17D1C43463A005946A047119B69
:102F9000013311932F001DE7782809D0622838D01B
:102FA0006F2838D0582838D010239D430A2600E0D7
:102FB0001026582833D0692803D0642801D00C2269
:102FC00095436A0501D50122954369282AD06428D2
:102FD00028D0AA0500D5A7E0EA0500D5C0E06A061A
:102FE00000D4D2E01C9A111D1C911168FF220A40E6
:102FF00005950A9B04934B46039302960023019385
:10300000009243463A0059462000FFF74FFA070066
:1030100027E00226CDE70826CBE71026C9E72022C5
:103020001543C8E7AA0520D4EA0550D46A0666D538
:103030001C9A111D1C911168FF220A40D01711180B
:10304000414005950A9B04934B4603930296D20F89
:103050000192009143463A0059462000FFF726FAB4
:103060000700119B01331193B4E61C9A0732072124
:103070008A43110008311C91116853689C46DB1784
:103080000C930D930C9A0D9B100048400E906246D5
:1030900053400F930E980F990C9A0D9B801A9941EB
:1030A0000E900F9108950A9B07934B460693049642
:1030B000002305936346DA0F029200900191434684
:1030C0003A0059462000FFF74FFA0700C9E71C9A5B
:1030D000111D1C911268D0171118414005950A9BCB
:1030E00004934B4603930296D20F019200914346FC
:1030F0003A0059462000FFF7D9F90700B1E72A0640
:1031000005D51C9A111D1C910023D25E96E71C9ACE
:10311000111D1C91126891E7444201108842011070
:10312000D4420110419000001C9A073207218A43C3
:10313000110008311C9108950A9B07934B46069392
:10314000049600230593029353681268009201933A
:1031500043463A0059462000FFF706FA070080E789
:103160001C9A111D1C9105950A9B04934B460393D1
:103170000296002301931368009343463A00594690
:103180002000FFF793F907006BE72A0606D51C9A83
:10319000111D1C9112681204120C29E71C9A111DB2
:1031A0001C91126824E746281AD01C9B073307227B
:1031B00093431A0008321C9204950A9A03924A46D5
:1031C00002921A685B680092019343463A0059469E
:1031D0002000FFF745FC0700119B01331193F9E52F
:1031E00020231D43E1E7672801D0472802D180232F
:1031F0001B011D43452801D0472801D120231D4331
:103200001C9B0733072293431A0008321C92049533
:103210000A9A03924A4602921A685B6800920193E6
:1032200043463A0059462000FFF710FA0700119B69
:1032300001331193CEE502231A002A4092462B4215
:103240001FD001251C9B1A1D1C927A1C91461878D0
:1032500043463A005946A0475346002B16D1119BCE
:10326000013311934F46B5E5561C4346594620207D
:10327000B8472B0032005D1C9C42F5D83C0017007B
:10328000E0E701233A0027000A9CF4E74A46A146FA
:103290000A9C06E0571C434659462020C847350083
:1032A0003A006E1CAC42F5D84C469146D7E71C9BC1
:1032B0001A1D1C921E684B46002B00D1013B3100A9
:1032C00001E0013113000A78002A02D05A1E002BB7
:1032D000F7D1891B10918023DB002A001A40924607
:1032E0001D4203D0494501D94B46109302231A00D1
:1032F0002A400B922B4205D03A00574623004C46F9
:10330000994620E03A00109B5F46B346260006E04F
:10331000541C434639002020B0472B0022005D1C7E
:103320000A999942F4D834005E46BB461095574638
:1033300023004C46994606E01C000136551C4346C6
:103340005946C8472A003078002804D0002FF4D00E
:10335000631E002CF0D117004C460B9B002B03D1B1
:10336000119B0133119335E50A9F109B06E0561C13
:10337000434659462020A0472B0032005D1C9F4247
:10338000F5D81700ECE721232B431C9A111D1C9143
:1033900012680593082304934B460393102302936A
:1033A00000230193009243463A0059462000FFF75C
:1033B0007DF80700119B013311930BE57D1C4346FB
:1033C0003A0059462520A047119B013311932F0045
:1033D00000E50B4B9A46FBE4A246474502D3434621
:1033E0005A1E00E03A00434659460020D0473800B4
:1033F00013B0F0BCBB46B246A946A046F0BDC046DD
:10340000B92200100EB430B584B0010007AC08CC6E
:1034100003940122054D009452422800FFF7CAFC94
:1034200004B030BC08BC03B01847C046B12200103D
:103430000CB430B585B00A0008AC08CC0394054D37
:10344000009401002800FFF7B5FC05B030BC08BCB3
:1034500002B01847B122001010B582B0044C00939E
:1034600013000A0001002000FFF7A4FC02B010BD09
:10347000B122001000B585B00290039101210448EB
:10348000009313004A4202A9FFF794FC05B000BD67
:10349000BB22001001480421014B18477003002093
:1034A000C534001010B5010018231B8814221088A1
:1034B000984710BD10B5010018231B8816221088EC
:1034C000984710BDF0B5C64600B507000E000025B0
:1034D0000123984600E00135B5420AD2AC003C1900
:1034E0002068FFF7DFFF20600028F4D10023984612
:1034F000F1E7404680BCB846F0BD0000124A936F29
:103500009B0815D29066D166002905D0FFE7FFE73A
:10351000FFE7516F106F704704B580210906C2178D
:103520005140002800D0C84310F0C2F8002104BD6B
:10353000F0B5146E556E576F166FFFF7E3FF146604
:10354000556657671667F0BD000000D0114A936FAB
:103550009B0813D210665166002905D0FFE7FFE7EC
:10356000FFE7516F106F704704B5002801D00020AD
:10357000C04310F09DF8002104BDC046F0B5146EA4
:10358000556E576F166FFFF7E5FF14665566576760
:103590001667F0BD000000D094464E4A926F920824
:1035A000624601D230E0C046F0B54A4EB56F6D08B4
:1035B000FCD3346E756E776F366F00F025F8944645
:1035C000444A14665566576716676246F0BDC046A2
:1035D0009446404A926F9208624601D258E0C04633
:1035E000F0B53C4EB56F6D08FCD3346E756E776FD9
:1035F000366F00F04DF89446364A146655665767A4
:1036000016676246F0BDC046002B24DB11D00029AE
:103610003EDA00B5C943404200D1013100F038F82C
:10362000C943404200D10131DB43524200D1013352
:1036300000BD002AEBD1002801D1002905D00020CF
:10364000C90FC90701D1C043410800B510F028F8DF
:103650000022002300BD00B500290ADBDB435242F3
:1036600000D1013300F014F8C943404200D10131C8
:1036700000BDC943404200D10131DB43524200D179
:10368000013300F005F8DB43524200D1013300BDA5
:10369000002923D1002B18D1002A0CD0BC460D4F95
:1036A00038667A6600210023FFE7FFE7FFE77A6FBD
:1036B000386F67467047002801D00748010000B501
:1036C0000FF0EEFF0022002300BD02000B000020DF
:1036D00000217047000000D0FFFFFFFF002B00D04B
:1036E000BFE0130C28D1002AE7D080B4114F39660F
:1036F0007A66FFE7FFE730B4040C7B6F396F1B0479
:1037000023433B667A66FFE7FFE7FFE7C04684B2E4
:103710007B6F3D6F1B0423433B667A66FFE7FFE741
:10372000C04600232C042D0C7A6F386F00196941B4
:10373000B0BC7047000000D0F0B594460025140ED0
:1037400001D112020835140F01D112010435940F72
:1037500001D192000235D40F01D152000135D40BB2
:103760000134254F7C66254C3C660E0C93B2FFE776
:10377000FFE7FFE73C6F6643360C7703BE467343B3
:10378000DF0B5B04C01AB941130C7343DB18C91A71
:10379000CE086643360CB64493B273431F0F1B0129
:1037A000C01AB941130C73431F0B1B05C01AB94152
:1037B000860D8F023E436643360C092D24DB520AE8
:1037C0007243801A7703460A6643360C16235B1B46
:1037D000DE40DF40BF1964466643821B70460435F5
:1037E00006330100D940A840C01900D30131A242DC
:1037F00006D20023F0BD0000000000D0FFFFFFFF55
:10380000121B0130F3D3F1E709277F1BFE4064460A
:10381000A2B27243801A00D20139220C7243130CF7
:103820001204821A99410B007046043513370100C7
:10383000F940A840801900D30131002B02D1A242E7
:103840000AD2F0BD013000D30131121BFAD2013B84
:10385000F8D1A24200D2F0BD013000D30131121BD9
:10386000F7E7F0B51C0C00D080E00CB400251C0A72
:1038700004D11B02160E3343120208351C0B04D16F
:103880001B01160F3343120104359C0B04D19B001E
:10389000960F334392000235DC0B02D192185B4144
:1038A00001351C00971864410134464F7C66464C34
:1038B0003C660E0CFFE7FFE7FFE7C0463C6F664340
:1038C000360C7703BE4697B27743C01B00D201394E
:1038D000C01B00D201399FB27743C91BC91B170C0B
:1038E00077437E04FF0B801BB941CE086643360C3C
:1038F0000C2D33DBB644120B1F053A431B0B97B25A
:103900007743C01B00D201399FB27743C91B170C04
:1039100077433E043F0C801BB941860D8F023E4326
:10392000664329277F1BFE400C3D7746AF40BF19F9
:1039300030BCA2B2ABB272437343801A9941220CDD
:103940007243130C1204801A994102000B000137D4
:10395000001BA941F9D2781E0021F0BD0C277F1B66
:10396000FE4077467F0BAF40FF19E0E700245D1C67
:1039700007D0144F7D663966FFE7FFE7FFE7FFE7F3
:103980003C6F95B29EB265436643401BB141150C36
:103990001E0C6543664336042F0C3E432D04401B2A
:1039A000B141994204D202000B0020000021F0BD79
:1039B00001D19042F7D3801A994101349942F2D350
:1039C000F6E70000000000D0FFFFFFFF4840414045
:1039D000484018B41B4B5B68FC46019308BD04DFEC
:1039E000A73C001018B4174B1B68FC46019308BD98
:1039F00000DFB13C00109446134A926F920809D23E
:103A0000624618B40F4BDB68FC46019308BD0CDF1F
:103A1000693F00100C4AF0B5146E556E576F166F63
:103A20006246FFF7EEFF084A146655665767166749
:103A3000F0BD18B4034B9B68FC46019308BD08DF3A
:103A40000D3E0010785A0020000000D0FFB5504015
:103A50004240504059404B40594000E0FFB5154F9F
:103A60004C00640D03D0BC4204D10C0314D80020D8
:103A7000090D09055C00640D03D0BC4204D11C0390
:103A80000AD800221B0D1B0501264B4009D44B40D0
:103A900003D58B4200D18242FFBD9942FCD19042B6
:103AA000FFBD0B43DB1803431343F5D0C94349184B
:103AB000FFBD0000FF07000000B5FFF7CFFF80410A
:103AC00000BDC04600B5FFF7C9FF01D9002000BD09
:103AD000012000BD00B5FFF7B9FF01D9002000BDEE
:103AE000012000BD00B5FFF7B1FF804100BD0120FE
:103AF00040054A00121804D85A00121801D80020B4
:103B00007047012070470020704700000021002806
:103B100005D17047C1174840401AFAD0C90713B5FC
:103B2000064B1B6898470CBC441CA2401005120BA6
:103B30000349091B09051943114310BD985B002077
:103B40001F04000010B54C00620D8023D218DB006A
:103B5000D21A5B057E2A10DD9E3A13DACC170903D0
:103B6000490819435242D140640001341532202AD9
:103B700005DAD0400843604310BD002010BD084660
:103B8000604310BDC80FC018013810BD18B4044BF5
:103B90005B6AFC46019308BD24DF19410010000058
:103BA000785A002070B513231C78012C14D0012CF6
:103BB00014DC022C02DC1F4B1F4A93641F48FFF7E2
:103BC00071FC1F4B186070BD1A491B4A9800815048
:103BD00001331F2BF8D9EAE70023FAE71948FFF76A
:103BE00069FC05001848FFF765FC023803789B0064
:103BF0007F2B19DD10488022290000F0B3FC022C35
:103C0000D7D1124B1A88B5231B029A4209D1104B07
:103C10001A88104B9A4204D10F4B1A880F4B9A42C4
:103C2000C7D00020FEF76EF90D4B0E4A0E48322128
:103C3000FEF7CEF86D3C0010785A00204C3300009F
:103C4000985B0020534400005346000054380000A5
:103C5000D8380000494600009C3800005946000052
:103C600030440110D84401109044011007B560465B
:103C7000002800D100BE01880A0A0230DF2AFAD1EA
:103C8000C9B2820804D3028840880004104300E0CF
:103C90000068024A5050039007BD0000785A002087
:103CA0000FB403BC0CBCF0B50124E407634000E092
:103CB000F0B50C0DCF0F661E3605891B640503D3C6
:103CC000C943404200D30131640D03D0661CF60A9B
:103CD00007D0E41B00207F00791C89078912803CF3
:103CE00024031D0DDF0F6E1E36059B1B6D0503D3D0
:103CF000DB43524200D301336D0D03D06E1CF60A34
:103D000007D0ED1B00227F007B1C9B079B12803D90
:103D10002D032F1B661B58D4A446202E46DA2037CD
:103D20001400BC401D00BD40F24033412A438018BE
:103D30005941CB0F05D0C943C043002264425041D2
:103D4000514162464D0D28D10D0D07D100281FD0DD
:103D5000241940414941013A0D0DF9D0640006D3C0
:103D6000013000D30131002C01D140084000013A5C
:103D70000BD4941CE40A04D112051144DB07194446
:103D8000F0BDD907204B194300E0D9070020F0BD52
:103D90000029DDD1002CDBD1F0BD0132C60740087F
:103DA000CD0728434908002EE1D0D9E73C2E29DA77
:103DB000203E40371400BC4000D00124F2401443A0
:103DC0001A00BB401C43D317ACE7AC46202F08DADF
:103DD00020360400B4400D00B540F8403941284376
:103DE000A5E73C2F0CDA203F40360400B44000D059
:103DF0000124F84004430800B1400C43C117EAE72E
:103E000010001900002494E70000F07FF0B50C0DBD
:103E1000661E3605891BE60A6405640D02D0651C22
:103E2000ED0A04D0002001210905803C2403A446AA
:103E30001C0D671E3F05DB1BE70A6405640D02D0FD
:103E4000651CED0A04D0002201231B05803C2403DD
:103E50007740644497B484B296B27443070C7E43AF
:103E6000150C6F4380B26843361802D3012000045A
:103E70003F183004350C00197D41844688B29AB24F
:103E800050430C0C62431F0C7C438EB27E4392194C
:103E900002D301263604A4191604170C36186741FC
:103EA00001BC81B29AB25143040C62431B0C5C43C7
:103EB00080B25843121802D30120000424181004C1
:103EC000130C401863412D185E410020474106BC89
:103ED00088B293B258430C0C6343120C544389B21A
:103EE00051435B1802D301210904641819041A0C08
:103EF000091862416D1856410020474118BCF9026B
:103F0000720D1143F0026A0D1043ED020A0D03D148
:103F10006D1940414941013B124E9B1B7600B34253
:103F20000ED26D0007D3013000267141664635433D
:103F300001D1400840001B05C918E4072144F0BD29
:103F40000BDA013306D1013004D101314F0D01D01C
:103F50004908F2E7E1070020F0BD013631050020F5
:103F6000EBE70000FF030000F0B51C0D671E3F05E6
:103F7000DB1BE70A6405640D02D0661CF60A04D058
:103F8000002201231B05803C2403D0252D0600269A
:103F9000F6432E661E096E66CE0FF619B44649002A
:103FA0004F0D02D07E1CF60A03D000200021403FB6
:103FB0003F033E1BB600B444013F7F05C91B4908BF
:103FC0002E6F013676089C02950D25437543ED133F
:103FD0007543AD1301356D10F603761B0CB4CC029E
:103FE000450D2C43A2B2B3B25A43270C7B43350C88
:103FF0006F43A4B26C431B1902D3012424043F195C
:104000001C041D0CA4187D4124196D41009A91B225
:10401000ACB26143170C7C432B0C5F4392B25A4302
:10402000A41802D301221204BF182204230C521830
:104030007B41019C6C431B19520ED9010A43440178
:10404000A01A81B2B2B2514303145A43360C7343DF
:1040500087B27743D617D21900277E4136049B19C1
:104060001704160C7F185E417316ED18F301002635
:1040700080337541A90F06D16400690AE8055B0A1F
:10408000184309D22FE00422944480337541A90AD1
:10409000A8059B0A184326D3404149412404009AAD
:1040A000019B0D005543641B4343E41A95B286B24D
:1040B0007543170C7E43030C5F4392B25A43B61804
:1040C00002D301221204BF183204330C52197B416F
:1040D00052429C41002C02D4002201305141400840
:1040E000CA071043490802B06246D7079210084B2E
:1040F000D218084B9A4203D212058918C919F0BD8B
:104100000020002A01DC3900F0BD01331905F5E774
:10411000FD030000FE070000002200B5203200F081
:1041200004F8080000BD000000220B150AD410B5E9
:10413000944600F031F81414013400DA0021CB1752
:10414000144C20470020002170476244343A0CD4BC
:104150000C2A07DA04009140904052422032D440A9
:10416000214310BDD843D94310BD203207D40C469B
:104170009440524220321141D040204310BD0800EB
:10418000C917203203D452422032104110BD18000A
:10419000190010BD4B4100100A0DCC0F531E1B051A
:1041A000C91A520503D3C943404200D30131520D0D
:1041B00003D0531CDB0A07D0121B00206400611CD3
:1041C00089078912803A1203014BD21A7047000006
:1041D000FF03000051434343C9188C46110C83B2BE
:1041E0004B4310B4040C614392B280B2504362431B
:1041F0001C041B0C001910BC59411304120CC018EC
:10420000514161447047000048404140484000230C
:104210009C46114B5B68184700239C460E4B1B685D
:1042200018470E4A936F9B0804D200239C460A4B02
:10423000DB681847F0B5146E556E576F166FFFF7B1
:10424000F4FF064A1466556657671667F0BD0023EB
:104250009C46014B9B6818479C5B0020000000D0E7
:10426000491A002808D1084670470000C10FC90745
:1042700000D54042002817D0F44603B40B4B1B680E
:10428000984706BC81409E384042803107D20B06D9
:1042900007D04900490AC005104308436047013070
:1042A000F8E7490A8902F5E770470000985B0020AB
:1042B00041000A0E80231B067E2A0BDD9E3A0BDA94
:1042C000C1174002400818435242D0404900013112
:1042D0004843704700207047C00FC018013870472E
:1042E000C0420DD300B540004008002100F012F894
:1042F000002801D4404200BD8020000600BD00001F
:10430000034BDB69FC4618471CDF554400100000D6
:104310009C5B002000239C46014B5B6A1847000011
:104320009C5B002070B513231E782A48FFF7C2F863
:104330000500012E11D0012E09DDAB1E1B789B005C
:104340007F2B40DD24488022290000F00BF9234810
:10435000FFF7A8F8224B186070BD1F4854222900AF
:1043600000F000F91F4B1A881F4B9A421CD1A7235B
:104370009B011A881D4B9A4216D11D4B1A881D4B62
:104380009A4211D11C4B1A8894239B019A420BD15B
:104390001A4B1A881A4B9A4206D11A4B1A681A4BB2
:1043A0009A4201D1152307E01848FDF7ABFD184CE0
:1043B000094A99008C5001331F2BF8D9144B064A37
:1043C0001362D361B7E7134B134A14484221FDF738
:1043D000FFFCC046534600009C5B00204C330000AD
:1043E000985B0020EE290000C40F0000C20D000001
:1043F000962B0000C0B50000182B0000CC2A00004E
:1044000010B50000FC2C000051ED876484520110AF
:1044100021440010EC4401106845011020450110B2
:1044200007B56046002800D100BE01880A0A0230A4
:10443000DF2AFAD1C9B2820804D302884088000476
:10444000104300E00068024A5050039007BD00008E
:104450009C5B00200021C2158032803201D0024ACC
:104460001047002070470000CD2A000070B50400FE
:104470000A4E30000FF02CF920000DF095F90500E0
:1044800030000FF005F9002D05D02C19044B9C428B
:1044900001D8280070BD0348FDF734FD740C0020DE
:1044A000000004207C45011070B505000C000B4E87
:1044B00030000FF00DF9210028000DF081F8050003
:1044C00030000FF0E5F8002D05D02C19044B9C426C
:1044D00001D8280070BD0348FDF714FD740C0020BE
:1044E000000004207C45011070B505000C000B4E47
:1044F00030000FF0EDF8210028000DF0C9FC050098
:1045000030000FF0C5F8002D05D02C19044B9C424B
:1045100001D8280070BD0348FDF7F4FC740C00209E
:10452000000004207C45011070B50400054D2800F2
:104530000FF0CEF820000DF041F928000FF0A8F898
:1045400070BDC046740C002001480421014B18477F
:1045500080030020C5340010014B1B681847000081
:1045600080030020014B5B68184700008003002097
:1045700010B50300080011001B68984710BD10B566
:104580000300080011001B68984710BD70B50500B6
:104590000368002B16D00C4B1C6805E0290004C9E9
:1045A0002000FFF7ECFFE468002C09D02368002B03
:1045B000F9D0064B1B68002BF0D0A342F3D1EDE7F6
:1045C00000232B6070BDC046145900202C590020D8
:1045D00070B505000C000B68802B05D023685A1CB1
:1045E0002260E418257170BD0800FFF7CFFFF5E7E2
:1045F000F0B583B007000E000092019328E0A36895
:10460000002B04D0310038009847002827DCE468EC
:10461000002C06D0134B1D68002DF0D0A542F6D11A
:10462000EDE70099019A104B5B6A9A4209D80E484F
:10463000806A88420FD29A4201D0012302E000230F
:1046400000E00023002B08D101200021FDF778F8BD
:10465000064B1C68DCE70123F4E70120404203B06D
:10466000F0BDC0462C5900200040054014590020E0
:1046700010B582B0D0231B0600241C57074801A99F
:104680000FF01EF8002806D1019B9C4203D003487E
:104690000FF01EF8012002B010BDC0467C0C0020B7
:1046A00010B502480EF0F4FF10BDC0467C0C00208F
:1046B000F0B5CE46474680B583B006000D00904663
:1046C0001C00FFF7D5FF81466B1C05D0002C08D0DD
:1046D000194F1A4B1C6807E030000DF057FE05001B
:1046E000F4E7174FF5E7E468002C17D02368002B98
:1046F000F9D0144B1B68002B01D0A342F3D12A0040
:1047000031002000B8474346002BECD06B46D91D42
:104710000A230B7001222000B847E4E74B46002B28
:1047200007D16B1E9D41E8B203B0C0BCB946B0468C
:10473000F0BDFFF7B5FFF4E77145001014590020F4
:104740007F4500102C59002010B50300080011000F
:10475000002B05D1044B1A685B68FFF749FF10BDB9
:1047600001204042FBE7C046603D011010B5030048
:1047700008001400013B012B06D800230022210071
:10478000FFF796FF200010BD01204042FBE700002C
:1047900010B5064B1C6801E09847E468002C03D074
:1047A0006368002BF8D1F8E710BDC046145900200B
:1047B00070B505000DF0EAFD0400002301220100A0
:1047C0002800FFF775FFFFF7E3FF200070BD000032
:1047D00070B5A2B004000E00FFF74AFF0500842266
:1047E000002101A8FFF7B8FE09483300220001A903
:1047F000FEF740FE040001A8FFF7C8FEFFF7C8FF60
:10480000002D02D1200022B070BDFFF749FFF9E76B
:10481000D14500100FB400B583B004A901C90191BE
:10482000FFF7D6FF03B008BC04B0184710B5024824
:1048300000F004F810BDC046545A002070B588B08E
:10484000040004AD002604960922002105A8FFF704
:1048500083FE00960922002101A8FFF77DFE4B236D
:104860002B700D22694628000EF00AFF002304E099
:104870005A1D69468A5CE2540133072BF8DD08B003
:1048800070BD03BD10B50400FCF704FAA04710BDCD
:10489000D0231B061B6D9B07FAD5D0231B0658653A
:1048A00040BF704700E020BFD0231B061B6DDB0715
:1048B000F9D5D0231B06986D70470000064B802267
:1048C00052021A60054B1B68DB03FBD5044B8022A8
:1048D00052021A607047C0460420014004000140A3
:1048E00004300140F0B587B004000D0017000F2020
:1048F000FCF730F8060000210F20FCF747F80023F2
:1049000000930193013302930397049505940025C6
:1049100000E00025AB006A469C58002C12D0200015
:10492000FFF7B6FFFFF7BEFF8442F2D10135052D38
:10493000F0D931000F20FCF729F807B0F0BDD023E3
:104940001B069B6DD0231B061B6DDB07F7D440BFF6
:10495000E5E7000010B50B00910711D103218A4350
:104960009A1811000C390860100008380360074BD2
:10497000043A1360064B9A680648FFF7B3FF10BD70
:10498000054B064A06486E21FDF722FA85480010BD
:1049900000ED00E083480010C4470110E04701101B
:1049A0007C47011010B5064B064A934205D3190007
:1049B00080221201FFF7CEFF10BD01214942F7E727
:1049C0000008042000000420020010B5014B12CBA7
:1049D00012C210BD20480110F0B5574645464E465C
:1049E000DE46E0B5ABB09846349F25AB0400180016
:1049F0000E0015009A4605F0BDFF002F00D1EEE035
:104A0000380001F0CBF9002800D1E8E0002E00D1F9
:104A1000E5E0002D00D1E2E0002C00D1DFE063688A
:104A20009B46642399465B46002B00D0D9E0434661
:104A3000002B00D1D3E0404605F09EFE06900028F2
:104A400000D1D6E05B460022300024A9249301F077
:104A50001DFC8146002800D0C3E02498002800D027
:104A6000ECE028000DF092FC002800D0C4E07D4D61
:104A70000022280024A901F0EBFB8146002800D089
:104A8000AFE006902498002800D0DCE07820396957
:104A90003B68984781466060002800D1CBE0002346
:104AA00000228266C366026743670AA800F058F9CD
:104AB0000AA968224846FFF755FD43463800616859
:104AC000236000F05BF900285DD128000DF05EFC4A
:104AD0002818013803782F2B00D1B9E063680496B9
:104AE0009946614B0395029380231B0101933B6917
:104AF00000937968BA68FB68386801F0B1F94B46F1
:104B0000586763682A00994623683100186828307E
:104B100001F0AEFC4B4698666368986E002835D06D
:104B200001F050FD079000282DD0636808209946B9
:104B300039693B6898474B46D8666368DA6E934696
:104B4000002A23D008AB9946180005F08FFE4A468C
:104B50005B4603CA03C353463A0043CA43C303CA6E
:104B600003C36368DA6E26AB94466A4643CB43C2FE
:104B70001B6860461360259B4246079905F07EFE40
:104B80008146002823D06368002B1BD0586F002873
:104B900003D07B68396998476368986E002802D013
:104BA00001F07CFC6368D86E002807D005F0BEFEDB
:104BB00063683969D86E7B689847636818003969FB
:104BC0007B68984700232360636001339946069B06
:104BD000002B06D0280039697B68984701E00B2339
:104BE000994648462BB0F0BCBB46B246A946A04603
:104BF000F0BD65239946F4E72B782F2B00D137E7DA
:104C00001A4B0395029380231B0101933B69009388
:104C100038687968BA68FB6801F022F9051E1DD072
:104C20000023002224A9249301F012FB81460028CE
:104C300000D127E7CEE70A239946C8E701F078FBC1
:104C4000C9239946CDE701F015FBCA239946BEE773
:104C50006368049699460395054B44E70A239946F1
:104C6000BFE7C04608480110184801100C48011061
:104C700010480110F8B5041E24D04368002B1FD043
:104C8000986E5E681F6901F009FC63680500D86EC4
:104C900005F04CFE05436B1E9D4163683900D86EDC
:104CA000B04763683900186FB04763683900586FC0
:104CB000B04739006068B047002363602800F8BD42
:104CC0000025FBE7C825F9E7002807D04368002B3B
:104CD00004D0986E431E9841C0B270470020FCE794
:104CE00010B5002809D04368002B06D09B6E002B1E
:104CF00003D0006805F040FD10BD0020FCE7C04671
:104D0000002807D04068002803D0806E002800D01B
:104D1000806870470020FCE7002807D04068002822
:104D200003D0806E002800D0C06870470020FCE7E8
:104D3000002808D04068002804D0836E5A1E934192
:104D40005B42184070470020FCE7C046002804D0B2
:104D50004068002800D0806E70470020FCE7C04605
:104D600010B5040068220021FFF7F6FB200001F0D7
:104D70000BF801232000237510BDC04670B5040058
:104D80000D00002813D0002911D088420FD0010057
:104D900014222800FFF7E6FB28002100A38A5022F6
:104DA000AB8218301831FFF7DDFB002070BD0B20FF
:104DB000FCE7C046014B18687047C0462848011000
:104DC000F0B5454657464E46DE46E0B589B0129DE1
:104DD0000400894690461F00002D67D050239A4654
:104DE000AA44504600F0DAFF00285FD0002C5DD0C6
:104DF000236864269B46002B07D0300009B0F0BC26
:104E0000BB46B246A946A046F0BD4846FFF768FF3C
:104E100000284DD04346002B48D0002F46D05B469B
:104E2000079307AB05935B46049303932B006A46F5
:104E3000583343CB43C25346390048462A6D5B681A
:104E400005F0B4FF00284CD1C820296E2B6D98477F
:104E5000206000284CD04846FFF778FF2B006433D1
:104E60002668079A009341462B0001F025FCC422D6
:104E70002368B050985800282BD07033190001F0E7
:104E800027FD061E16D148232468EA5C7033E254DD
:104E9000290070222000FFF765FB4B461A68C023EB
:104EA000E250296E6B6D07989847A6E70B26A4E79A
:104EB000C826A2E72368002B11D0C4269A59002ADD
:104EC00007D04846FFF742FF2368995901F002FDD9
:104ED00023681800296E6B6D984700232360012614
:104EE000DFE703000222673B934303D00A28F6D191
:104EF0000A26D6E76726D4E7F0B5C64604000D00BB
:104F000000B5002821D00800FFF7DEFE00281FD0E2
:104F100023680026002B14D05F6D1B6E2800984676
:104F2000FFF714FF002815D0C4232268D15801F0E0
:104F3000D1FC431E9841414606002068B847002333
:104F40002360300080BCB846F0BD96267600F8E7B6
:104F5000C826F6E70B26F4E770B5114E88B050224C
:104F60001049050002AC3000FFF7FCFA200000F009
:104F70000BFF3300503307CC07C306CC06C36C4687
:104F8000200001F00FF93300643306CC06C328007B
:104F900070223100FFF7E6FA280008B070BDC04665
:104FA0008052002030480110F8B504000D001600B2
:104FB000002819D00368002B16D0C427DA59002A1C
:104FC00012D0C022985805F0D7FB00280CD02368D7
:104FD000D859002808D0002D09D03200290001F04E
:104FE000FFFA431E984101E096204000F8BD0B20D7
:104FF000FCE7C04670B5041E12D00368002B0FD02A
:10500000C4255A59002A0BD0C022985805F0B4FB89
:10501000002805D023685859431E9841C0B200E0CB
:10502000002070BD002808D00368002B05D0C422E2
:105030009858431E9841C0B270470020FCE7C04614
:1050400030B50C0085B000283BD003780A2B3AD845
:105050001E4A9B00D3589F460A6A436B9B009B588D
:105060005A1E934139228354002005B030BD0A688E
:10507000F3E78A69F1E78A68EFE70A69EDE74068D4
:10508000050003000200010043350295423001355E
:1050900000904133200040321031019507F00CFBA5
:1050A000E3E74068050003000200010023352230D9
:1050B00000902133200020321031019507F050FD7F
:1050C000D3E70B20D1E70120CFE7C046804801108D
:1050D000F0B5C64600B504009AB0002800D181E0C2
:1050E00003780A2B00D950E1A94A9B00D3589F4668
:1050F00020234068C35C002B00D0A5E02223C35CC2
:10510000002B00D0D1E02123C35C002B00D06BE04A
:10511000002528001AB080BCB846F0BD436B0A6A6F
:105120009B009B58002BF3D001008268103140682F
:1051300005F0E8FF051EEBD0964B984212D027E011
:10514000436B0A689B009B58002BE1D081680023C9
:1051500040680AAA06F036F8051EDAD09223FF331B
:10516000984215D139230022E254D2E7436B8A6971
:105170009B009B58002BCBD0010082681031406807
:1051800005F09AFA051EC3D0F623FF339842C0D02B
:1051900000F04AFEBDE742234068C35C002B6CD19F
:1051A000C369002B03D04023C35C002B3BD14423B5
:1051B000C35C002B00D092E04323C35C002BA7D03C
:1051C000C26A0AA9103007F02FF9051EE0D10E9A25
:1051D0000F9B606807F0EEFD00289AD02323012280
:1051E000C25496E70B2594E710300AAA04A907F0E9
:1051F000D3FB051ECCD160680AA907F08FFD061EFF
:1052000000D1ACE008200121305607F01FFD070057
:10521000032800D096E030001822583004A9FFF788
:10522000A1F9377275E7816A103007F089F9051E18
:10523000AED16068816A07F071FD002802D0222398
:105240000122C2546068B2E707F03CFD061E6068A8
:1052500000D153E731007060F2691030283107F057
:10526000CDFA051E00D089E030001022F169093026
:10527000FFF778F93572606840E7103004AA0AA990
:1052800007F050F8051E00D082E70E9A0F9B606869
:1052900007F07EFD002806D020230122C2546B4671
:1052A0001A7C2123C25460687AE7103004AA0AA944
:1052B00007F028FB051E00D06AE7606804A907F024
:1052C0002DFD051E06D0182240300AA9FFF74AF925
:1052D00002232B72222300226068C25413E70200CB
:1052E0000AA93032103007F0E5F8051E00D04FE76C
:1052F0000E9A0F9B606807F06FFD061E3CD00123DD
:1053000083846068836B002B00D155E7252300253B
:1053100098460127436B69009C464919C9006144BE
:1053200007F0FCFC002807D043466068F754836B05
:105330000135AB42EED83FE760680135836BAB4285
:10534000E8D839E7646806A910226846FFF70AF929
:1053500003212000049A059B07F0B2FDD9E664689A
:1053600006A910226846FFF7FDF802212000049AE2
:10537000059B07F0A5FDCCE660681DE7310060687D
:1053800007F0B2FC00F050FDC3E60125C1E6C046BF
:10539000AC48011059020000F0B5C64600B50278CD
:1053A000040084B00A2A00D93BE19F499300CB58FE
:1053B0009F46062A00D12CE1072A00D022E1C26ACA
:1053C000816A25008068236B98471035A26A60685F
:1053D000290005F0CFFE040075E0A068236B984714
:1053E0000024200004B080BCB846F0BD42234068D1
:1053F000C35C002B00D1A7E020230027984621267C
:1054000007F0FCFC051E00D19DE04346EF546368A5
:1054100028009B69A95DE26A9847AB5D002B5FD0CD
:10542000280007F033FC00285AD101232B72606852
:10543000E6E724234068C35C002B1ED12023C35C15
:10544000002B5ED0794E002107F082FC051E55D05E
:10545000636828009B69E16A9847B04246D0002102
:10546000280007F0EBFC6068290007F03DFC60684D
:10547000E9E7486807F038FC606807F079FC011E2E
:10548000F7D124236068C154D8E7036B9847002400
:10549000A7E73923C35C002B9FD1036B00209847FB
:1054A00000249EE73923C35CC16A002B13D1036B30
:1054B00000209847002494E7406805F07DFF5C4B8E
:1054C00004009842E3D0002C00D18AE700F0ACFC45
:1054D00087E701001031A068236B9847002480E71C
:1054E0006068290007F000FC606889E70121280056
:1054F00007F0A4FC01232B726068A4E720236068F6
:10550000C5542123C35C002BC1D0C568002D15D024
:105510002526022702E02D68002D0FD00823EB5628
:10552000032BF8D1C369E16A28009847A8550028E1
:1055300057D0280007F0A2FC6068ECE72123002286
:105540000024C2544DE760684023C35C002B13D095
:10555000C568002D2BD022260027AB5D002B08D07C
:10556000C369AF55002B04D0816AE26A28009847CE
:1055700060682D68002DF0D14423C35C002B16D049
:10558000C568002D13D02523242600279846AB5D3F
:10559000002B09D0436AAF55002B05D042462800A6
:1055A000A95CE26A984760682D68002DEFD143231B
:1055B000C35C002B00D16AE7232700260BE0636859
:1055C0002800D96AE26A1B6AEE559847606829008C
:1055D00007F08AFB606807F021FC051EEFD100246C
:1055E000FFE6636829009846102260316846FEF79E
:1055F000B9FF01214046AA6DEB6D07F061FC2F72E7
:10560000606888E72500816A236B806898471035B9
:10561000DCE605001035826A29008068236B984714
:10562000D4E60124DDE6C046D84801103408000065
:1056300021030000F0B5C64600B5002836D0002989
:1056400034D0020003004420844601380024804600
:105650002427383207E05078002813D10134403332
:105660004032A14222D0107800280BD01D78082D9E
:105670000BD0092DEFD15D682E6A002E02D1E85DB6
:105680000028EBD080BCB846F0BD5E68356C2D02BA
:10569000F8D16046305C0028F4D14046305C0028E8
:1056A000F0D1013440334032A142DCD10020E9E79F
:1056B00010B5040088220249FEF754FF200010BDF7
:1056C00030490110F0B505000F0016001C00B1B004
:1056D000002849D0002947D0180000F05FFB0028BF
:1056E00042D0002E40D0882223490EA8FEF73AFF70
:1056F00088220EA92800FEF735FF68462F60AE60AD
:1057000005F0DEFF2800342269461430FEF72AFF38
:1057100000231A4A2169AA66EB662C612368B0014E
:1057200098476860002824D0002400E06868A3013E
:105730003100C018013400F04BFAA642F6D128001F
:10574000483000F039FA0E4B6A68AB670023EB670C
:10575000002A0CD02A69002A09D0AA68002A06D09B
:1057600080220020AB5400E00B2031B0F0BD0020BF
:10577000FBE70A20F9E7C0463049011000CA9A3B0E
:1057800035560010F0B5C64600B5040098B00028A4
:105790003AD006001436300005F09CFF00250028A2
:1057A00004D0280018B080BCB846F0BD300005F029
:1057B0009BFF002825D104AF3D000AA805F080FF1B
:1057C00034220AA93000FEF7CDFEE36C20699C4626
:1057D000236EA16C98468CC88CC50CC80CC520687B
:1057E00063460390606E42460290606D0190206DAA
:1057F0000090300006F0B0FA051ED2D000F014FB85
:10580000CFE700F011FBD6E70B25CAE7F0B5DE467F
:1058100057464E4604004546E0B5260083B0143690
:1058200093469A46FFF7AEFF300006F03DF8071E9C
:1058300000D001E1A3680025002B21D03823984631
:10584000BD4B99466268AB019446424663449A5CFC
:10585000002A15D01A780A2A00D9E2E049469200B7
:105860008A5897461A0030005968343206F096FB81
:105870000190002800D096E0A36801359D42E1D355
:1058800053465A46300006F0B9FB8023E35C002BF8
:1058900000D1D6E0012B00D0C3E00023A168002591
:1058A0009846002900D14FE1383399469223FF33BF
:1058B0009A460EE03100FFF7C3FB051E02D05045AB
:1058C00000D0BCE001239C46A168E044884500D399
:1058D0003AE1424690014A4663681818825C002A01
:1058E000E8D11800E26FA36F9847002800D1A6E026
:1058F0000022A3689046002B00D1A0E038329146E8
:105900009222FF3292460DE03100FFF7E1FB051EC7
:1059100002D0504500D092E001239C46A368E044A9
:10592000984508D242469001626894464A466044CF
:10593000825C002AE8D10026002B00D17FE03822CB
:1059400090460C329146013A92460EE00278082ABF
:1059500000D106E1092A00D1F8E03922825C002A50
:1059600010D101369E425FD200256268B001944694
:1059700042466044825C002A61D04278002AE5D029
:10598000012AEED1FFF708FD002800D0BBE0A36894
:10599000E7E71A0030005968343206F0CFFA019078
:1059A000002800D168E700F03FFA019F3CE01A00B0
:1059B00030005968343205F047FF0190002800D1CB
:1059C0005AE7F0E71A0030005968343206F080FADE
:1059D0000190002800D14FE7E5E71A003000596830
:1059E000343206F045FA0190002800D144E7DAE7A6
:1059F0001A00596830003432103107F053F8019022
:105A0000002800D138E7CEE71A005968300000239B
:105A10003432103106F0DCFD0190002800D12BE774
:105A2000C1E700F001FA0127380003B0F0BCBB4623
:105A3000B246A946A046F0BD00F0F6F9F4E72F0003
:105A4000F2E70023A1680025984600297AD0383370
:105A500099469223FF339A460CE03100FFF7F0FAA3
:105A6000051E01D05045EAD101239C46A168E044BF
:105A7000884567D2424690014A4663681818825C9E
:105A8000002AEAD11800E26FA36F98470028D6D009
:105A900000239846A368002BD1D038239A4692233E
:105AA000FF339B460FE00378082B37D0092B2CD00F
:105AB0003923C35C002B22D101239C46A368E04418
:105AC0009845B1D2002543469B01994653466068EC
:105AD0004844C35C002BB2D03100FFF7F9FA00282C
