:020000041000EA
:1000000000B5324B212058609868022188439860DF
:10001000D860186158612E4B002199600221596106
:100020000121F02299502B49196001219960352056
:1000300000F044F80222904214D00621196600F024
:1000400034F8196E01211966002018661A6600F04E
:100050002CF8196E196E196E052000F02FF8012189
:100060000842F9D1002199601B49196000215960AB
:100070001A491B48016001219960EB211966A021F2
:10008000196600F012F800219960164914480160C1
:100090000121996001BC002800D000471248134993
:1000A000086003C880F30888084703B5996A0420EC
:1000B0000142FBD001200142F8D103BD02B5186610
:1000C0001866FFF7F2FF186E186E02BD00000240BE
:1000D000000000180000070000035F00212200005C
:1000E000F4000018222000A00001001008ED00E03C
:1000F00000000000000000000000000074B24E7A12
:1001000000200420F7010010C3010010C5010010F9
:10011000C1010010C1010010C1010010C101001097
:10012000C1010010C1010010C1010010C701001081
:10013000C1010010C1010010C9010010CB01001065
:10014000CD010010CD010010CD010010CD01001037
:10015000CD010010CD010010CD010010CD01001027
:10016000CD010010CD010010CD010010CD01001017
:10017000CD010010CD010010CD010010CD01001007
:10018000CD010010CD010010CD010010CD010010F7
:10019000CD010010CD010010CD010010CD010010E7
:1001A000CD010010CD010010CD010010CD010010D7
:1001B000CD010010CD010010CD010010CD010010C7
:1001C00000BE00BE00BE00BE00BE00BE00F04BF888
:1001D000103800BEF2EB887134CC011050CC011005
:1001E0003402001090A31AE700202149086006C8D5
:1001F00081F3088810471F48006800282FD10DA4FC
:100200000ECC002902D000F012F8F9E71A491B4A77
:10021000002000E001C19142FCD1194988471949E9
:1002200088471949884700BEFDE701C901C29A42C3
:10023000FBD3704750CC0110C0000020801A002072
:1002400010E60110000004200000042010E6011058
:1002500000100420001004200000000070470B482C
:1002600004F0E4FB0047EFF30580C0B270470000E4
:1002700008ED00E0000000D0801A0020A4750020E6
:10028000953300104D0D00105133001057560000EB
:1002900006005250ABB36053ECAE01100600525052
:1002A000861C0302FCAE0110060052505422A29D8F
:1002B00010AF011005005250DE65F46810E6011021
:1002C000F8B5C04606480749091A8B10C90FC91866
:1002D00010B5491003D0044B002B00D0984710BD37
:1002E000801A0020801A002000000000054B10B585
:1002F000002B03D00449054800E000BFFFF7E2FFF0
:1003000010BDC04600000000586F0020709C011016
:100310000120704710B504000848210017F05CF96F
:100320000748210017F058F90648210017F054F942
:100330000548210017F050F910BDC046906F00200D
:10034000CC6F0020E06D00201C6E002010B504482A
:1003500017F029F8034817F026F8012010BDC04611
:1003600008700020586E002000B583B0002818D017
:1003700001290AD0022917D0002901D0012011E05B
:10038000002000F071FA01200CE0084A084900231F
:100390000193084B00931300022000F031FA002073
:1003A00000E0012003B000BD0020FBE7709C0110BD
:1003B0007C9C0110889C0110F8B5DE4657464E46DD
:1003C0004546E0B502F04AFC002900DA94E000D18D
:1003D00098E0FA229200002304F0BEFBFA21890083
:1003E00004F078FB050002F039FC002900DA8EE009
:1003F00000D192E0FA229200002304F0ADFB6B01E1
:100400005B1B9B005B19DB00C01A43011B1A9C019C
:10041000E41AE4002418A40142490D2000F004FF6E
:10042000414B99465862414B9B464B465A469A610E
:100430003F4B9A464B4652461A62FE26B605DE618F
:1004400000271F751D605C603A4A0121002000F002
:1004500083FE394B984658625A469A6152461A6250
:10046000DE611F751D605C60344A0321022000F0CC
:1004700073FE334F78625B46BB6153463B62FE615D
:1004800000223A753D607C602E4A0521042000F070
:1004900063FE2D4E70625946B16151463162FE23B2
:1004A0009B05F36100223275356074602748494628
:1004B00009F0CEFA0121FFF757FF254800224146F7
:1004C00009F0C6FA0121FFF74FFF22480022390048
:1004D00009F0BEFA0121FFF747FF1F480022310053
:1004E00009F0B6FA0121FFF73FFF0120F0BCBB463F
:1004F000B246A946A046F8BD184B194A19483F21F3
:1005000002F02AFFFA21890004F0E4FA66E7134BAF
:10051000134A14483F2102F01FFFFA21890004F01A
:10052000D9FA6CE7489D0110486D00200000F041A9
:100530000000C8435C9D0110946600206C9D011072
:1005400034720020809D0110E46E0020706D002048
:10055000BC6600205C7200200C6F0020AC9C011077
:10056000C89C0110009D011070B502F077FB0029B6
:1005700000DAEAE000D1EEE0FA229200002304F073
:10058000EBFAFA21890004F0A5FA050002F066FBF7
:10059000002900DAE4E000D1E8E0FA22920000232A
:1005A00004F0DAFA6B015B1B9B005B19DB00C01ADD
:1005B00043011B1A9C01E41AE4002418A40100F072
:1005C00027FD00F055FD0378002B00D1D3E0764ADB
:1005D000764B5A62764A9A61764A1A62DA61012249
:1005E0001A751D605C604378002B00D1C6E06E4A2E
:1005F000714B5A626E4A9A616E4A1A62DA6101223E
:100600001A751D605C608378002B00D1B9E0664AE2
:100610006A4B5A62664A9A61664A1A62DA61012234
:100620001A751D605C60C378002B00D1ACE05E4A97
:10063000634B5A625E4A9A615E4A1A62DA6101222B
:100640001A751D605C600379002B00D19FE0564A4B
:100650005C4B5A62564A9A61564A1A62DA61012222
:100660001A751D605C604379002B00D192E04E4A00
:10067000554B5A624E4A9A614E4A1A62DA61012219
:100680001A751D605C608379002B00D185E0464AB5
:100690004E4B5A62464A9A61464A1A62DA61012210
:1006A0001A751D605C60C379002B00D178E03E4B69
:1006B000474E73623E4BB3613E4B3362F36101239D
:1006C00033753560746039494248002209F0C0F939
:1006D0000121FFF749FE38493F48002209F0B8F9E7
:1006E0000121FFF741FE35493C48002209F0B0F9ED
:1006F0000121FFF739FE32493948002209F0A8F9F3
:100700000121FFF731FE2F493648002209F0A0F9F8
:100710000121FFF729FE2C493348002209F098F9FE
:100720000121FFF721FE29493048002209F090F904
:100730000121FFF719FE2E480022310009F088F947
:100740000121FFF711FE012070BD2A4B2A4A2B48D8
:100750003F2102F001FEFA21890004F0BBF910E705
:10076000244B254A25483F2102F0F6FDFA21890055
:1007700004F0B0F916E7FF22D20529E7FF22D205DF
:1007800036E7FF22D20543E7FF22D20550E7FF22DA
:10079000D2055DE7FF22D2056AE7FF22D20577E79F
:1007A000FF23DB0584E7C046000080FF986C002033
:1007B0000000A04100004040C46C0020F06C00200C
:1007C0001C6D0020E4650020106600203C660020BF
:1007D00068660020C06C0020EC6C0020186D0020C2
:1007E000446D00200C6600203866002064660020FE
:1007F00090660020AC9C0110C89C0110009D011067
:10080000F8B506001D00154F154C606813000A006E
:10081000390004F0BBF8606818F080F8A060E5616A
:10082000280018F07BF82062069B2361180018F05E
:1008300075F860610023A362E3622670079B002BBA
:1008400002D0074B079A9A6205490648002209F030
:10085000FFF80021FFF788FDF8BDC046909D01100C
:10086000186C00204C6C002070B5314802F0E4F8A0
:10087000304802F0E1F8304802F0DEF82F4802F08C
:10088000DBF80121012016F0D7FB0121192016F019
:10089000D3FBD02424060223A36180239B04A361FD
:1008A000274816F0E2FC274816F0DFFC002000F095
:1008B00049FB012000F090FB8023DB04A3610121B0
:1008C000002016F0B9FB0126A6611F4D1F48290024
:1008D00009F0BEF90221FFF747FD1D48290009F084
:1008E0005FF80221FFF740FD1A4809F02DFE0221B2
:1008F000FFF73AFD280008F011FF0221FFF734FD51
:10090000154B1E702368002B0FD0D024240602261E
:10091000A6618025AD04A561642002F045F96661F9
:100920006561642002F040F9EFE706F0DFF9ECE7DB
:10093000C864002080650020D8610020E0640020A9
:10094000586E002008700020B0700020D86700208A
:100950004C6C0020F86400209F750020F0B583B037
:100960002F4B1B78002B26D1032820D000293AD109
:100970002C4B2D4D2D4C002701972D4E00962A0013
:1009800021000220FFF73CFF2A4B019700962A0026
:1009900021000220FFF734FF274B019700962A0021
:1009A00021000220FFF72CFF0020FFF75DFF002948
:1009B00003D001290CD003B0F0BD204C200016F06C
:1009C000EFFC01235840C1B2200016F041FCF2E7D1
:1009D0001B4C200016F0E4FC01235840C1B220005B
:1009E00016F036FCE7E7174B174D104C0027019720
:1009F0000F4E00962A0021000220FFF701FF134B43
:100A0000019700962A0021000220FFF7F9FE104B03
:100A1000019700962A0021000220FFF7F1FEC3E7AC
:100A2000A1750020989D0110AC9D01107C9C0110C7
:100A3000C09D0110E89D0110009E0110087000206B
:100A4000586E0020189E01102C9E0110409E01102F
:100A5000589E011010B50C000378002B08D00848F0
:100A600016F0FCFB074816F0F9FB0123237010BDBC
:100A7000034816F0FAFB034816F0F7FBF5E7C0460B
:100A800008700020586E0020F0B5C64600B584B04E
:100A90000C000378002B03D01B4B1B78002B15D0C8
:100AA000194B00221A70194801F0C6FF184801F0CE
:100AB000C3FF184B1A6801239340D022120693619A
:100AC0000123237004B080BCB846F0BD0E4B012258
:100AD0001A70114B98461868104E00270C4B029361
:100AE000002501950E4B009332003B0001F058FFAA
:100AF00043461868054B029301950A4B0093320058
:100B00003B0001F04DFFDBE7A3750020806500206E
:100B1000D8610020DC6D002004680020A086010060
:100B200069050010B903001070B50400C16A806A3D
:100B300004F004FB061C2068616804F0FFFA051C41
:100B40001249301C05F02FFD041C011C281C05F067
:100B50000AFD061C291C201C05F00AFD0C4905F0A5
:100B60000CFD0C4905F01FFD011C0B4B180016F085
:100B700060FB0749301C05F000FD064905F013FD38
:100B8000011C064B180016F054FB70BD295C8F3D0C
:100B9000B7D1A03E0000704208700020586E0020BF
:100BA000F0B585B003211C2016F046FA0121012082
:100BB00016F042FA0121192016F03EFA0121062012
:100BC00016F03AFA0121002016F036FA1A230093A3
:100BD000153B04220221032000F08EF91A4E1B4D12
:100BE0001B4F009733003C220A21280016F0A6FD77
:100BF000184C009733003C220A21200016F09EFD7D
:100C0000F536FF363100280016F092FD3100200045
:100C100016F08EFD00F062FB00F0B6FC0E490F48A6
:100C200000F016FD0E4809F031FF01F051FD0D4BAB
:100C30000293002301930C4B00930C4A002301F014
:100C4000AFFE05B0F0BDC046AC0D000054700020F2
:100C50005D090010A46E0020709E0110749E0110AA
:100C6000F8640020C86400204D03001080380100A3
:100C7000F0B585B01021042001F040FD134F38601D
:100C8000134B01221A70134C0025134B02930026BC
:100C90000196124B009322002B0001F081FE386870
:100CA0000F4B029301960F4B009322002B0001F093
:100CB00077FE38680C4B029301960C4B0093220090
:100CC0002B0001F06DFE05B0F0BDC04604680020A9
:100CD000A3750020A0860100D861002069050010DE
:100CE00080650020B9030010E064002011030010AB
:100CF00010B5064B9A6A06490A609B6A9B1A054A18
:100D0000934200D810BD0020FFF7AEFD0040054023
:100D1000146F002060EA000010B5064B9A6A06497D
:100D20000A609B6A9B1A054A934200D810BD0020B6
:100D3000FFF79AFD00400540106F0020400D0300B2
:100D400010B5FFF795FFFFF7E7FFFCE7F0B5C646E4
:100D500000B505F0CBFF002513E0D02424060223C4
:100D6000984663618027BF046761FA2676003000E9
:100D700001F01AFF4346A361A761300001F014FFA0
:100D80000135042DE9DDFFF70BFF094806F022F8D5
:100D9000D0231B0602225A6101E0FFF7A9FF054B91
:100DA0001B78002BF9D0002080BCB846F0BDC046AF
:100DB000410D00109F75002010B504000068002848
:100DC00002D0482105F0E8FD00232360200010BD7B
:100DD000F0B5D6464F464646C0B582B004000D0079
:100DE00001280AD0002C02D12E4B9D4253D002B0D4
:100DF000E0BCBA46B146A846F0BD2A4B9942F1D1B3
:100E000029492A4F00230222BA46380016F082FBF5
:100E10002749284800230222804616F07BFB264BF8
:100E200099462648264F01970226009616220B2146
:100E300016F0A7FB2348019700964B461B220C2176
:100E400016F09FFB2048019700964B460722092188
:100E500016F097FB1D48019700964B4608220A2181
:100E600016F08FFB1A4A1B4833005146070016F054
:100E70000DFA194A194833004146060016F006FAE1
:100E800017480022390016F02FFC164801223100C5
:100E900016F02AFCA6E71148FFF78EFF0D48FFF772
:100EA0008BFFA4E7FFFF000008030020387000203C
:100EB000F8020020886E00200000A042906F002001
:100EC00015030010CC6F0020E06D00201C6E002088
:100ED0000003002008700020F0020020586E00205F
:100EE00054700020A46E002010B502490120FFF7C5
:100EF0006FFF10BDFFFF000070B50D4C20600D4E60
:100F000031600D4D2A600D4C23600D4B049A1A6020
:100F1000012116F091F83068012116F08DF828684B
:100F2000012116F089F82068012116F085F870BDBE
:100F3000306F0020346F0020386F00203C6F00209D
:100F4000406F002070B5012344081C4081081940FF
:100F5000C2081A401C4D2D681E00AE40034222D02C
:100F6000D0231B065E61194B186801238340002CB7
:100F70001DD0D02000064361154B18680123834023
:100F8000002918D0D02109064B61124B19680123A2
:100F90008B40002A13D0D022120653610520002175
:100FA00001F0D6FD70BDD0231B069E61DBE7D0208B
:100FB00000068361E0E7D02109068B61E5E7D022D6
:100FC00012069361EAE7C046306F0020346F0020BC
:100FD000386F00203C6F002070B50400094D286870
:100FE00000F089FC2868210016F026F8062C00D0B5
:100FF00070BD054B1B68E022D2011340034A136009
:10100000F6E7C046406F002000C0044000D0044016
:1010100070B5134B1A6801239340D02212069361D6
:101020000620FFF7D9FF0A20002101F091FD0024DE
:1010300010E020000830FFF785FF0A4B04221A60F9
:10104000094B1B68DB05FBD5074B5B681B041B0CBE
:10105000ED180134072CECDDED08044B1D8070BD4C
:10106000DC6D002000E0044000C0044098750020C2
:1010700010B5174B1A6801239340D0221206536112
:101080000620FFF7A9FF0A20002101F061FD0024DE
:1010900019E020000830FFF755FF0E4B04221A60BC
:1010A0000D4B1B68DB05FBD50B4B5B681B041B0C56
:1010B0000A4A12889B1ADA0F0949002099425041C6
:1010C000084A10550134072CE3DD064810BDC04620
:1010D000DC6D002000E0044000C004409875002052
:1010E000641900009865002030B583B0041C0D0021
:1010F000FE21890505F090FA002808D11049201C2E
:1011000005F098FA00280ED1201C03B030BD0D4A1E
:101110000D49002301930D4B00932B000120FFF795
:101120006FFB0B48F1E7074A074900230193094B7E
:1011300000932B000120FFF763FBFF20C005E4E7CD
:101140000000C8437C9E01107C9C0110909E011001
:10115000000080FFCC9E0110F0B5C64600B504002B
:101160000E0090460120FFF737FF2000FFF7EAFE50
:10117000284D2B68012422009A40D0273F067A612F
:101180000A20002101F0E4FC2B689C40BC61052092
:10119000002101F0DDFC204B9C6A0320FFF71CFFBF
:1011A0003000FFF7CFFE1B4B1A68D0231B065B688D
:1011B000D340DB0706D4184B9B6A1B1BFA21C901DD
:1011C0008B42F0D3144B9E6AD0231B065B68D3403E
:1011D000DB0706D5104B9B6A1B1BFA21C9018B420A
:1011E000F2D30D4B986A80B2B6B2801B80B203F086
:1011F0005DFF0A4A0A4B03F0E0FE0022094B03F0B0
:10120000DCFE03F09BFF4146FFF76EFF80BCB84653
:10121000F0BDC046406F002000400540666666662F
:10122000662641400000E03FF8B504000E0000F0E3
:1012300062FB0121200015F0FFFE0125A540D0270B
:101240003F067D610A20002101F082FCBD6105207E
:10125000002101F07DFC1D4B9D6A200000F04BFB3E
:101260000321200015F0E8FED0231B065B68E34055
:10127000DB0706D4154B9B6A5B1BFA22D201934213
:10128000F2D3124B996AD0231B065B68E340DB075D
:1012900006D50E4B9B6A5B1BFA22D2019342F2D316
:1012A0000A4B986A80B289B2401A80B203F0FEFEFF
:1012B000074A084B03F081FE0022074B03F07DFE36
:1012C00003F03CFF3100FFF70FFFF8BD0040054081
:1012D00066666666662641400000E03FF8B5CE4689
:1012E000474680B506F07AF981460BF047FC0500C9
:1012F00005F0BAFE06000BF061FD804607F0ACFF7A
:101300000BF070FE07006B4B6B4C6C483A002100F1
:1013100009F0AEFC0021FFF727F8694B69483A0055
:10132000210009F0A5FC0021FFF71EF8664B674875
:101330004A46210009F0D0FC0021FFF715F8644867
:1013400006F01AF9634B64484246210009F0C4FCD8
:101350000021FFF709F861480BF0FEFC604B614883
:101360003200210009F050FC0021FEF7FDFF5E482D
:1013700007F008FF5D4B5E483200210009F044FC95
:101380000021FEF7F1FF5B4805F036FD5A4B5B4844
:101390002A00210009F038FC0021FEF7E5FF584B38
:1013A00058482A00210009F02FFC0021FEF7DCFF3D
:1013B000554B56482A00210009F026FC0021FEF773
:1013C000D3FF534B53482A00210009F01DFC002194
:1013D000FEF7CAFF50480BF0BBFB50480BF0B8FBC0
:1013E0004F480BF0B5FB4F480BF0B2FB4E4B4F484C
:1013F0002A00210009F008FC0021FEF7B5FF4C4B44
:101400004C482A00210009F0FFFB0021FEF7ACFF49
:10141000494B4A482A00210009F0F6FB0021FEF75B
:10142000A3FF474B47482A00210009F0EDFB0021AC
:10143000FEF79AFF444B45482A00210009F0E4FBDF
:101440000021FEF791FF424B42482A00210009F09B
:10145000DBFB0021FEF788FF3F4B40482A002100BC
:1014600009F0D2FB0021FEF77FFF3D4B3D482A00EB
:10147000210009F0C9FB0021FEF776FF3A480BF086
:1014800067FB3A480BF064FB39480BF061FB3948C5
:101490000BF05EFB38480BF05BFB38480BF058FB59
:1014A00037480BF055FB37480BF052FBC0BCB94630
:1014B000B046F8BD089F0110B0700020886C002075
:1014C000249F0110706C0020409F0110D8670020FD
:1014D000801A00204C9F0110586C0020546C002092
:1014E000549F01108C6C0020F0610020689F011057
:1014F0004C6C0020186C0020789F0110706D00204B
:10150000949F01100C6F0020B09F01105C720020AE
:10151000CC9F0110BC660020486D0020946600201E
:1015200034720020E46E0020E89F0110C06C00209F
:1015300004A00110EC6C002020A00110186D002008
:101540003CA00110446D002058A001100C66002042
:1015500070A001103866002088A001106466002089
:10156000A0A0011090660020986C0020C46C0020A0
:10157000F06C00201C6D0020E46500201066002047
:101580003C6600206866002030B5A5B01F4C02A85C
:1015900008F070FF882202A9200005F0F3F91C4B27
:1015A0001C490422200008F06FFF0021FEF7DCFE3A
:1015B000194B1A4A1A4900250095200008F0F4FF3B
:1015C0000021FEF7D1FE174B174A1849009520005D
:1015D00008F0EAFF0021FEF7C7FE154B154A164931
:1015E00016480090200009F019F80021FEF7BCFE13
:1015F000134B144A144915480090200009F00EF8C6
:101600000021FEF7B1FE25B030BDC046F8640020D1
:101610009C700020B8700020290B0010801A002058
:10162000D867002069080010546C0020586C002016
:10163000786C0020746C0020886C0020550A001023
:10164000606C00205C6C0020706C0020890A001027
:10165000F0B587B006000F000F4D6C46200009F072
:101660007FFB2B002A0023CC23C203CC03C20B4CEC
:1016700000220021200009F043FA0021FEF774FE49
:10168000074823003A00310009F084FA0021FEF7F0
:101690006BFE07B0F0BDC0469C700020B870002003
:1016A000B070002070B50C0001F0D8FA06000D00F3
:1016B0000A4A002303F050FA20606160074A0023C1
:1016C0003000290003F048FA100053019B1A9A00D9
:1016D0001218D200A260002070BDC04640420F0028
:1016E00010B58300084A944663441A684024624057
:1016F000803414408022520113431C60C000034B0D
:101700009C466044416010BD04C00140004001405F
:1017100080000B4B9C46604400290DD00823002A12
:101720000CD004221343026853400C221A40802339
:101730005B0103431A6070470023F0E70022F1E7E2
:1017400004C0014070B50400D0231B061D680D4B7A
:10175000AA00D358002B0AD0002803D0094BAD00B3
:10176000EC5070BD08490D2000F0E8FAF6E70028BB
:10177000F7D0044BAD00E850034900220D2000F0E3
:10178000C5F9EEE7C06700201918001007230340D1
:101790009B00C00899403C308000014BC15070470D
:1017A00000400140F8B507000C0016001D00FFF7CF
:1017B000EDFFFB089B00ED180720384080008440B7
:1017C000002E04D080239B012B431C60F8BDC02356
:1017D0009B012B431C60F9E710B5D0231B061B6847
:1017E000002B03D0024BFFF7DDFF10BD014BFAE7E2
:1017F000304101400041014070B514001D00FFF769
:10180000EBFF2800FFF79EFF002C00D170BD0121E7
:101810000D2000F041F9F9E7F0B5D6464F464646AF
:10182000C0B5D0231B061F681D4BBA00D35898467D
:10183000002F03D01B4B9946002623E01A4B9946F4
:10184000FAE724090135002C1BD033000833AB42E2
:1018500017D90F231A00224092462342F1D0134B8E
:10186000BA00D2580123AB401342EAD151462800B6
:10187000FFF78CFF4346002BE3D051462800C047BA
:10188000DFE708361D2E06D8F30808339B004A46CA
:101890009C583500D7E7E0BCBA46B146A846F0BD33
:1018A000C067002030410140004101409470002099
:1018B000002909D08000094B9C46604480239B018D
:1018C000034340221A6070478000044B9C466044EA
:1018D000C0239B01034340221A60F4E704C0014087
:1018E00010B501238340D022120693629361052133
:1018F000FFF7F6FE10BD10B51F21FFF7F1FE10BD7A
:10190000EFF3108072B6034B1B68002BFBD0BFF3C4
:101910005F8F70472C0100D0BFF35F8F024B002216
:101920001A6080F3108870472C0100D0F8B50600CB
:101930000C001500FFF7E4FFE308F718F15C07223D
:101940002240012393400B4205D1DBB20B433B7095
:10195000FFF7E2FFF8BD2100280001F097FD00002D
:10196000034B1B6802201840431E9841C0B27047C9
:1019700000C00640002307E0054A9A189200BFF312
:101980005F8F0021116001331F2BF5D97047C046CE
:1019900040000034054A1078431CDBB21370172B4B
:1019A00002D9130010221A707047C046100300209D
:1019B000074B9B68103080001950BFF35F8FBFF357
:1019C0005F8F044B0021196082F310887047C04676
:1019D00000ED00E0240100D010B5091A0B1F0A4ADF
:1019E00094466144094A914208D8DA0706D45B104C
:1019F0005B055B0D0648184380B210BD054B064AD7
:101A00000648992101F0A8FCFC070000FE0F000029
:101A100000E0FFFFB8A00110FCA20110E8A0011037
:101A200010B5091A04394A08090B08D14905490DAE
:101A3000064B0B430380064B1343438010BD054BFD
:101A4000054A0648A12101F087FCC04600F0FFFFCF
:101A500000F8FFFF28A10110D0A20110E8A001109A
:101A600001238340034A10681840431E9841C0B2C6
:101A70007047C04600E100E0002904D0034B186025
:101A8000034B18607047034B1860FBE780E200E0EF
:101A900000E100E080E100E010B501238340180080
:101AA000FFF7EAFF10BD0000024B9B68103080007A
:101AB000C058704700ED00E070B504000D00EFF372
:101AC000108672B60C4B1B68002BFBD0BFF35F8FE8
:101AD0002000FFF7E9FF094B984201D0A84205D149
:101AE000320029002000FFF763FF70BD044B054A58
:101AF00005487C2101F030FC240100D0CD0100100C
:101B000038A1011030A30110E8A00110F0B5DE46A5
:101B100057464E464546E0B589B0814601911500CD
:101B2000EFF3108A72B6744B1B68002BFBD0BFF327
:101B30005F8F724B0027DF57002F40DB7C00E419DA
:101B4000A4006F4824180622A2566C4B1A706D4BE5
:101B50009A684B4610339B00D35898461E00181ABB
:101B60002F2838D9684B98452FD105AE674B338065
:101B700067497B009B46D8198000614B98464044DA
:101B80000230FFF729FF7080624BB380FF23B371EF
:101B9000F571019B07935F44BB00434407CE07C325
:101BA00001231C43A046524641464846FFF700FF2A
:101BB00009B0F0BCBB46B246A946A046F0BD564BA4
:101BC000564A5748CD2101F0C7FB564B534A54485B
:101BD000D42101F0C1FB01380C2102F07BFF002968
:101BE00012D101239E43B34633000026DA79AA427C
:101BF00011D90621595600290CDB4A0052189200CF
:101C00003F491E008B18F1E7474B444A4448E02106
:101C100001F0A2FB1E00002E3BD005AB434A1A8008
:101C2000813A5A800623F3560293002B18DABD201E
:101C3000000205AB9B469880029A9A71DD71019A69
:101C40000792301D2100FFF7C7FEB080B7712C4B03
:101C50007A00D21992009B185A4613CA13C3A2E7FE
:101C60007800C0198000264BC0180430311DB3889D
:101C7000DA0A1C2A07D15B055B1502335B00C91821
:101C8000FFF7AAFED5E72A4B2A4A2548A72101F0EB
:101C900063FB05AE1D4B33801D497B000293DB19AE
:101CA0009B00174A90461A0042440392901CFFF78B
:101CB00093FE7080039A101D5946FFF78DFEB08089
:101CC0001D4B5A464146521A524153431B0DB371A4
:101CD000F571019A0792029B9C466744BB004344FE
:101CE00007CE07C3114B5A461380813B5380012313
:101CF0001C43A04657E7C046240100D0A075002031
:101D00001403002000ED00E0CD01001000A1FFFF52
:101D10004403002000BDFFFF70A1011018A30110B3
:101D2000E8A0011098A10110C0A101100148000015
:101D300034A2011008A30110AAAA0000F0B5CE46F3
:101D4000474680B583B006000D00EFF3108872B6E9
:101D5000554B1B68002BFBD0BFF35F8F534B9A682A
:101D600034001034A300D758514B9F4207D0AF42E4
:101D700000D197E001974F4BFB1A2F2B09D9424610
:101D800039003000FFF714FE03B0C0BCB946B046BE
:101D9000F0BD3000FFF764FE814600213000FFF700
:101DA0007BFEBFF35F8FFEF75EFA002801D084420E
:101DB00011D10123019C9C430021A368AB4212D0A6
:101DC0000622A256002A0DDB53009B189B00394ABD
:101DD0002100D418F1E7384B384A2C213848FF311C
:101DE00001F0BAFA2100AB4255D106256557002D06
:101DF00037DB304B6A00521992009B189A68A26038
:101E0000DA79E2719B795BB2A371002B10DABD2005
:101E10000002A080274B6A00521992009B18294AA1
:101E200011789971157049463000FFF735FEA6E725
:101E3000201D6B005B199B001E4A9B18191D9B8877
:101E4000DA0A1C2A07D15B055B1502335B00C9184F
:101E5000FFF7C2FDDDE71C4B1C4A1948A72101F022
:101E60007BFA002812D100290ED0FF238B71184B6A
:101E70008B8014490B78A3710E4A164BA41A644147
:101E800063431B0D0B70CEE7094FF2E71249201D8B
:101E9000FFF7C6FDC7E7114B084A60210848FF312C
:101EA00001F05AFA024F6AE7240100D000ED00E089
:101EB000CD010010140300204CA20110E8A2011073
:101EC000E8A00110A075002034A2011008A30110A1
:101ED00000BDFFFFAAAA00004E03002070A201105F
:101EE00070B50400012606432D4BF31A2F2B28D87A
:101EF000FEF7B9F900282BD0EFF3108C72B6294BFE
:101F00001B68002BFBD0BFF35F8F254A264D2100B5
:101F1000891A49414D432D0D6DB2244B9B688000B9
:101F20001B58B3421BD00021032932D81C4B4A0056
:101F3000521892009B189B795BB2AB421FD00131C3
:101F4000F2E71B4B1B4AC2211B48490001F004FA6F
:101F50001A4B184A88211848FF3101F0FDF9134B3C
:101F60009B68174A1A50174B1A78A2711D70BFF35D
:101F70005F8F0C4B00221A608CF3108870BD084BE9
:101F80004A00501880001818FF2686710E4A828079
:101F9000E9E70E4B074ACC210748490001F0DCF97C
:101FA00014030020240100D0AAAA000000ED00E0E4
:101FB00078A20110B4A20110E8A00110A0A20110A3
:101FC000CD010010A075002000BDFFFFACA20110E4
:101FD0000022044B02E0044902C30132072AFAD965
:101FE0007047C04600E400E080808080024B9C4641
:101FF00061448900016070474000003410B50C0056
:10200000CB68834207D10B6908009847002809D0A4
:102010002068616810BD064B064A962106484900B3
:1020200001F09AF90023E36000200021F2E7C046A6
:102030004CA30110ACA5011060A3011070B5050000
:102040000C00080000F0FEFD200000F007FF08492A
:10205000200000F047FEFFF79DFC064B9C466044C5
:10206000800068602C75044BA400E55070BDC0462C
:102070007123001040000034706F00200A4B1A6872
:10208000EFF3108172B61368002BFCD0BFF35F8FA3
:10209000054B1B68BFF35F8F00221A6081F3108825
:1020A00040BF002000217047A074002010B5002917
:1020B00020D003681B7B99421CD88368154CA4462A
:1020C000614409015B181C685968002A18D003682C
:1020D0001B7B9A4214D883680E48844662441201DE
:1020E0009B181A685B6801208B4201D80ED0002033
:1020F000C0B210BD084B094A09483B2101F02CF938
:10210000054B064A06483B2101F026F9A242EFD8CA
:10211000EDE7C046FFFFFF0F98A3011014A60110C2
:1021200060A3011010B500291DD0037B99421AD875
:1021300004684B005B18033BE418002919D0002AFF
:102140001DD0914221D0002A25D0037B9A4222D86B
:10215000006853009B18033BC3189970217800292D
:102160001FD1227010BD104B104A1148682101F098
:10217000F3F8104B104A0E486F3101F0EDF80F4B99
:102180000D4A0B48702101F0E7F80D4B0A4A084848
:10219000712101F0E1F8044B044A0548682101F07F
:1021A000DBF859702270DDE7CCA3011080A6011086
:1021B000E8A3011034A401105CA6011040A4011092
:1021C0004CA4011070B506000D001400002914D0B5
:1021D000002A14D0436880689847002806D022005F
:1021E00029003000FFF79EFF280007E02A002100A9
:1021F0003000FFF797FF200000E0100070BD0800DE
:10220000FCE70000F0B583B00500009201930AAB33
:102210001C780BAB1F78002C26D003685A7B9442A5
:1022200007D10123002B19D1002C3AD1200003B093
:10223000F0BD002C0CD01A7B944209D81A686300B8
:102240001B19033BD3189B78002BEBD00123E9E744
:102250003C4B3D4A3D48682101F07EF83C4B3D4AED
:102260003D48652101F078F803689C7B002CDBD0A9
:1022700011D01A7B94420ED81A68610009190339EB
:10228000521851789973002900D1D97300239370A3
:1022900053701370C8E72B4B2B4A2C48682101F070
:1022A0005BF8002C37D02B681B7B9C4233D8AB6883
:1022B0002A4AA21812019B18009A1A60019A5A60C1
:1022C000089A9A60099ADA602E68002C29D02ED0DC
:1022D000337B9C422BD8336862001219033A9B1857
:1022E00000229A705A701A70717B22003000FFF73A
:1022F00069FF7073844299D1287D009A019B00F098
:1023000039FD061E01D0002F17D00C9B002B00D1E9
:102310008CE71E708AE7124B124A0F483B2101F0EE
:102320001BF8114B114A0948A52101F015F8054B7E
:10233000054A0648682101F00FF82868210000F0DE
:1023400051FFE2E7CCA3011080A60110E8A3011021
:1023500064A401108CA6011060A30110FFFFFF0F01
:1023600098A3011014A601105CA3011070A601101F
:10237000F0B5DE4657464E464546E0B58BB009906F
:1023800000230893B24B8200D55833E0B14BB24AD8
:10239000B2483F2100F0E0FFB14BB24AB2483B21C6
:1023A00000F0DAFFB14BB24AAF488C2100F0D4FF05
:1023B000B04BAF4AAC48902100F0CEFFA84BAE4ADC
:1023C000A948402100F0C8FF43461A685B68099895
:1023D00000F0D0FC00239B469A466B68BFF35F8FEA
:1023E00000221A6089F310885346002B53D100282D
:1023F00000D126E100F032FC02000B1EC6DB0020FB
:102400000021069007916868EFF3108972B60168A1
:102410000029FCD0BFF35F8F2868447B002C35D0A7
:10242000BAD0017B8C42B7D8AE68944961180901D3
:10243000B046884441460E684F68B61A9F41002F47
:10244000C2DC01D1002EBFD1002100F0C1FEA042AC
:10245000A8D143461A685B680692079343469B6877
:102460009A464346DB689B465346002BA0D0002C7F
:10247000A4D02B681B7B9C42A0D8EA68631ED35C67
:1024800008931B02184328610020A6E700239B46FF
:102490009A460020A1E7089B1B0223439846594611
:1024A0001800D04706000F006A68EFF3108972B673
:1024B000136859424B41D9B2002BF9D1BFF35F8F5A
:1024C000002F26DB002F52DD2B69002B53D0434514
:1024D00072D100F0C3FB02000B1E73DB0100180079
:1024E00092197B41984202D804D1914202D901222B
:1024F0005242D317002B6BDB002104910131039171
:10250000029459460191514600912800FFF77AFE46
:1025100049E02B69002BD5D043451CD1069A079B77
:1025200010001900921BBB41994202D804D190427D
:1025300002D901225242D317002B12DB0021049151
:1025400001310391029459460191514600912800AE
:10255000FFF758FE27E04A4B454A43489F2100F0C9
:10256000FBFE3C4B3C4A3D483F2100F0F5FE002F6E
:1025700001D1002EA8D12A68002C44D0537B9C4264
:102580002CD1012100293ED1D37B002B41D1D47322
:10259000002C50D02B681B7B9C424CD8EA68013C35
:1025A000135D0133135500232B616A68BFF35F8FFE
:1025B000136089F310881DE7314B2D4A2A48A22168
:1025C00000F0CAFE234B244A24483F2100F0C4FEF9
:1025D000204B214A21483F2100F0BEFE002C0CD0A8
:1025E000137B9C4209D8106863001B19033BC31876
:1025F0009B78002BC6D00121C4E7224B224A2348F6
:10260000682100F0A9FE224B224A2048F62100F062
:10261000A3FE002B09D0117B8B4206D8106859000D
:10262000CB18033BC3185C70B1E7164B164A17482A
:10263000682100F091FE0A4B0F4A0B48402100F040
:102640008BFE0BB0F0BCBB46B246A946A046F0BD1F
:10265000706F0020AC9C0110E0A50110009D0110DE
:1026600098A3011014A6011060A301108CA40110FE
:10267000F8A50110A4A4011038A60110FFFFFF0F58
:10268000B0A40110CCA3011080A60110E8A3011092
:10269000ECA401104CA6011010B50A4B5B68002B8E
:1026A00004D009480A21FFF7A1FC10BD054C074AD8
:1026B00020682300102100F099FC03212000FFF77F
:1026C000BDFCEEE75C030020A0740020AD200010EC
:1026D00010B5064B5B68002B01D0044810BD044BBD
:1026E000044A05485C2100F037FEC0465C03002028
:1026F00010A5011020A6011060A3011070B50600FE
:102700000D00182004F0C2F804000B490200280054
:1027100000F073FC20601021280004F0D5F8A060C0
:102720000121280004F0D0F8E06031002000FFF71C
:1027300085FC200070BDC046AD200010F0B5DE461F
:1027400057464E464546E0B58BB0804616001F0002
:10275000149B9A46159B994616AB1B789B461F23E4
:1027600002AA9446634400221A7036E0002809D079
:1027700042461268127B904204D84246D168421EFB
:102780008A5C4CE0454B464A4648402100F0E4FD57
:102790000798002B79D05B46002B76D04946D0476E
:1027A00004000D0003000B4300D175E000294ADB53
:1027B00000F054FA02000B1E59DB01001800121938
:1027C0006B41984202D804D1914202D9012252426F
:1027D000D317002B51DB16001F0043465A68EFF356
:1027E000108472B6136859424B41D9B20791002B3D
:1027F000F8D1BFF35F8F1F3302AA9446634404935A
:102800000023039302934B460193534600933200F7
:102810003B004046FFF7F6FC031EA7D102004146ED
:102820004968BFF35F8F00250D6084F31088002B8B
:1028300029D01F2302A98C4663441B78002BA7D103
:1028400012021043A5E730003900361BAF41B942F0
:1028500002D804D1B04202D901267642F717002FE0
:10286000BBDA114B114A12483F2100F075FD0E4BA7
:102870000E4A0F483F2100F06FFD0B4B0B4A0C48EE
:102880003F2100F069FD012040420BB0F0BCBB4687
:10289000B246A946A046F0BD0798F6E798A30110F6
:1028A00038A6011060A30110AC9C0110E0A5011036
:1028B000009D0110F8B504004268EFF3108572B670
:1028C000136858424341D8B2002BF9D1BFF35F8F50
:1028D000CBB22268567BB3421BD10120002847D0DF
:1028E000206988422AD0090AC9B2002B2DD020685D
:1028F000007B834229D8E668581E305C88422AD083
:1029000000206368BFF35F8F00221A6085F3108890
:10291000F8BD002B0CD0167BB34209D817685E00B7
:10292000F618033EBE19B678002ED7D00120D5E7A1
:10293000124B134A1348682100F00EFD124B134A44
:1029400085211348490000F007FD124B124A104838
:10295000402100F001FD1900100000F043FC0028A8
:10296000CFD10E4B094A12210948FF3100F0F4FC87
:1029700023698B42C5D100232361C2E7CCA3011098
:1029800080A60110E8A3011034A50110C8A501100C
:1029900060A3011098A3011038A6011058A50110DA
:1029A000F0B585B007000C9E1100194301D101223A
:1029B0000023B7600A993161326073600B997161CD
:1029C000D81701004240140043401D00241A8D41D5
:1029D00000F044F902000B1E1ADB01001800121966
:1029E0006B41984202D804D1914202D9012252424D
:1029F000D317002B12DB0121029101960A490091A5
:102A00003800FFF79BFEF060C043C00F05B0F0BD7B
:102A1000064B074A07483F2100F09EFC034B044A3F
:102A200004483F2100F098FCFD1F0010AC9C0110F1
:102A3000E0A50110009D011010B50400C168002937
:102A400001D1002010BD8068FFF734FF0023E36050
:102A5000F8E70000F0B587B006000F00FDF703FCB3
:102A600000281FD106246442E517A4197D41BD4208
:102A700002D803D1B44201D900240025002D14DB73
:102A80000494059500F0EAF802000B1E13DBA41A6B
:102A90009D41002D17DC14D03000390000F0EAF819
:102AA00007B0F0BD234800F0F1FC234B234A244833
:102AB0003F2100F051FC204B204A21483F2100F0EB
:102AC0004BFC002CE8D0FFF703FE00230293019398
:102AD0001C4B0093049A059BFFF730FE002818DA80
:102AE000DAE7002300E00023002BD5D1164B1A684B
:102AF000EFF3108172B61368002BFCD0BFF35F8F29
:102B0000114B1B68BFF35F8F00221A6081F310889E
:102B100020BF0499059A0D4B5B6A9A42E3D80B4893
:102B2000806A884203D29A42DBD00123DCE701238A
:102B3000DAE7C0465CA50110AC9C0110E0A50110CD
:102B4000009D01107D200010A07400200040054071
:102B5000F8B504000D0000F081F802000B1E10DB38
:102B600020002900801859418B4202D804D18242AA
:102B700002D901204042C117002908DBFFF76AFF94
:102B8000F8BD064B064A07483F2100F0E5FB034B22
:102B9000034A04483F2100F0DFFBC046AC9C011013
:102BA000E0A50110009D011010B5FA22920000234B
:102BB000002103F0BBFCFFF7CBFF10BD70B5EFF3B6
:102BC00005833F2018401038EFF3108C72B6184B75
:102BD0001B68002BFBD0BFF35F8F012319008140DE
:102BE000144A5163144A12781400C440234213D08B
:102BF000104B5C6A114B8500EB589C4205D3104B7F
:102C0000EB580D4C8A43227007E00A4A031D9B00D3
:102C100099589950002300E00023BFF35F8F044AC6
:102C2000002111608CF31088002B00D0984770BDF4
:102C3000280100D000400540A2750020C474002087
:102C4000D465002010B50100024A034B1800FEF7BE
:102C50006DFE10BDB0A601109B750020044B5B6A91
:102C6000034A906A1900536A9942F9D17047C046E5
:102C700000400540084B5B6A01E0074B5B6A8B42F2
:102C8000FBD301E0044B5B6A8B4203D1024B9B6A8E
:102C90008342F7D37047C0460040054070B504003A
:102CA0000D00FFF7DBFF02000B0020002900801859
:102CB00059418B4202D804D1824202D901204042BC
:102CC000C117002902DBFFF7D5FF70BD024B034A95
:102CD00003483F2100F040FBAC9C011058A70110B5
:102CE000009D011070B504000E00EFF3108572B660
:102CF0001B4B1B68002BFBD0BFF35F8F002E1CD03B
:102D00002000FEF7D1FE174B83420BD019002000A4
:102D1000FEF7D2FE01212000FEF7BEFE0123A340F4
:102D2000114A1360114BA400E650BFF35F8F0C4BA8
:102D300000221A6085F3108870BD0C4BA2000021A0
:102D4000D1500122A2400A490B7893430B700549E8
:102D50002000FEF7F3FF00212000FEF79DFEE4E7D0
:102D6000280100D0BD2B001038600540D46500203C
:102D7000A2750020F0B5DE4600B584B00400150051
:102D800001921E000293FFF769FF03958E4202D85D
:102D90004ED185424CD9EFF3108B72B6274B1B688E
:102DA000002BFBD0BFF35F8F254A17780125A54084
:102DB000EBB23B431370234B5D63221D92000199DC
:102DC000D150214AA100029888501B6A2B4212D18F
:102DD0001C4B1B6C2B4208D00020BFF35F8F174B9E
:102DE00000221A608BF3108823E0184B184A194808
:102DF000C12100F0B1FAFFF731FF8E4214D802D1A1
:102E0000039B834210D80E4B1B78BB420ED00D4B58
:102E10001D625D631F222240012393400E4A13600E
:102E2000074B1F700120D8E70020D6E70120D4E728
:102E3000012004B080BCBB46F0BDC046280100D0D4
:102E4000A275002000400540C4740020D4A60110E3
:102E50003CA70110F8A6011080E200E0EFF3108C0F
:102E600072B60B4B1B68002BFBD0BFF35F8F0123A7
:102E70008340084A136208490A789A430A70BFF3EC
:102E80005F8F034B00221A608CF310887047C04696
:102E9000280100D000400540A275002010B500298F
:102EA0001DD0037B99421AD804684B005B18033B82
:102EB000E418002919D0002A1DD0914221D0002AFF
:102EC00025D0037B9A4222D8006853009B18033B0D
:102ED000C3189970217800291FD1227010BD104BA2
:102EE000104A1148682100F037FA104B104A0E487A
:102EF0006F3100F031FA0F4B0D4A0B48702100F092
:102F00002BFA0D4B0A4A0848712100F025FA044BB0
:102F1000044A0548682100F01FFA59702270DDE765
:102F2000CCA301105CA80110E8A3011034A4011087
:102F300048A8011040A401104CA4011070B506006F
:102F40000D001400002914D0002A14D043688068B2
:102F50009847002806D0220029003000FFF79EFF86
:102F6000280007E02A0021003000FFF797FF20002B
:102F700000E0100070BD0800FCE7000010B5002361
:102F8000437301338373037BC3730123027B9A4230
:102F900013D9002B0BD0027B934208D801685A004A
:102FA000D218033A8A180133DBB25370EEE70C4BA8
:102FB0000C4A0D48682100F0CFF9002A09D092424E
:102FC00007D8016853009B18033BCB1800225A70A6
:102FD00010BD034B034A0448682100F0BDF9C04608
:102FE000CCA301105CA80110E8A3011010B5017377
:102FF00042608360FFF7C2FF10BDF8B505000E0008
:1030000017001021012003F05FFC040003212800B9
:1030100003F05AFC20603B00320029002000FFF73B
:10302000E5FF2000F8BD000070B50400081E00D1C7
:1030300070BD002931D0237B99422ED822684B00E5
:103040005B18033BD3185A78002AF1D02BD0237B8E
:103050009A4228D8216853009B18033BCB185D780F
:1030600000215970002824D0237B984221D8216860
:1030700043001B18033BCB180021597001002000AE
:10308000FFF75CFF060029002000FFF7CDFF0200DC
:1030900031002000FFF752FFCAE7094B094A0A48EE
:1030A000682100F059F9064B064A0748682100F0EC
:1030B00053F9034B034A0448682100F04DF9C04618
:1030C000CCA301105CA80110E8A3011070B50500A5
:1030D0000C001600002927D02CD0037B994229D858
:1030E00003684900091903395B185A78002A27D167
:1030F0009A78002A2AD11978FFF796FF0300002E4C
:1031000003D0EA7B002A27D1EC73002B36D1002CA8
:1031100047D02B7B9C4244D82A6863001B19033B91
:10312000D31800225A7070BD214B224A2248382100
:1031300000F012F9214B224A2248682100F00CF9D4
:10314000214B1C4A1C483A2100F006F91F4B194A32
:1031500019483B2100F000F9002A09D0297B8A4256
:1031600006D82E6851008A18033AB2185470CBE77B
:10317000124B134A1348682100F0EEF8002B0AD0D6
:103180002A7B934207D82A6843001B18033BD318B5
:1031900000229A70BBE7094B094A0A48682100F0EF
:1031A000DBF8064B064A0748682100F0D5F8C04610
:1031B00070A7011034A8011078A70110CCA301104A
:1031C0005CA80110E8A30110B0A70110D8A7011056
:1031D00070B504000A00457B2900FFF777FF607394
:1031E000280070BD70B50400002966D0437B8B4277
:1031F0000ED0002911D0037B99420ED805684B00F0
:103200005B18033BED18AB78002B0CD1002055E088
:103210000121FFF7DDFF012050E0294B294A2A4810
:10322000682100F099F8002B1FD0027B93421CD834
:1032300000685A00D318033BC218C35C8B421AD0F3
:10324000002B1BD0227B934218D820685A00D31839
:10325000033BC01843788B4216D0002BF0D11B4B98
:103260001B4A1C48672100F077F8154B154A164891
:10327000682100F071F86B78137007E0104B114A69
:103280001148682100F068F86B7843700023AB7038
:103290006B7001222000FFF719FF0200617B814261
:1032A00005D02000FFF74AFE6073012006E00A4BBC
:1032B000074A08486D2100F04FF8002070BDC04655
:1032C000CCA301105CA80110E8A30110ACA201106E
:1032D0001CA8011078A70110FCA7011010B504006C
:1032E000FEF758FB01002000FEF780FEFF2323714C
:1032F000BFF35F8F10BD10B50400FEF74BFB01005C
:103300002000FEF773FEFF23237100236371BFF3D8
:103310005F8F10BD00BEFDE703000A4A1268002A55
:1033200008D0084A1068C318074A9A4206D3054ACB
:1033300013607047034A05491160F2E701204042DB
:10334000F7E7C046C46D002000000420A4750020EB
:1033500010B5FFF7DFFF000030B583B00D00190096
:10336000002A0DD0084B002A0CD0084C0192009383
:103370002B000200200003F065FC0120FFF7CAFFCC
:10338000034BF0E7024AF0E700A9011010A9011071
:1033900008BD011070B52B4B2B4A1A602B4B2C4AE1
:1033A0001A602C4B9A682A4B9343FAD12A4C01E0BD
:1033B00008CC9847294B9C42FAD300F001F9234BE3
:1033C000274A1A60234B9B68DB43DB01FAD1254B6C
:1033D00040229A675A671A67DA66234C09E0234B42
:1033E000234A24488321FFF7B7FF2000FFF776FF29
:1033F0000834214B9C4209D22368002BF5D0012BC5
:10340000EDD12000FFF777FF0834F2E71B4DA968E4
:103410001B4CC022200003F0B5FAAC60FCF723FF80
:10342000002800D000BEFEF7A5FAFEF7D1FDFFF799
:1034300033F9144C01E008CC9847134B9C42FAD363
:1034400070BDC04600E00040BFCDFBFE00F0004074
:10345000FE7F3C0000C000404C1A00205C1A002097
:10346000FFFFFF0100F001403C1A002040A90110BD
:10347000B4A9011060A901104C1A002000ED00E071
:10348000000000205C1A0020801A00200FB400B554
:1034900083B0084803F0A4FB049B002B07D005A9C8
:1034A0000191180003F0ACFB034803F099FB0120E5
:1034B000FFF730FFA4A90110ACBD0110F8B5DE463E
:1034C00057464E464546E0B506000F0015000A9ADD
:1034D00093424ED31A0E92461B0298460A9A002334
:1034E0004046514601F038FB81467400A419A400FF
:1034F0002E4B9C4664446368834200D26060331F55
:10350000DBB29B46012B3AD9C0239B012343802287
:1035100012011A60264BB200D158002905D0586913
:1035200001F0D8FA01300138FDD16D0123685D400A
:10353000E0222A4080235B0123431A605A46012A75
:1035400028D980239B012343802212011A604B4615
:1035500063604A4600234046514601F0FDFA144B91
:10356000B60098510120F0BCBB46B246A946A04621
:10357000F8BD104B104A11482D21FFF7EDFE012F29
:10358000C2D1C0239B01234303221A60A368DB0737
:10359000FCD5CAE72168794003220A401A60A36873
:1035A0000125BD401D42FAD0CBE7C0460080004057
:1035B000DC670020C4A901101CAA0110D8A90110C1
:1035C00030B583B00C2000F01BF9FEF7C9F90028D4
:1035D0000DD0002304E02E4A99002E488850013374
:1035E000092BF8D92A4B2C4A5A6203B030BD2B4B19
:1035F00000229A6700F00CF9294B01221A60274B30
:103600005B6C012BFBD1274B03221A60234B9B6B76
:10361000012BFBD1013300930433234A01212348BA
:1036200000F04EF805230093214A0121214800F0C3
:1036300047F8214B0093002202210420FFF73EFFB0
:103640001E4D00952B00002201210520FFF736FFBB
:10365000104C00942300002200210720FFF72EFFCA
:1036600000942300002200210820FFF727FF0A4BC7
:1036700000932300002200210920FFF71FFF00957F
:103680002B00002200210620FFF718FFADE7C046FF
:10369000DC670020006CDC021BB7000000800040EB
:1036A0003CB0004030B00040002F6859008002401C
:1036B000008C864700C00240001BB70040597307CA
:1036C000F0B5C64600B504000F0090461D000C2062
:1036D00001F000FA06003D4A42443D4B9A4243D86D
:1036E00043011B1A9901C91AC900091889014046EA
:1036F00001F0F0F90200103A98235B009A4239D8A1
:103700006B1E062B3CD8069B013B062B38D8069B2C
:103710009D423BD343461B09B3423DD32D04069B38
:103720001E0335432368002B3CDB2A4B9C424AD0C6
:1037300080235B01284A1360284A1360284A926854
:1037400019009143FAD12760A060221DC0239B017C
:10375000134321221A602268002AFCDAE56008225D
:103760001A6080BCB846F0BD1E4B1F4A1F4811218D
:10377000FFF7F2FD1E4B1C4A1C481921FFF7ECFD18
:103780001C4B194A19481C21FFF7E6FD1A4B164A33
:1037900016482221FFF7E0FD184B134A1348252154
:1037A000FFF7DAFD22683F231340BB42BDD1A36877
:1037B0001B051B0D8342B8D1E368EE22D2021340F1
:1037C000AB42B2D1CDE780239B01B3E780E84BD376
:1037D00080F8A93200C0024000E0004000F0004044
:1037E00000C000402CAA011068AB01108CAA011087
:1037F000CCAA0110E8AA011034AB01104CAB0110A7
:1038000080239B000343014AD36270470080054038
:10381000064BAA2212011A602F22DA60044B054AD5
:103820001A60024B5B68002BFBDA704700400240D5
:103830000060024000B0FA009A4200D288547047FB
:10384000704710B5002802D00B684968984710BD32
:103850000100002007E083001B185B00501C08607B
:103860001078C01830380A681378303BDBB2092B67
:10387000F1D97047F0B5DE4657464E464546E0B5AD
:1038800083B093461F000C9B9A460D9C0E9B994655
:103890000F9B9B0703D0B8460F00060022E0019261
:1038A000A34688464E46B9460700B44207D2551C87
:1038B0004B4641462020B84701342A00F5E73D0039
:1038C0004F465C46019B9B46B1464646B84637008C
:1038D0002E0007E0013C551C5346185D4346390055
:1038E000B0472A00002CF5D135003E0047460F9B1B
:1038F0009B0707D4100003B0F0BCBB46B246A946F4
:10390000A046F0BDB0464E46B9462F005D46531B5B
:10391000B342EFD2541C4B4641462020B847220008
:10392000F5E7F0B5CE46474680B585B09446984653
:103930000C9D0D9C0EAB1B789946109A119B129E04
:10394000B7071CD4002B0CD0F7070AD54F46002F21
:1039500002D10C37374204D0013B02E030272F550B
:103960000134944201D21F2CF8D9F70707D59C42A5
:1039700005D21F2C03D830272F550134F5E7F70661
:1039800015D5770505D4002C03D0944224D09C4251
:1039900022D00F9A102A2BD00F9A102A30D00F9ACB
:1039A000022A35D01F2C02D830222A5501341F2C70
:1039B00005D84A46002A31D02D222A5501340396D3
:1039C00002930194009543466246FFF753FF05B00A
:1039D000C0BCB946B046F0BD621E012C06D00F9F98
:1039E000102F01D01400D4E7023CD2E71400D0E736
:1039F000B206D1D41F2CCFD878222A550134D1E772
:103A0000B206CCD51F2CCAD858222A550134C9E792
:103A10001F2CC7D860322A550134C3E7720703D57B
:103A20002B222A550134CAE73207C8D520222A554D
:103A30000134C4E7F0B5DE4657464E464546E0B58C
:103A400093B081468A46089209931CAB10CB1B7831
:103A50009B461E9D219B9846002C03D11023424675
:103A60009A4390468023DB0046461E4042461A4257
:103A700012D0002C22D000260EE03031CBB2771CC1
:103A80000AAA93552900200001F024F8AC4216D36D
:103A90001F2F14D83E0004002900200001F01AF85E
:103AA000C9B20929E9D943469B0605D541235B18CC
:103AB000DBB20A3BDBB2E2E76123F8E727004346CB
:103AC0000693209B05931F9B049303955B460293EB
:103AD00001970AAB0093099B089A51464846FFF7A5
:103AE00020FF13B0F0BCBB46B246A946A046F0BDCD
:103AF000F0B5DE4657464E464546E0B595B00890CF
:103B000009910A920B931E9E1F9C20AB1B789B462B
:103B1000229B9946239D269B9A463300234303D13B
:103B2000103352469A4392468023DB0057461F408B
:103B300052461A4219D0330023432DD0002714E0F7
:103B40003032D3B27A1C90460CAAD3554A462B0089
:103B50003000210001F000F8A5421FD819D04346DB
:103B60001F2B1BD8474606000C004A462B0030008E
:103B7000210000F0F1FFD2B2092AE1D953469B0699
:103B800005D541239B18DBB20A3BDBB2DAE76123A0
:103B9000F8E7B145E3D901E0002398465346069380
:103BA000259B0593249B04934B4603935B4602930A
:103BB000434601930CAB00930B9B0A9A0999089812
:103BC000FFF7AFFE15B0F0BCBB46B246A946A04613
:103BD000F0BD0000F0B5DE4657464E464546E0B51E
:103BE00091B083468A460C9298461A9C08941B9D75
:103BF000099522002B002000290001F044FA00283A
:103C000000D0E5E001225242D74B2000290001F00C
:103C100035FA002800D0DBE001225242D34B2000CD
:103C2000290001F015FA002800D0D1E0002200237D
:103C3000089E3000099D290001F00AFA002800D0F2
:103C4000DDE0089A099B069207938023DB001E9A09
:103C50001A400D921E9A1A4201D106231C9306980F
:103C6000079904000D000A000600024300D1D1E0CC
:103C7000080D4005400DBE4CA44660440A03120BDB
:103C8000BC4B13431F0001F011FABB4ABB4B01F0C0
:103C900094F9BB4ABB4B01F069F904000D00002206
:103CA000B94B3000390001F058F9B84AB84B01F06F
:103CB00084F902000B002000290001F057F901F0FF
:103CC0000DFA814601F0F2F904000D00B14AB24B41
:103CD00001F073F90022B14B01F048F901F0FEF94F
:103CE0000600AF4AAF4B2000290001F066F904003E
:103CF0000D00300001F0DAF9AB4AAC4B01F05DF990
:103D000002000B002000290001F027F904000D003B
:103D100002000B0001F051F90A900B91A44BF3182B
:103D200000261F0522002B002000290001F01EF9AB
:103D30000E900F9122002B0000208021C90501F078
:103D40000CF904000D0000229A4B0A980B9901F01F
:103D500016F90022984B01F009F902000B000A98AD
:103D60000B9901F00CF90022944B01F0FFF80200CE
:103D70000B000A980B9901F002F902000B002000D9
:103D8000290001F0F3F802000B000E980F9901F0E2
:103D9000F6F80022774B01F0E9F832003B0001F021
:103DA0000CF906000F0004000D00069A079B01F0B5
:103DB00065F9002830D001235B429C46E144002293
:103DC0007D4B3000390001F0DAF804000D0023E0EB
:103DD0001E9B04931D9B03931C9B0293089A099BB3
:103DE0000092019343460C9A5146584600F0FCF865
:103DF00011B0F0BCBB46B246A946A046F0BD0023B8
:103E0000002406930794069680231B069C4665446F
:103E100007951AE7002399464B466333C62B1ED8F5
:103E200004261E9B1B0526D52B0023430FD0644A76
:103E3000644B0698079901F019F9002879D00022FF
:103E4000614B0698079901F003F9002871D01C9B7B
:103E50004B4506DD4A469B1A013B1C9303E00526B1
:103E6000DFE700231C938023DB001E9A1A431E9277
:103E70000026002399461D9B9E4264D29F1B02236D
:103E80001E9A1A400A921E9A134202D0002E00D0A7
:103E900000274B46002B07D022002B0006980799DD
:103EA00001F06DF806900791002200230898099907
:103EB00001F0CEF8002848D1444B1E9A13400493D9
:103EC00003971C9B0293069B079C00930194434617
:103ED0000C9A5146584600F087F8002E00D187E72B
:103EE0001E9B9B063DD54525441C4346020051467A
:103EF0002800D8474A46D317D2185A4005230593BD
:103F0000013E0496002303930A3302934B46DB0FD2
:103F1000019300924346220051465846FFF78AFD1E
:103F20000A9B002B00D163E702005F460C9E1D9D9B
:103F300054E01C9B002B9ED00D9B002B9BD01C9B08
:103F4000013B1C9397E7002799E7069C079D2200F9
:103F5000290080200006844661440B0006920793E6
:103F6000AAE76525C0E7C046FFFFEF7FFFFFEFFF31
:103F700001FCFFFF0000F03FFB799F501344D33F4B
:103F8000B3C8608B288AC63F0000F83F61436F6367
:103F9000A787D23F71A379094F930A400000E03F01
:103FA0001655B5BBB16B0240EF39FAFE422EE63F23
:103FB000FF03000000002C400000244000001840D7
:103FC0002D431CEBE2361A3F80842E41FFF7FFFFA2
:103FD000541C434651462020B8472200931BAB4255
:103FE000F6D3100004E7C046F0B5DE4657464E460D
:103FF0004546E0B595B00690079193469946209FB7
:104000001E9A1F9B1000190001F03DF8002831D1C5
:1040100001225242BF4B1E981F9901F019F8002847
:1040200037D101225242BC4B1E981F9901F026F84D
:1040300000283DD10022B94B1E981F9901F01EF8AF
:10404000002850D10022B64B1E981F9901F000F8AD
:10405000002848D1002200231E981F9900F0F8FF85
:10406000002850D100239846229B5B0500D4B6E07F
:10407000002458E0229B0393219B02930323019386
:10408000A84B00934B465A4607990698FFF7F2FB58
:104090000EE1229B0393219B029304230193A24BE5
:1040A00000934B465A4607990698FFF7E3FBFFE05B
:1040B0000423229A1A4022990B4210D09B4B002ACB
:1040C0000FD0042222990391219902910192009329
:1040D0004B465A4607990698FFF7CCFBE8E0944B0D
:1040E000EDE70322EEE7229B0493219B03930297C3
:1040F0001E9B1F9C009301944B465A4607990698B5
:10410000FFF768FDD4E01E9A1F9B0020002100F0FD
:1041100024FF1E901F9101239846A5E70CAB302287
:104120001A55013F01341F2C01D8092FF6D81E98CB
:104130001F9900F0D3FF050000F0B8FF02000B004C
:104140001E981F9900F009FF7A4BFA009B181A6815
:104150005B680A920B9300F030FF0890099100F021
:10416000E1FF060000F09EFF02000B00089809998D
:1041700000F0F3FE0890099100226F4B00F07EFFE3
:1041800000282ED00136300000F08CFF02000B001A
:104190000A980B9900F062FF002801D00135002633
:1041A000002F2CD1280000F081FF02000B001E9888
:1041B0001F9900F0D2FE06000F0000225E4B00F0B7
:1041C00047FF002846D100225B4B3000390000F049
:1041D00055FF00283ED1EB073CD501353AE00627D4
:1041E00046E70022544B0898099900F031FF002857
:1041F000D6D1002E01D0F307D2D50136D0E7AA469A
:104200001F2C11D8013F0A21300000F063FC651C0F
:1042100030310CAB19550A21300000F05BFC092E3F
:104220000ED906002C00EBE755461F2C0CD87B1E40
:10423000002F09D00CAA302111551F000134F4E7DA
:104240002B0055461C00F0E71F2C03D80CAB2E2288
:104250001A5501341F2C10D80A21280000F012FC36
:10426000661C30310CAB19550A21280000F00AFCFD
:10427000051E01D03400EDE734000323229A1340D9
:10428000012B1CD01F2C06D84346002B32D00CAB80
:104290002D221A550134229B0393219B02930194F2
:1042A0000CAB00934B465A4607990698FFF7E2FA83
:1042B00015B0F0BCBB46B246A946A046F0BD219B56
:1042C000002B13D04346002B02D10C3313420FD0E6
:1042D000219B013B2193190003E00CAB30221A55BE
:1042E00001348C42CED21F2CF7D9CBE72199F8E7C5
:1042F0002199F6E7229B5B0704D50CAB2B221A55BC
:104300000134C8E7229B1B07C5D50CAB20221A55E8
:104310000134C0E7FFFFEFFFFFFFEF7F65CDCD4129
:1043200065CDCDC180AB011084AB011074AB011021
:104330007CAB011028AD01100000E03FF0B5DE4677
:1043400057464E464546E0B593B082468B4690466A
:104350001193002900D100E300275446119B1878DF
:10436000002800D1FCE2252809D07D1C43463A00F4
:104370005946A047119B013311932F00EEE70133FB
:1043800011930025119A11780B00203BD8B2102808
:1043900003D88300C248C3589F460B00303BDBB2B2
:1043A000092B2CD92A292FD000230A93119B1A7884
:1043B0002E2A39D000239946119A1378683BD9B236
:1043C000122976D88B00B749CB589F4601231D434D
:1043D00001321192D6E702231D4301321192D1E737
:1043E00004231D4301321192CCE708231D430132FF
:1043F0001192C7E710231D4301321192C2E711A8A1
:10440000FFF726FA0A90D1E71C9B1A1D1C921B6825
:10441000002B04DB0A93119B01331193C6E70222A0
:1044200015435B420A93F6E78022D20015435A1CDB
:1044300011925A781300303BDBB2092B04D92A2A97
:1044400007D000239946B7E711A8FFF701FA814684
:10445000B2E71C9B1A1D1C921B68002B04DB9946BB
:10446000119B01331193A7E70023F8E780235B003A
:104470002B43511C119152786C2A01D01D0018E079
:10448000C0239B001D430131119112E080232B4377
:10449000511C11915278682A01D01D0009E0C023F7
:1044A0001D430131119104E080235B001D43013263
:1044B0001192119B1878672816D8252826D3030057
:1044C000253BDAB2422A21D89300774AD3589F4637
:1044D00080239B001D4301321192EAE780235B0099
:1044E0001D4301321192E4E778280FD869280DD3D3
:1044F0000200693AD2B2012393406C4A13420FD1B1
:104500001A0600D503E25B0500D594E17D1C434605
:104510003A005946A047119B013311932F001DE724
:10452000782809D0622838D06F2838D0582838D059
:1045300010239D430A2600E01026582833D069280E
:1045400003D0642801D00C2295436A0501D50122CD
:10455000954369282AD0642828D0AA0500D5A7E069
:10456000EA0500D5C0E06A0600D4D2E01C9A111D0D
:104570001C911168FF220A4005950A9B04934B4643
:104580000393029600230193009243463A00594652
:104590002000FFF74FFA070027E00226CDE70826A4
:1045A000CBE71026C9E720221543C8E7AA0520D487
:1045B000EA0550D46A0666D51C9A111D1C91116833
:1045C000FF220A40D0171118414005950A9B049319
:1045D0004B4603930296D20F0192009143463A0054
:1045E00059462000FFF726FA0700119B013311936B
:1045F000B4E61C9A073207218A43110008311C9146
:10460000116853689C46DB170C930D930C9A0D9B15
:10461000100048400E90624653400F930E980F9939
:104620000C9A0D9B801A99410E900F9108950A9B48
:1046300007934B4606930496002305936346DA0FCF
:1046400002920090019143463A0059462000FFF73C
:104650004FFA0700C9E71C9A111D1C911268D01768
:104660001118414005950A9B04934B46039302960B
:10467000D20F0192009143463A0059462000FFF7BD
:10468000D9F90700B1E72A0605D51C9A111D1C911E
:104690000023D25E96E71C9A111D1C91126891E7C7
:1046A0008CAB0110D0AB01101CAC0110419000008C
:1046B0001C9A073207218A43110008311C91089582
:1046C0000A9B07934B460693049600230593029397
:1046D000536812680092019343463A0059462000FD
:1046E000FFF706FA070080E71C9A111D1C9105953B
:1046F0000A9B04934B46039302960023019313688D
:10470000009343463A0059462000FFF793F907000B
:104710006BE72A0606D51C9A111D1C91126812041B
:10472000120C29E71C9A111D1C91126824E74628D7
:104730001AD01C9B0733072293431A0008321C929D
:1047400004950A9A03924A4602921A685B6800929C
:10475000019343463A0059462000FFF745FC070005
:10476000119B01331193F9E520231D43E1E76728ED
:1047700001D0472802D180231B011D43452801D0C9
:10478000472801D120231D431C9B07330722934355
:104790001A0008321C9204950A9A03924A46029221
:1047A0001A685B680092019343463A00594620001C
:1047B000FFF710FA0700119B01331193CEE5022396
:1047C0001A002A4092462B421FD001251C9B1A1D1D
:1047D0001C927A1C9146187843463A005946A047E5
:1047E0005346002B16D1119B013311934F46B5E56B
:1047F000561C434659462020B8472B0032005D1C0A
:104800009C42F5D83C001700E0E701233A0027005E
:104810000A9CF4E74A46A1460A9C06E0571C434618
:1048200059462020C84735003A006E1CAC42F5D8E6
:104830004C469146D7E71C9B1A1D1C921E684B469E
:10484000002B00D1013B310001E0013113000A7857
:10485000002A02D05A1E002BF7D1891B1091802309
:10486000DB002A001A4092461D4203D0494501D977
:104870004B46109302231A002A400B922B4205D07C
:104880003A00574623004C46994620E03A00109BD8
:104890005F46B346260006E0541C434639002020FC
:1048A000B0472B0022005D1C0A999942F4D83400CD
:1048B0005E46BB461095574623004C46994606E097
:1048C0001C000136551C43465946C8472A0030781B
:1048D000002804D0002FF4D0631E002CF0D1170064
:1048E0004C460B9B002B03D1119B0133119335E5F3
:1048F0000A9F109B06E0561C434659462020A047BD
:104900002B0032005D1C9F42F5D81700ECE72123F5
:104910002B431C9A111D1C911268059308230493C4
:104920004B460393102302930023019300924346C6
:104930003A0059462000FFF77DF80700119B01332C
:1049400011930BE57D1C43463A0059462520A047AC
:10495000119B013311932F0000E50B4B9A46FBE4AA
:10496000A246474502D343465A1E00E03A0043465A
:1049700059460020D047380013B0F0BCBB46B246C1
:10498000A946A046F0BDC046413800100EB430B56F
:1049900084B0010007AC08CC03940122054D0094BB
:1049A00052422800FFF7CAFC04B030BC08BC03B078
:1049B0001847C046393800100CB430B585B00A002D
:1049C00008AC08CC0394054D009401002800FFF7C3
:1049D000B5FC05B030BC08BC02B01847393800102F
:1049E00010B582B0044C009313000A0001002000AF
:1049F000FFF7A4FC02B010BD3938001000B585B037
:104A00000290039101210448009313004A4202A935
:104A1000FFF794FC05B000BD4338001001480421A5
:104A2000014B1847900300204D4A001010B50100BB
:104A300018231B8814221088984710BD10B5010058
:104A400018231B8816221088984710BDF0B5C6465B
:104A500000B507000E0000250123984600E001354F
:104A6000B5420AD2AC003C192068FFF7DFFF206096
:104A70000028F4D100239846F1E7404680BCB846B0
:104A8000F0BD0000124A936F9B0815D29066D16664
:104A9000002905D0FFE7FFE7FFE7516F106F704770
:104AA00004B580210906C2175140002800D0C84330
:104AB00015F0C6F8002104BDF0B5146E556E576FA1
:104AC000166FFFF7E3FF1466556657671667F0BD6C
:104AD000000000D0114A936F9B0813D210665166F4
:104AE000002905D0FFE7FFE7FFE7516F106F704720
:104AF00004B5002801D00020C04315F0A1F8002122
:104B000004BDC046F0B5146E556E576F166FFFF7B3
:104B1000E5FF1466556657671667F0BD000000D0C4
:104B200094464E4A926F9208624601D230E0C046E7
:104B3000F0B54A4EB56F6D08FCD3346E756E776F65
:104B4000366F00F025F89446444A14665566576758
:104B500016676246F0BDC0469446404A926F92087E
:104B6000624601D258E0C046F0B53C4EB56F6D08C4
:104B7000FCD3346E756E776F366F00F04DF8944647
:104B8000364A14665566576716676246F0BDC046DA
:104B9000002B24DB11D000293EDA00B5C943404286
:104BA00000D1013100F038F8C943404200D1013151
:104BB000DB43524200D1013300BD002AEBD1002873
:104BC00001D1002905D00020C90FC90701D1C04378
:104BD000410800B515F02CF80022002300BD00B5F7
:104BE00000290ADBDB43524200D1013300F014F804
:104BF000C943404200D1013100BDC943404200D108
:104C00000131DB43524200D1013300F005F8DB43B0
:104C1000524200D1013300BD002923D1002B18D10D
:104C2000002A0CD0BC460D4F38667A66002100235E
:104C3000FFE7FFE7FFE77A6F386F674670470028A6
:104C400001D00748010000B514F0F2FF0022002354
:104C500000BD02000B00002000217047000000D0C2
:104C6000FFFFFFFF002B00D0BFE0130C28D1002A6C
:104C7000E7D080B4114F39667A66FFE7FFE730B4BA
:104C8000040C7B6F396F1B0423433B667A66FFE796
:104C9000FFE7FFE7C04684B27B6F3D6F1B042343F1
:104CA0003B667A66FFE7FFE7C04600232C042D0C25
:104CB0007A6F386F00196941B0BC7047000000D0AE
:104CC000F0B594460025140E01D112020835140FD8
:104CD00001D112010435940F01D192000235D40F95
:104CE00001D152000135D40B0134254F7C66254C8F
:104CF0003C660E0C93B2FFE7FFE7FFE73C6F6643AD
:104D0000360C7703BE467343DF0B5B04C01AB94110
:104D1000130C7343DB18C91ACE086643360CB6442D
:104D200093B273431F0F1B01C01AB941130C734395
:104D30001F0B1B05C01AB941860D8F023E43664307
:104D4000360C092D24DB520A7243801A7703460A77
:104D50006643360C16235B1BDE40DF40BF196446FA
:104D60006643821B7046043506330100D940A840D3
:104D7000C01900D30131A24206D20023F0BD0000C9
:104D8000000000D0FFFFFFFF121B0130F3D3F1E75B
:104D900009277F1BFE406446A2B27243801A00D2EC
:104DA0000139220C7243130C1204821A99410B0030
:104DB0007046043513370100F940A840801900D32C
:104DC0000131002B02D1A2420AD2F0BD013000D342
:104DD0000131121BFAD2013BF8D1A24200D2F0BD40
:104DE000013000D30131121BF7E7F0B51C0C00D0E5
:104DF00080E00CB400251C0A04D11B02160E3343BC
:104E0000120208351C0B04D11B01160F334312018B
:104E100004359C0B04D19B00960F3343920002355E
:104E2000DC0B02D192185B4101351C0097186441DC
:104E30000134464F7C66464C3C660E0CFFE7FFE7AC
:104E4000FFE7C0463C6F6643360C7703BE4697B219
:104E50007743C01B00D20139C01B00D201399FB279
:104E60007743C91BC91B170C77437E04FF0B801BBC
:104E7000B941CE086643360C0C2D33DBB644120B19
:104E80001F053A431B0B97B27743C01B00D2013971
:104E90009FB27743C91B170C77433E043F0C801B1E
:104EA000B941860D8F023E43664329277F1BFE4092
:104EB0000C3D7746AF40BF1930BCA2B2ABB27243D3
:104EC0007343801A9941220C7243130C1204801A06
:104ED000994102000B000137001BA941F9D2781E4D
:104EE0000021F0BD0C277F1BFE4077467F0BAF40B3
:104EF000FF19E0E700245D1C07D0144F7D6639667A
:104F0000FFE7FFE7FFE7FFE73C6F95B29EB265431F
:104F10006643401BB141150C1E0C654366433604C5
:104F20002F0C3E432D04401BB141994204D2020094
:104F30000B0020000021F0BD01D19042F7D3801A70
:104F4000994101349942F2D3F6E70000000000D005
:104F5000FFFFFFFF48404140484018B41B4B5B68CF
:104F6000FC46019308BD04DF275C001018B4174B02
:104F70001B68FC46019308BD00DF315C00109446BD
:104F8000134A926F920809D2624618B40F4BDB683D
:104F9000FC46019308BD0CDFE95E00100C4AF0B539
:104FA000146E556E576F166F6246FFF7EEFF084A94
:104FB0001466556657671667F0BD18B4034B9B68B7
:104FC000FC46019308BD08DF8D5D00107C72002057
:104FD000000000D0FFB550404240504059404B4087
:104FE000594000E0FFB5154F4C00640D03D0BC42A2
:104FF00004D10C0314D80020090D09055C00640DD0
:1050000003D0BC4204D11C030AD800221B0D1B058F
:1050100001264B4009D44B4003D58B4200D182423C
:10502000FFBD9942FCD19042FFBD0B43DB18034307
:105030001343F5D0C9434918FFBD0000FF07000026
:1050400000B5FFF7CFFF01D0002000BD012000BD5B
:1050500000B5FFF7C7FF804100BDC04600B5FFF7B0
:10506000C1FF01D9002000BD012000BD00B5FFF740
:10507000B1FF01D9002000BD012000BD00B5FFF740
:10508000A9FF804100BD012040054A00121804D844
:105090005A00121801D800207047012070470020E4
:1050A000704700000021002805D17047C117484013
:1050B000401AFAD0C90713B5064B1B6898470CBCB9
:1050C000441CA2401005120B0349091B0905194392
:1050D000114310BD9C7300201F04000010B54C004C
:1050E000620D8023D218DB00D21A5B057E2A10DD08
:1050F0009E3A13DACC170903490819435242D140AA
:10510000640001341532202A05DAD0400843604398
:1051100010BD002010BD0846604310BDC80FC01868
:10512000013810BD18B4044B5B6AFC46019308BDFE
:1051300024DF9960001000007C72002018B4044B3A
:10514000DB6FFC46019308BD7CDF19610010000095
:105150007C72002018B4044BDB6CFC46019308BD44
:105160004CDFC562001000007C72002018B4044BB4
:105170001B6DFC46019308BD50DF61630010000009
:105180007C72002070B513231C78012C14D0012CE4
:1051900014DC022C02DC1F4B1F4A93641F48FFF7EC
:1051A00045FC1F4B186070BD1A491B4A980081507E
:1051B00001331F2BF8D9EAE70023FAE71948FFF774
:1051C0003DFC05001848FFF739FC023803789B00C6
:1051D0007F2B19DD10488022290001F0D3FB022C1F
:1051E000D7D1124B1A88B5231B029A4209D1104B12
:1051F0001A88104B9A4204D10F4B1A880F4B9A42CF
:10520000C7D00020FEF742F90D4B0E4A0E4832215E
:10521000FEF7A2F8ED5B00107C7200204C3300001A
:105220009C73002053440000534600005438000093
:10523000D8380000494600009C380000594600005C
:1052400078AD011020AE0110D8AD011070B504008A
:105250000D001600012A0ED0D20F92195210FFF73E
:10526000F5FF02000B00FFF7A8FEF60703D52200AA
:105270002B00FFF7A2FE70BDF0B5D6464F4646465E
:10528000C0B588B014001D000E0D7605760D974B45
:105290009846B044964B9B1B009001910F0D7F05E3
:1052A00014D0944FBE4211D0991900290ADD9248BA
:1052B00081423ADD019BDB0FDB0700208F4A1A4356
:1052C000110003E00020019BDB0FD907FFF74EFF21
:1052D0008B4A8C4BFFF753FE00228B4B00900191C1
:1052E000FFF7CCFE00280AD00022884B00980199D5
:1052F000FFF733FE00900191854B9846B04443463A
:10530000002B1BD00022834B20002900FFF7AEFEAC
:1053100000281FD04346002B19DB0020774908B036
:10532000E0BCBA46B146A846F0BD00201905009A77
:10533000019B12184B4110001900C7E722002B00F7
:1053400000980199FFF739FE00F02EFAE7E70020F8
:105350000021E4E70022704B20002900FFF77EFEC9
:10536000002808D04346002B02DB00200021D6E7AE
:1053700000206249D3E72000290000F0C9F90600A7
:105380000F0002000B0020002900FFF7E6FD02904D
:1053900003911A2200F094F900F0BAF904000D000C
:1053A00002000B00090D4905480D002913D0514991
:1053B000884210D01A3800280ADD4F49884200DCA4
:1053C00084E0EB0FDB0700244C4A1A43150002E08F
:1053D0000024EB0FDD0722002B0002980399FFF752
:1053E000BCFD0690079130003900FFF777FE81463B
:1053F000030041464B439A464046FFF757FE2200C2
:105400002B0004900591FFF7D8FD06000F0000F077
:105410007FF904000D00FFF761FE8046D0442200B2
:105420002B0030003900FFF798FD04000D00069AAC
:10543000079B04980599FFF7C0FD02000B002000B0
:105440002900FFF793FD049005914846FFF72EFED3
:10545000009A019BFFF7B1FD04000D0000F058F920
:1054600006000F00FFF73AFE804432003B002000A8
:105470002900FFF772FD049A059BFFF777FD0400F2
:105480000D00029A039B00980199FFF796FD2200F8
:105490002B00FFF76BFD00F087F904000D000B0DEA
:1054A0005B055A0D002B00D139E7124B9A4200D10F
:1054B00035E74244002A0EDD0F4B9A420FDDCB0F39
:1054C000DB0700200D4A1A43110028E70024134D82
:1054D000A4185D417FE70020CB0FD9071FE700200C
:1054E000434619050019694119E7C04601FCFFFF51
:1054F000FF030000FF070000FE0700000000F07F30
:10550000EF39FAFE422EE63F0000E03F0000F03F98
:1055100002FCFFFF0000B0400000B0C0000060FED1
:10552000F0B5D64600B582B001900E0000921D0085
:1055300003000C00CA0F9246002955DA2A0D5205C5
:10554000520D584952183ED434218A1A3DD41000C5
:10555000203825D435398140012040429040009EBA
:10556000864330002E008E43310001432FD1342A70
:105570002FD0110020391CD42A00CA4001210A4032
:10558000002A28D0180080263606A119009A2B0080
:10559000FFF7C6FF8B19190002B080BCBA46F0BDF8
:1055A0002020801A012149420E00C640914031431B
:1055B000D2E72021891A2800884001000098D040B5
:1055C00002000A43DAE70022DAE70022D8E70022E5
:1055D000D6E70122D4E7180080231B06E118009AC1
:1055E0002B00FFF79DFFD7E700982900FFF776FD16
:1055F0000700019A310D4905480D002907D02A49B5
:10560000884213D033031B0B1A43504250410028E9
:105610000ED1002F43D03B002033402B2DD9009AD0
:105620002B0001983100FFF727FEB5E75046EEE763
:10563000220D5205520D1B4B9C46624480231B01D8
:105640009F4204DA194B9F4202DA184F00E0164FCE
:105650007A43174BD318002B09DD16498B4209DC1E
:10566000002011050022144B8018594194E70020B6
:10567000002191E7002011498EE7002F05DB3A0059
:1056800001983100FFF7E2FD86E7019A3300002020
:105690000949FFF774FC01900E007F42EFE70020FC
:1056A000054979E701FCFFFFFF07000000F8FFFF55
:1056B000FF030000FE0700000000F03F0000F07F45
:1056C00030B50B0D5B055C0D002B14D00D4B9C42CF
:1056D00011D01419002C09DD0B4B9C420CDDC90FB5
:1056E000C907002409480843050002E00024C90F47
:1056F000CD072000290030BD0024150524184D4198
:10570000F7E7C046FF070000FE0700000000F07F3B
:1057100070B50B0D5B055B0D214A944663445A1C22
:1057200024DB5A1C28D03422D21A002A1DDD33244F
:10573000E41A2500203D26D40126AE403300012581
:10574000A5402A0012184B412500203D21D40226F5
:10575000AE4031000225A5402800002544428D417D
:105760001600264030002B40190070BD0022C90FE2
:10577000CB0710001900F8E7CB0FDB070020094A20
:105780001A431100F1E720252D1B0126EE403300BE
:10579000D5E720252D1B0226EE403100DAE7C04672
:1057A00001FCFFFF0000F03F70B505000C000A0D82
:1057B000284B9A4247D00022274B28002100FFF7B0
:1057C0004DFC002842D10022244B28002100FFF785
:1057D0004DFC002802D00020214939E0280021009A
:1057E000FFF796FFFFF77AFC0600FFF75FFC020069
:1057F0000B0028002100FFF7B0FB1A4A1A4BFFF7F5
:10580000DCFBFFF7A7FC04000D000B0D5B055A0D38
:10581000002B1DD0154B9A421AD0B218002A09DD70
:10582000134B9A420ADDCB0FDB0700200C4A1A43C8
:1058300011000DE00020CB0FD90709E00020310551
:105840000019694104E00020002101E0002000214E
:1058500070BDC046FF0F00000000B0C00000B040A7
:105860000000F07FEF39FAFE422EE63FFF0700000E
:10587000FE070000F0B583B0050000900C00019217
:105880001F000022B74B28002100FFF7D9FB00289A
:1058900041D13E0D73055D0D002B3CD00022B24B73
:1058A00000982100FFF7CCFB002803D0AF4B9D42AE
:1058B00000D17FE1220D5305590D002B00D081E06E
:1058C000FA0F002F3FDB3B0D5B055B0DA8495B1812
:1058D0001CD43420C01A19D40100203921D401234A
:1058E0005B428B40012149428140019D8D4329004B
:1058F0003D009D432B000B4308D1342821D00300E9
:10590000203B17D43A00DA4001231A40002A00D184
:1059100053E1009D01E00025924C2800210003B0D6
:10592000F0BD2021091A01235B421D00CD408340B8
:105930002B43D7E720231B1A9F40019AC2403A43CA
:10594000E2E70122E2E73B0D5B055B0D884A9B180D
:105950001BD43422D31A18D41800203820D4353A56
:105960008240012040429840019D854328003D002F
:1059700095432A00024308D1342B21D01A00203A43
:1059800017D43900D14001231940002900D117E173
:10599000E40FE40700227749214315000C00BCE71F
:1059A0002020C01A012252421500C5409A402A43C5
:1059B000D7E72022D21A97400199D9403943E2E72C
:1059C0000121E2E7694B9A422CD06B4B9A422FD0CF
:1059D000664B9E4200D1A8E0674B9E4200D1AAE0F0
:1059E0003B0D5B055A0D002B00D1B3E0604BD21884
:1059F00000D5C7E034239B1A002B00DCC4E019005B
:105A0000203900D59DE0012252428A4001214942BD
:105A10009940019B8B43390091430B4300D0B5E083
:105A2000013398E0002F00DBCDE00025002474E76F
:105A3000FA0F002F39DB3B0D5B055B0D4C495B1802
:105A40001BD43421CB1A18D4180020381BD4353974
:105A50008140012040429840019C844320003C004A
:105A60008C432100014308D1342B1CD01A00203A6A
:105A700012D4D7403A0001231A40002A00D1A5E0F1
:105A800000253E4C49E72020C01A012149420C0064
:105A9000C44099402143DCE72022D21A9740019A62
:105AA000DA403A43E7E70122E7E73B0D5B055B0D90
:105AB0002F4A9B1831D43422D31A30D419002039FC
:105AC0001AD4353A8A4001214942994001988843C5
:105AD00001003800904302000A4322D1342B22D027
